:1000000000800020BD01000091390000553900003A
:1000100055390000553900005539000055390000A8
:10002000553900005539000055390000913900005C
:100030009139000055390000913900004539000020
:100040009139000091390000913900009139000088
:100050009139000091390000913900009139000078
:100060009139000091390000913900009139000068
:100070009139000091390000913900009139000058
:100080009139000091390000913900009139000048
:100090009139000091390000913900009139000038
:1000A0009139000091390000913900009139000028
:1000B0009139000091390000913900009139000018
:1000C0009139000091390000913900009139000008
:1000D00091390000913900009139000091390000F8
:1000E00091390000913900009139000091390000E8
:1000F0009139000045400000913900005D47000043
:1001000091390000D94C000091390000913900006C
:1001100091390000913900009139000091390000B7
:1001200091390000913900009139000091390000A7
:100130009139000091390000913900009139000097
:100140009139000091390000913900009139000087
:10015000D1500000E9500000015100001951000089
:1001600091390000152700009139000091390000F5
:100170009139000091390000913900009139000057
:100180009139000091390000913900009139000047
:100190009139000091390000913900009139000037
:1001A0009139000091390000913900009139000027
:1001B000913900009139000091390000574B4CF201
:1001C000205210B51A804DF628121A8000BF00BFC9
:1001D00003F0E2FB524B4FF010621A60514A9A60F2
:1001E000514ADA60A3F53043203B1A6812F480725A
:1001F00004D14E490A604FF4A8521A604C4B1A7849
:10020000110703D51A7842F008021A70494B4A4C7C
:100210004A482A221A704A4A00239918A14203D256
:10022000195899500433F8E7464B474900228B424E
:1002300002D243F8042BFAE74448454900235A58B0
:100240001A500433B3F5DE7FF9D1424B424A802184
:1002500003F8011B9342FBD1404B3C4A1A60404BD0
:100260000A221A70A3F5805324225A70A0221A7011
:100270009A799207FCD59A79D406FCD4394A9379B5
:1002800003F00C03082B374BF9D103221A714022DB
:100290005A719A799006FCD5324A9179314B4906C8
:1002A000FBD5314A314911600221516020221A7078
:1002B0009A7902F00C020C2AFAD12D4B2D4A1A60C1
:1002C0002D4B4BF67F321A6000225A60072243F80A
:1002D000042C2A4AC3F80C2D62B602F0DBF8134B4B
:1002E0001B68DA0705D5264801F066FE254B264A2D
:1002F0001A60264B1B785B0609D5224C224A2368DC
:10030000934204D11E4801F057FE0023236005F0FC
:100310007BFF03F047FB03F015FAFEE70E200540D4
:1003200030800440823F04000100002B14D00340C1
:1003300002D0074000E007405C90FF1F10710000F2
:100340006087FF1F6090FF1FDC9BFF1F0082FF1F65
:100350000000000000E400E05FE400E008ED00E0E1
:100360000050064000400640448004400000131145
:1003700004800440C010050014E000E000002020CC
:100380006231D9571CE00340A5C3945A00F00740DE
:10039000FFFFFFFFFFFFFFFFFFFFFFFFFFFFFFFF6D
:1003A000FFFFFFFFFFFFFFFFFFFFFFFFFFFFFFFF5D
:1003B000FFFFFFFFFFFFFFFFFFFFFFFFFFFFFFFF4D
:1003C000FFFFFFFFFFFFFFFFFFFFFFFFFFFFFFFF3D
:1003D000FFFFFFFFFFFFFFFFFFFFFFFFFFFFFFFF2D
:1003E000FFFFFFFFFFFFFFFFFFFFFFFFFFFFFFFF1D
:1003F000FFFFFFFFFFFFFFFFFFFFFFFFFFFFFFFF0D
:10040000FFFFFFFFFFFFFFFFFFFFFFFFDEF9FFFF23
:1004100010B5054C237833B9044B13B10448AFF33E
:1004200000800123237010BD6090FF1F00000000BA
:100430001071000008B5064B1BB106480649AFF322
:1004400000800648036813B1054B03B1984708BD07
:1004500000000000107100006490FF1F5C90FF1FFF
:100460000000000008B520B10720002101F060FE67
:1004700008BD0720012101F05BFE08BD08B520B1D1
:100480000820002101F054FE08BD0820012101F0E0
:100490004FFE08BD08B520B10320002101F048FE41
:1004A00008BD0320012101F043FE08BD08B520B1BD
:1004B0000620002101F03CFE08BD0620012101F0CC
:1004C00037FE08BD08B520B11420002101F030FE30
:1004D00008BD1420012101F02BFE08BD00B585B038
:1004E000134B1B680193019A124B1B68D31AB3F587
:1004F000967F08D30E4B1B680293029A0D4B1A602D
:10050000092003F0E5F8092003F0E2F8084B1B6826
:1005100003930399074B1B68C91A01F596710920CB
:1005200089B2642203F04CF805B05DF804FB00BF0B
:100530008898FF1F1498FF1F2DE9F04F87B041F2F4
:10054000883001F091FF0720012101F023FE0820EF
:10055000012101F01FFE1420012101F01BFE0920E2
:10056000012101F017FE0D20012101F013FE0320EF
:10057000012101F00FFE0620012101F00BFE0A20EF
:1005800001F02AFD0520012101F004FE704C052038
:10059000214601F02DFD0420012101F0FBFD042086
:1005A000214601F025FDDFF8E481D8F800305B68D2
:1005B0004046684914229847404602F0B1FE664C16
:1005C000204601F0E5FB654F20463946002201F048
:1005D000CBFA634E20463146012201F0C5FA614D47
:1005E00020462946022201F0BFFA204639460B2256
:1005F00001F076FB204631460B2201F071FB2046CC
:1006000029460B2201F06CFBD8F800305B684046AD
:10061000554908229847204601F098FA014640467D
:100620000A22002302F08CFE404602F079FED8F840
:1006300000305B6840464D4913229847404602F01F
:100640006FFE02230093DC230193DFF84491CDF881
:10065000089047484FF4E1310022012300F00CFFDD
:100660004FF4E1300021012200F0D6FED8F800302E
:100670005B6840463F491C229847404602F050FEC6
:10068000DFF810B1002400252FA7D7E90067CDE9D6
:100690000067584622462B4600F0DCFDDFF8F8A044
:1006A000CDE90067504622462B4600F0D3FD584660
:1006B000012100F041FE5046012100F03DFED8F836
:1006C00000305B6840462C490F229847404602F0B4
:1006D00027FE484600214FF45C7206F061F8274B74
:1006E0001A6804920499264A11601B680593059ABA
:1006F000244B1A60D8F800305B6840462249152226
:100700009847404602F00CFE0020FFF7ABFE0020A9
:10071000FFF7B4FE0020FFF7D5FE0020FFF7BAFE7A
:100720000020FFF7C3FE0520002101F083FD042017
:10073000002101F07FFD0D20012101F0F9FCFFF700
:10074000CDFE07B0BDE8F08F0000000000F88F403C
:1007500000E0AB46F06B0000B894FF1FB094FF1FA1
:100760000C98FF1FD494FF1F086C0000146C00004D
:100770008099FF1F286C0000486C00008898FF1FBC
:100780008895FF1FA890FF1F586C0000B499FF1FA9
:10079000B890FF1F3894FF1FE094FF1FAFF3008055
:1007A00070B584B0854C23685B6820468449052277
:1007B0009847844E336802930299834B1B68C91A89
:1007C000824DA5FB0121204689090A22002302F05F
:1007D000B7FD23685B6820467D4907229847336848
:1007E0000393039A7B4B1B68D31AA5FB0321204676
:1007F00089090A22002302F0A3FD23685B682046D2
:10080000754909229847754801F0A0F9014620462C
:100810000A22002302F094FD23685B682046704999
:10082000062298476F4B1B6833B1204623685B68EC
:100830006D490422984705E0604803685B686B498E
:10084000032298475D4803685B6869490622984718
:10085000644B9B6833B1594803685B686549022261
:10086000984705E0554803685B6863490322984749
:10087000524803685B68614905229847594B5B6899
:1008800033B14E4803685B685A490222984705E035
:100890004A4803685B68584903229847474C2368D5
:1008A0005B68204656490722984720464D4B996879
:1008B0000A22002302F044FD23685B682046514968
:1008C000072298472046504B19680A22002302F05D
:1008D00037FD23685B6820464C490722984720462D
:1008E0004B4B19680A22002302F02AFD23685B683B
:1008F00020464849072298472046474B19680A2254
:10090000002302F01DFD23685B6820464349062250
:100910009847434BD3E9002302250095204602F077
:100920004BFD23685B6820463E49062298473E4BB4
:10093000D3E900230095204602F03EFD23685B6862
:1009400020463A4906229847072001F015FC30B9A5
:10095000204623685B6827492A46984705E01748E0
:1009600003685B68244903229847144803685B685E
:100970002F4909229847082001F0FEFB30B90F48A3
:1009800003685B681B490222984705E00B4803682F
:100990005B68194903229847084803685B68254942
:1009A00008229847142001F0E7FB002844D10348AF
:1009B00003685B680F490222984743E0B499FF1F20
:1009C000706C00008898FF1FA890FF1FD34D621025
:1009D000786C00008895FF1F806C0000B894FF1FA2
:1009E0008C6C0000B890FF1F946C00009C6C0000A1
:1009F000A06C0000A86C0000AC6C0000B06C0000A3
:100A0000B86C0000C06C00003094FF1FC86C000080
:100A10002098FF1FD06C00008890FF1FD86C00004A
:100A2000A090FF1FE06C00001898FF1FE86C00000A
:100A3000F06C0000FC6C00001C4803685B681C49FB
:100A400003229847194803685B681A490B229847A4
:100A5000032001F091FB30B9144803685B68164924
:100A60000222984705E0114803685B681049032299
:100A700098470E4803685B6810490B229847062088
:100A800001F07AFB30B9094803685B680A49022221
:100A9000984705E0054803685B68054903229847C5
:100AA000024802F03DFC04B070BD00BFB499FF1FC6
:100AB000AC6C0000086D0000A86C0000146D000014
:100AC000F0B587B002F080FA28B1FFF707FD02F019
:100AD0002FFAFFF765FE8E4C2046002101F08AF9BF
:100AE000204601F0D5F920468A4901F051FA8A4999
:100AF00005F094F905F058FB884B186020468849AA
:100B000001F046FA844905F089F905F04DFB854B63
:100B100018602046844901F03BFA7F4905F07EF9D0
:100B200005F042FB814B186000F04AFD002380482D
:100B30008049CA18126D1A500433282BF9D17E4F00
:100B40003B1F07F51F7700257A4E0AE0D2F8A01068
:100B500043F8041F22448342F8D10435B84205D03B
:100B600003462C46324603F15000EFE7714C6B4BC5
:100B70001B6823616B4B1B6863616C4B1B68A36133
:100B80006E4BD3E9000105F01BF8E0616C4BD3E933
:100B9000000105F015F8206223685BB10022626055
:100BA000E268654B53F822306BB9A3685BB9FFF775
:100BB00095FC02E000225F4B9A605E4B5B6813B1CC
:100BC0005C4B9B68DBB90020FFF74CFC0020FFF773
:100BD00055FC0020FFF776FC0020FFF75BFC0020AF
:100BE000FFF764FC0520002101F024FB0420002114
:100BF00001F020FB4F4B9B68002B00F0F680514B1F
:100C00001B68039303984B4BDB6803F18C014A4A42
:100C100052F821204EF6602101FB02F14A4A126887
:100C2000821A91420FD80133424AD360454A126872
:100C300004920499444A11603F4A52F8233013B990
:100C400000223C4B9A603B4BDA6814323A4B53F823
:100C500022301BB10120FFF705FC02E00020FFF766
:100C600001FC344BDA682832334B53F822301BB185
:100C70000120FFF703FC02E00020FFF7FFFB2D4BF4
:100C8000DA68A0322C4B53F822301BB10120FFF759
:100C900019FC02E00020FFF715FC264BDA683C3215
:100CA000254B53F82230002B56D0194800F04EFF48
:100CB000032851D1194B186804F04AFC234BC3E9AF
:100CC00000011C4BDA6864321B4B53F8220004F01D
:100CD0003FFC1F4BC3E900011E4800F0D3F9174C3D
:100CE000D4E9000104F044FF0146052001F0A2FA16
:100CF000D4E900010022002304F008FF18B9012004
:100D0000FFF7C8FB2FE00020FFF7C4FB2BE000BF7C
:100D1000B894FF1FB094FF1F0000C8423094FF1F1B
:100D20000C98FF1F2098FF1FD494FF1F8890FF1F6F
:100D30005895FF1FB890FF1F8C95FF1FA090FF1FB5
:100D40001898FF1F8898FF1F8895FF1F8090FF1F2E
:100D50002894FF1F3894FF1F0020FFF79BFB0520FE
:100D6000002101F067FA844BDA685032834B53F864
:100D70002230002B31D0824800F0E8FE03282CD12D
:100D8000804B186804F0E4FB7F4BC3E900017A4B09
:100D9000DA687832794B53F8220004F0D9FB7B4BA8
:100DA000C3E900017A4800F06DF97A4CD4E90001FA
:100DB00004F0DEFE0146042001F03CFAD4E9000113
:100DC0000022002304F0A2FE18B90120FFF76EFBF9
:100DD00011E00020FFF76AFB0DE00020FFF766FB43
:100DE0000420002101F026FA05E06B4B1B680593F7
:100DF000059A6A4B1A60604B5B68002B00F0BA8062
:100E0000674B1B681BB10120FFF72CFB02E00020A1
:100E1000FFF728FB624B5B681BB10120FFF72EFB3D
:100E200002E00020FFF72AFB5D4B9B6A1BB101200B
:100E3000FFF748FB02E00020FFF744FB584B9B689C
:100E4000002B42D0564B9B696BB34D4800F07EFEA1
:100E5000032828D1534B186804F07AFB524BC3E99E
:100E600000014F4B186A04F073FB504BC3E90001BB
:100E70004F4800F007F94F4CD4E9000104F078FE28
:100E80000146052001F0D6F9D4E900010022002333
:100E900004F03CFE18B90120FFF7FCFA1CE000202A
:100EA000FFF7F8FA18E00120FFF7F4FA3C4B186955
:100EB00040F2FF330093002164220B4602F034FC21
:100EC0000146052001F0B6F906E00020FFF7E2FA3E
:100ED0000520002101F0AEF9314BDB68002B42D038
:100EE0002F4BDB696BB3264800F030FE032828D176
:100EF000244B186804F02CFB234BC3E90001284B5A
:100F0000586A04F025FB214BC3E90001204800F09A
:100F1000B9F8204CD4E9000104F02AFE014604206F
:100F200001F088F9D4E900010022002304F0EEFD6D
:100F300018B90120FFF7BAFA1CE00020FFF7B6FA53
:100F400018E00120FFF7B2FA154B586940F2FF3361
:100F50000093002164220B4602F0E6FB01460420C8
:100F600001F068F906E00020FFF7A0FA0420002154
:100F700001F060F907B0F0BDB890FF1F8C95FF1F1E
:100F8000B894FF1F2098FF1FB090FF1F8095FF1F90
:100F9000E094FF1F1898FF1F8898FF1F8895FF1F78
:100FA0005895FF1F3094FF1F8090FF1F2894FF1F4C
:100FB0003894FF1FA090FF1F2DE9F0478CB0214C03
:100FC00020460A2100F000FD1F48214600F0B0FD38
:100FD0004FF000084FF08049CDE9008900261B4FF3
:100FE000CDE9026700241A4DCDE904454FF0000A0F
:100FF000CDF818A017481849184A194B00F0D4F931
:10100000CDE90089CDE90267CDE90445CDF818A006
:1010100014481549154A164B00F0C6F9154B1A68C5
:101020000B920B99144A11601A680A920A99134A92
:1010300011601B680993099A114B1A600CB0BDE846
:10104000F08700BF8C90FF1FB894FF1F0000144072
:101050000000F03F3894FF1F8090FF1FA090FF1FFB
:101060002894FF1FE094FF1FB090FF1F1898FF1FE8
:101070008095FF1F8898FF1F1498FF1F8895FF1FFA
:10108000A890FF1F2DE9F04F89B0064690F87070C8
:10109000002F71D03A4B1B68079307990191036C9D
:1010A000CA1A836D9A4266D3436BD3E90089C36B36
:1010B000D3E9000142464B4604F00CF9CDE90201A8
:1010C000D6E9082304F0BAFAD6E9122304F004F9A9
:1010D00004460D46C6E91245D6E91AAB52465B46B0
:1010E00004F03CFD10B1C6E912AB0CE0D6E91823C0
:1010F000CDE904232046294604F012FD18B1DDE9AC
:101100000423C6E91223DDE90201D6E9062304F02F
:1011100095FAD6E9122304F0DFF804460D4640465E
:101120004946D6E9142304F0D5F8D6E90A2304F099
:1011300085FA02460B462046294604F0CBF80446C1
:101140000D465046594622462B4604F0E9FC50B95C
:10115000D6E918AB2046294652465B4604F0E0FC2F
:1011600008B9A246AB46B36BC3E900ABC6E9148924
:10117000019B336400E00027384609B0BDE8F08FDA
:101180008898FF1F2DE9F047824614461D46DDE989
:101190000867104619460022002304F0C1FC00280D
:1011A00053D1304639460022002304F0B9FC002810
:1011B0004BD1DDE90A010022002304F0B1FC002834
:1011C00043D1CAE90045CAE90267DDE90A23CAE951
:1011D0000423DAF8580004F0BBF900221C4B04F099
:1011E00057FB80468946CAE906453046394642469D
:1011F0004B4604F023FA06460F46CAE90867DDE9C4
:101200000A0142464B4604F043FB80468946CAE940
:101210000A89DAF83030012B17D10020002122464C
:101220002B4604F057F8CAE9060100200021324697
:101230003B4604F04FF8CAE908010020002142466D
:101240004B4604F047F8CAE90A01BDE8F08700BF41
:1012500000408F402DE9F84F824616461F46DDE9D3
:101260000A451046194622462B4604F06DFC00281C
:1012700038D1CAE91867CAE91A459AF87030002BC4
:1012800030D0DAF838B0DBE90089204629464246FA
:101290004B4604F045FC10B1CBE9004508E0304670
:1012A000394642464B4604F059FC08B1CBE9006789
:1012B000DAE91245DAE91A672046294632463B4602
:1012C00004F04CFC18B1CAE91267BDE8F88FDAE9FE
:1012D00018672046294632463B4604F021FC08B1F7
:1012E000CAE91267BDE8F88F2DE9F0418046836BAB
:1012F000D3E90045C0E91245436BD3E90023C0E9B7
:101300001423D0E91A672046294632463B4604F0AA
:1013100025FC18B1C8E91267BDE8F081D8E9186763
:101320002046294632463B4604F0FAFB08B1C8E99C
:101330001267BDE8F08100BF38B50446012914BF2B
:101340000025012590F8703083F00103AB4201D1F4
:10135000FFF7CAFF84F8705038BD00BF38B50446A7
:101360000D4690F87030D3B1036B8B4217D000203C
:101370000021D4E9062303F0ADFFC4E906010020F3
:101380000021D4E9082303F0A5FFC4E908010020E7
:101390000021D4E90A2303F09DFFC4E90A01256373
:1013A00038BD00BFFFFFFFFF10B586B00446826363
:1013B0004163C363002380F8703000220023C0E93A
:1013C000182311A3D3E90023C0E91A2364238365FA
:1013D0000E99FFF7C3FFDDE90A23CDE90023DDE91C
:1013E0000C23CDE902232046DDE90823FFF7CAFEDE
:1013F000074B1B680593059AA36DD31A23642046F7
:1014000006B010BDAFF300800000000000E06F40A8
:101410008898FF1FAFF3008070B504460E4615464E
:101420000F4B18680368DB692146324698470D4B1D
:101430001D70B4F5964F08DD40F2EE220A4B1A609B
:1014400040F2D662094B1A6070BD094A92FBF4F271
:10145000054B1A60074B93FBF4F4044B1C6070BD02
:101460008098FF1F7C98FF1F7898FF1F6C98FF1FC4
:10147000C0E1E400C00E160238B59DF810500D4CC6
:101480002060084611461A46FFF7C6FF0A4A059B28
:1014900013600A4A069B1360094C257028460121F7
:1014A00000F078FE2078002100F042FE0022054B7B
:1014B0001A6038BD8098FF1F7098FF1F2498FF1F87
:1014C0002898FF1F8498FF1F70B4C8B1104B5C1E92
:1014D000421E53FA82F64FF6FF7308254AF20100C6
:1014E00014F8012F53402A4603F001015B0801B1B3
:1014F0004340013A12F0FF02F6D1B442F0D101E0CC
:101500004FF6FF731A0242EA132080B270BC704794
:101510002C98FF1F70B50546124B1878012100F07A
:1015200007FE6DB1104B5C1E013D53FA85F60F4D61
:10153000286803681B6814F8011F9847B442F7D164
:101540000A4B186803685B699847094B1B681B01C5
:1015500002D0013B7FF4FDAF024B1878002100F070
:10156000E7FD70BD2898FF1F2C98FF1F8098FF1F74
:101570006C98FF1F10B50D4B1A6801321A600C4BA6
:101580001B7893B90B4C0C4B1B7823700B4B1B78BF
:1015900063F07F036370A0700320FFF795FF030AD9
:1015A000E37020710520FFF7B5FF10BD8498FF1F81
:1015B0007498FF1F2C98FF1F7C98FF1F7598FF1FC2
:1015C0002DE9F0418B4B186803689B689847002809
:1015D00000F00C8100263446864DDFF82482864FC9
:1015E00017E026B128680368DB6898470BE0402CB9
:1015F00014BF0026012628680368DB68984708F8AE
:1016000004000134E4B23B681B0102D0013B7FF4CB
:10161000FDAF286803689B6898470028E1D12EB188
:10162000764B1868421C1A60BDE8F081072C40F226
:10163000D580734B1B781BB10021724A117002E0F8
:101640000121704A1170704A1578AB4204D06D4B7D
:101650001B78002B00F0CA802646A01EC0B2FFF700
:1016600033FF674B1C4414F8022C14F8013C43EA86
:101670000223834240F0AD80614B5A7863490A707F
:101680009878D97841EA002118795B7943EA0023F8
:101690005C185C48007800283CD1032A3AD15C4AA7
:1016A0001268914232D294422CD85B00DFB27E1D88
:1016B000F6B2534B1D709F70CBB219469C4212D9A3
:1016C000544AD2F800E003224D4D5EF82110080A7A
:1016D000A854501CC0B229540232D2B20133DBB23A
:1016E00019469C42F1D8F81CC0B2FFF7EDFE444BFE
:1016F0003344020A03F8022C03F8010C3046FFF7CA
:1017000009FF73E00320FFF735FF6FE00220FFF7CA
:1017100031FF6BE0062A1AD13D4A1268914212D27B
:101720003C4A126842F821300620FFF7CDFE344BC8
:10173000020A9A71D871334B1B78002B56D10820BE
:10174000FFF7E8FE52E00220FFF714FF4EE0102AF8
:101750003BD12B4B9B79093EB34231D12C4B1B68BB
:10176000994229D29C4223D8C9B208468C4211D949
:101770000723284F224AD5186D78D65C45EA0626FD
:101780003D6845F820600233DBB20131C9B208463A
:101790008C42F0D80620FFF797FE194B020A9A7187
:1017A000D871184B1B780BBB0820FFF7B3FE1DE068
:1017B0000320FFF7DFFE19E00220FFF7DBFE15E054
:1017C0000E4B1A6801321A6010E00120FFF7D2FEBA
:1017D0000CE00A4B1A6801321A6007E0013CE4B2DF
:1017E000062C03D8054B1A6801321A60034B18689F
:1017F000BDE8F0818098FF1F7898FF1F8498FF1F35
:101800002C98FF1F7498FF1F7C98FF1F7598FF1F6F
:101810007098FF1F2498FF1F426872B6002382F859
:10182000803262B67C20202103E0013810F0FF00F6
:101830002AD00B46013B7FF4FDAF92F8003213F043
:10184000FF0FF2D072B6012382F8003182F88032A5
:1018500062B64FF4F053013B7FF4FDAF72B6002344
:1018600082F880324FF48C63013B7FF4FDAF92F835
:10187000003213F0FF0F14BF0020012062B64FF4B6
:10188000CD53013B7FF4FDAF704700BF436811F0BB
:10189000010F12D072B6012283F8002183F8802252
:1018A000A02101397FF4FDAF83F8802062B64FF4A8
:1018B0005C73013B7FF4FDAF704772B6012283F881
:1018C000002183F880224FF4826101397FF4FDAF5B
:1018D00083F8802062B65023013B7FF4FDAF704750
:1018E000436872B6012283F8802283F800213022F7
:1018F000013A7FF4FDAF002283F88022A022013A52
:101900007FF4FDAF93F80002C0B262B64FF4547397
:10191000013B7FF4FDAF70472DE9F04106460F46CD
:101920009046082501243C4230460CBF002101218D
:10193000FFF7ACFF6400E4B2013DF4D1B8F1000F51
:1019400009D172B67368002283F88022736801227D
:1019500083F8002162B6BDE8F08100BFF8B5074604
:101960000824002601253846FFF7BAFF00B12E43B0
:101970006D00EDB2013CF6D13046F8BDF8B5074632
:101980000E4655210022FFF7C7FF002425463846A2
:10199000315D2A46FFF7C0FF0134082CF7D1F8BDAE
:1019A00008B5CC210022FFF7B7FF08BD0023037460
:1019B00083744374C37307230021013BC21811725F
:1019C000002BFAD1704700BF38B504460D460846D3
:1019D000002100F0DFFB01232370044B53F8353066
:1019E00063602046FFF7E2FF204638BD206E00000E
:1019F0002DE9F84F044689461546837C002B65D1B6
:101A0000FFF70AFF034620B900222274A274627411
:101A100072E02DB12046F0210022FFF77DFF04E0A7
:101A20002046EC210022FFF777FF01260027BB4666
:101A3000B046B2462046FFF753FF05462046FFF763
:101A40004FFF012D02D1012819D134E085421CD16C
:101A5000257CA84506D2E3191B7A1E420CBF00253F
:101A6000012503E0A84514BF002501252DB9B8F1D3
:101A7000080F3AD884F8118037E0012D05D1E31919
:101A80001A7A32431A72554604E0E3191A7A22EAA6
:101A900006021A7220462946FFF7F8FE08F10108EF
:101AA0005FFA88F8760016F0FF0602D10137FFB220
:101AB0005646072FBED9B8F1400F07D984F810B0A9
:101AC000BBF1000F13D10123A37410E00020207498
:101AD000A074607403460FE0E218127A09F803203C
:101AE0000133082BF8D1012306E0C346CDE7237A62
:101AF000002BEBD00023EFE71846BDE8F88F00BFBE
:101B000010B403464C1EE4B251B101340444002029
:101B1000054913F8012B5040085CA342F9D100E0BD
:101B200000205DF8044B7047206D0000704700BF37
:101B3000054A8261816000220271027009224270AE
:101B400001228270C27070472D1B0000007970471F
:101B500010B50C4608460721FFF7D2FFE379834210
:101B600014BF0020012010BD2DE9F04106460F46AC
:101B700015468068FFF71AFF00244FF001080CE0BB
:101B8000E3B2AB4205D130463946FFF7E1FF0346E9
:101B900068B90134E3B2AB4208D8B068394642466E
:101BA000FFF726FF0028EBD1002300E000231846B2
:101BB000BDE8F08170B504460E4615468068FFF713
:101BC0002BFEA0683146FFF7D9FEA068BE21002297
:101BD000FFF7A2FEA068FFF7C1FE2870A068FFF71C
:101BE000BDFE6870A068FFF7B9FEA870A068FFF797
:101BF000B5FEE870A068FFF7B1FE2871A068FFF796
:101C0000ADFE6871A068FFF7A9FEA871A068FFF794
:101C1000A5FEE871A068FFF7A1FE2872A068FFF793
:101C2000FBFD70BD10B51446FFF7C4FF2046082128
:101C3000FFF766FF237A834214BF0020012010BD06
:101C400070B504460E4615468068FFF7E5FDA068AE
:101C50003146FFF793FEA0684E210022FFF75CFE9D
:101C6000A068A9780022FFF757FEA068E978002253
:101C7000FFF752FE3378102B04D0A0682979002298
:101C8000FFF74AFEA068FFF7C7FDA0684821227849
:101C9000FFF742FE237813B10A2000F0E5FBA068AD
:101CA000FFF7BAFD70BD00BF38B504460D46806829
:101CB000FFF7B2FDA0682946FFF760FEA068B421D7
:101CC0000022FFF729FEA068FFF70AFE0546A0687C
:101CD000FFF7A2FDD5F1010038BF002038BD00BFDD
:101CE00070B584B006460C46154601AAFFF79AFF68
:101CF000F8B12378102B1ED00B2D08D00C2D02D05C
:101D00000A2D0CD107E07F238DF808300AE05F230D
:101D10008DF8083006E03F238DF8083002E01F23DD
:101D20008DF808303046214601AAFFF789FF0120CF
:101D300002E0002000E0012004B070BD00B585B0D5
:101D40000B78102B1CD001AAFFF76CFFD0B19DF8C7
:101D500008303F2B09D002D81F2B08D009E05F2B99
:101D600012D07F2B05D10C200FE00A200DE00920B6
:101D70000BE003F0F003F02B0CBF0C20002004E07C
:101D8000092002E0002000E00B2005B05DF804FB14
:101D900070B586B004468068FFF708FE0023237103
:101DA00001251DE0204601A9FFF7D2FEC0B123782E
:101DB0002BB9204601A9FFF777FF00B12570204617
:101DC00001A903AAFFF7F6FE6678204601A9FFF7EE
:101DD000B5FFB04238BF30466070237901332371BC
:101DE000A06801A92A46FFF703FE0028DAD106B051
:101DF00070BD00BF8170704700B585B001AAFFF7C4
:101E0000D9FE9DF80400003018BF012005B05DF830
:101E100004FB00BF2DE9F04383B004460E46D2B167
:101E2000C378C3B10378B3B9184B1B680093DDF8CE
:101E300000900025DFF8548040F2ED272046294627
:101E4000FFF7DAFF38B9D8F800300193019BC9EBEE
:101E50000303BB42F2D933780A2B07D00B2B09D0EE
:101E6000092B0CD15E2000F0FFFA0CE0BC2000F042
:101E7000FBFA08E040F2771000F0F6FA03E040F2D7
:101E8000EE2000F0F1FA03B0BDE8F0838898FF1F60
:101E900010B504468068FFF7BFFCA068FFF780FD1F
:101EA000A06844212278FFF737FDA37823B12046AC
:101EB000611C0022FFF7AEFF10BD00BF70B51446D5
:101EC0001278607842EA00200B78222B12D002D8D8
:101ED000102B3DD057E0282B0CD03B2B53D112F0C8
:101EE000010F51D100B203F045FF4FF0765103F0DE
:101EF00095FF70BD23793F2B18D002D81F2B1ED021
:101F000041E05F2B09D07F2B3DD100B203F032FFBF
:101F10004FF0765103F082FF70BD40F34E0003F0A6
:101F200029FF4FF0785103F079FF70BD40F38D0029
:101F300003F020FF4FF07A5103F070FF70BD40F3C3
:101F4000CC0003F017FF4FF07C5103F067FF70BD2A
:101F5000E67940F34E0003F00DFF4FF07A5103F0A5
:101F600053FE0546A079301A03F004FF04463046BC
:101F700003F0FCFE0146204604F004F80146284622
:101F800003F044FE70BD70BD004870BD0000C07F0E
:101F900030B585B005460C4601AAFFF743FE28B1CF
:101FA0002846214601AAFFF789FF00E0014805B055
:101FB00030BD00BF0000FEC2044B00221A6004497D
:101FC0000A60044A106010221A60704714D003405F
:101FD00004D0034000D0034018B1102828BF1020BF
:101FE00000E00120014B1870704700BF6487FF1F9D
:101FF0002DE9F84380460D460846424904F0ACF806
:10200000002814BF4FF002094FF001093E4B47F67C
:102010001226002808BF1E46304603F0A7FE4FF0E8
:102020005E5103F0FBFE0146284604F0A9F890B982
:1020300001244FF05E5726FA04F003F097FE39466C
:1020400003F0ECFE0146284604F09AF820B901346A
:10205000072CF0D100E0002426FA04F003F086FEFD
:10206000294603F08FFF4FF07C5103F0CDFD04F0C3
:102070009BF84FF6FF73984238BF0346A8F103025E
:10208000D2B2012A0DD8214A0021116020480160F6
:1020900020490B6004F0070444EAC9041460BDE859
:1020A000F883A8F10902D2B2012A09D9A8F11402D1
:1020B000D2B2032A04D9A8F10502D2B2012A0DD85E
:1020C000154A002111601548016015490B6004F0A4
:1020D000070444EAC9041460BDE8F883B8F1200F8E
:1020E00002D0B8F1190F0BD10E4A002111600E4831
:1020F00001600E490B6004F0070343EAC903136053
:10210000BDE8F883001BB740006CDC020090034080
:102110000490034008900340008003400480034083
:102120000880034000800B4004800B4008800B4077
:1021300021281ED80F4B53F8303093F8802212F02C
:10214000FF0F08D019B1012283F8802070470122C7
:1021500083F800217047074B03EBC000436821B1AF
:102160001A6842F003021A6070471A6822F00202ED
:102170001A607047206E0000212806D8044B53F8DF
:10218000303093F80002C0B270470020704700BFA3
:10219000206E000021284AD8254B03EBC0035B6862
:1021A000012911D004291DD0214A52F830200020E5
:1021B00082F8800200292FD0022931D003291FD0B4
:1021C00040F203121A607047194A52F83020012178
:1021D00082F880124FF4A2721A601A6822F020026C
:1021E0001A607047124A52F83020012182F880129A
:1021F0004FF4A2721A601A6842F020021A60704707
:102200004FF480721A601A6842F002021A601A686B
:1022100022F001021A6070474FF480721A60704712
:102220004FF480721A601A6842F003021A60704715
:10223000206E000010B5044628280FD15D4B1B7896
:102240000B2B03D8C3F10C03994003E00C2B84BF84
:102250000C3B1941084601F059FB10BD554B1B784A
:10226000012202FA03F0002908DC20460021FFF7D2
:102270005FFF20460121FFF78DFF10BD0A4688420F
:1022800008D820460121FFF753FF20460121FFF720
:1022900081FF10BDE01EC0B2012806D84648006884
:1022A00000FB011222FA03F310E0202C01D0192CBC
:1022B00006D14248006800FB022222FA03F305E03F
:1022C0003F48006800FB011222FA03F3E01E1D28BC
:1022D00064D8DFE800F0474E402B63631D2463633E
:1022E0006363636363636332390F16635C636363C1
:1022F00063636355334A136040F24442324B1A60C1
:1023000010BD324A136040F24442314B1A6010BD96
:10231000304A136040F244422F4B1A6010BD2F4ADE
:10232000136040F244422E4B1A6010BD2D4A1360D8
:1023300040F244422C4B1A6010BD2C4A136040F20C
:1023400044422B4B1A6010BD2A4A136040F24442AB
:10235000294B1A6010BD294A136040F24442284BB1
:102360001A6010BD274A13604FF45172264B1A6051
:1023700010BD264A13604FF45172254B1A6010BDF0
:10238000244A13604FF45172234B1A6010BD234A44
:1023900013604FF45172224B1A6010BD20467F2902
:1023A000D4BF00210121FFF7C3FE20460121FFF722
:1023B000F1FE10BD6487FF1F0890034008800B40AA
:1023C000088003401080034004B00440188003409C
:1023D00008B00440208003400CB004402880034033
:1023E00010B004403080034010C0044038800340E7
:1023F00014C004404080034018C00440488003409B
:102400001CC00440109003403090044018900340DA
:102410003490044010800B4048A0044018800B40CA
:102420004CA0044072B60C4B1B680C4A12680C4955
:10243000096862B611F0806F02D0322B88BF01327A
:10244000C3F53B437F330749A1FB03035B094FF40B
:102450007A7000FB0230704718E000E08898FF1F98
:1024600004ED00E0ABAAAAAA38B50546FFF7DAFFEB
:10247000044625B938BD013D0AD004F57A74FFF74A
:10248000D1FF001BB0F57A7FF5D201F093F9F6E7A2
:1024900038BD00BF10B5264B4FF400021A604FF054
:1024A00080721A604FF000721A604FF080621A60FA
:1024B0004FF000621A6000201E4B18604BF6FF714F
:1024C0000433196028231C4A136008321360083251
:1024D0001360083213600832136008321360083248
:1024E0001360083213600922144C226004F58054F2
:1024F00004342060043421600434236008342360F1
:10250000143C226004F5FE24043420600C48016071
:102510000C490B6008310B600B4B1A6001F06CF931
:102520004FF4C870FFF7A0FF00F074FC10BD00BFAF
:1025300008E100E0048003400C8003400080034079
:1025400008800B400C800B4000800B4030B40E4BD9
:102550001B7843F002020D4C04EBC20460600C488F
:10256000007800280CBF8824C82444EA0141074DA4
:1025700045F8321080F00100054A107083F0010325
:10258000014A137030BC7047F498FF1F0080FF1F92
:102590006D99FF1F10B4431E032B11D872B60A4A5F
:1025A00052F8230050B14268074941F82320074AF6
:1025B00032F813400188611A22F8131062B600E065
:1025C00000205DF8044B7047E498FF1FC49BFF1F79
:1025D000013803280DD872B6074B53F820302BB1C1
:1025E000002001305B68002BFBD100E0002062B6C8
:1025F00070470020704700BF3899FF1F38B572B68A
:1026000001231B491B4C5A1812F8012C12F0080F19
:1026100024D09A0054F832506DB9164B03EBC20126
:1026200008304860144943F83210144B1A78013AC4
:102630001A7062B638BD42F0010254F832506DB9DA
:102640000C4B03EBC201083048600D4943F83210CF
:102650000A4B1A78013A1A7062B638BD0133052B5D
:10266000D1D162B60022054B1A7000F037FC38BD9C
:10267000C06F00000080FF1F880040006299FF1FAC
:10268000C800400010B4431E032B37D8400140F06F
:1026900010001C4A104472B61B4AD25C032A09D8A7
:1026A000DFE802F019021B050830022216E00830AC
:1026B000042213E0154A52F823201AB9134A42F8AB
:1026C000231003E0124A52F823205160104A42F8C6
:1026D000231062B612E0032200E005220A4CE25405
:1026E00001F10803436000F00803002B0CBF8823AE
:1026F000C8230A8843EA0243036062B65DF8044BCC
:10270000704700BF0080FF1FA098FF1F3899FF1F70
:102710004899FF1F2DE9F84FA34CDFF8E092DFF84E
:10272000E0A2DFF8E0B22578EDB215F0040F1DD07D
:102730009E4B1B7813F0FF0F16D09D4B1B7803F0B8
:10274000FF022BB1531EDBB2994A137003B900BECE
:10275000984B1B7803F0FF0233B1531EDBB2954A4E
:1027600013700BB900F016FD0423237015F0080F49
:1027700000F0E48299F80030DBB21D0940F02182BC
:102780008D4D9E0805EBC6035A6855F83630C3F3E5
:102790008303013B0C2B00F21082DFE813F0CB0126
:1027A000CB010E020E020E020E020E020E02E80114
:1027B0000E020E020E020D00804913680B60526873
:1027C0004A607F4A45F8362000227E490A607A49ED
:1027D0000A618A6101217C4A11709BB240F28162D8
:1027E000934218D8B3F5D06F2ED2B3F5817F00F0A5
:1027F0001E8106D8802B00F0C980822B00F0CC808F
:1028000066E140F20232934200F02681B3F5A06FF8
:1028100000F062815CE142F22102934200F0868185
:1028200007D8B3F5086F00F0AB80B3F5106F11D087
:102830004EE142F22122934200F0418142F22132E4
:10284000934200F0498143E1604B5D68002D40F008
:10285000188130E1594B9A78544B1A70564D05F156
:1028600080062B6A13F0800F03D0686A083800F0E6
:1028700035FB0835B542F4D1DFF88C8100263746A8
:10288000534AB05828B1456800F028FB0DB12846DE
:10289000F9E700234E4973504E4AB3504E4BF0585F
:1028A00028B1456800F01AFB0DB12846F9E700236E
:1028B00049497350494AB35028F8023F484BFB5CE2
:1028C000023B032B0AD8DFE803F0020602060022CF
:1028D000434BDA5502E00122414BDA550137043609
:1028E000102ECDD100223F4B1A7001253E4EDFF84D
:1028F0001C81314F05EB080313F8013C06F8043B3B
:1029000013F0080F2DD000F0C9FA48B1A90007EB69
:10291000451200F108035360344A47F8312007E0BC
:10292000AB00002247F833202E4B1A7801321A7080
:1029300000F0B4FA58B1AB0043F0010307EBC30158
:1029400000F108024A601E4A47F8332009E0AB0054
:1029500043F00103002247F83320224B1A7801325A
:102960001A70AA0042F00201002347F8313042F009
:10297000030247F8323001351D4B9E42BAD11EE2A8
:102980000A4B1B781B4D2B700127AAE0194D002321
:102990002B706B700227A4E0084B9B88042B37D95F
:1029A0000F22154B1A70C1E0802007406C99FF1F61
:1029B000F598FF1F6E99FF1F0080FF1F5899FF1F9A
:1029C000C80040008C98FF1F6D99FF1FC46F000066
:1029D000E498FF1F9098FF1F3899FF1F4899FF1F29
:1029E000A098FF1F6299FF1FC42007408800400085
:1029F000D42007406499FF1FC02007409020074063
:102A00009420074098200740C29BFF1FC06F000022
:102A1000A04A0021117051709F4A12F8233013F020
:102A2000020F5CD09B4D01232B70022759E09B4B7A
:102A30009B8803F07F03042B02DC984A52881AB16A
:102A40000F22954B1A7071E0934A12F8231021F06F
:102A5000020102F82310B2E1904B9B8803F07F0340
:102A6000042B02DC8D4A52881AB10F228A4B1A704D
:102A70005CE0894A12F8231041F0020102F82310A9
:102A80009DE1864B5E889F88854BA3F10C02114621
:102A900033F80C0CB04209D133F80A0CB84205D116
:102AA000360A032E0CBF2F7817891AE00D690C33F4
:102AB0000C32002DEBD10F22774B1A7036E0794B98
:102AC0001A68794B1A60754B9A78784B1A7076E1D0
:102AD0000F22714B1A7029E000273D4601E00227C2
:102AE0006C4D6E4BDB889F4228BF1F46402F34BF82
:102AF0003E46402628463146FFF728FD3544BF1B99
:102B000003D13F2E00F2608110E0402F34BF3E46DB
:102B1000402628463146FFF719FD3544BF1B01D139
:102B20003F2E03D9624B1D60624B1F8001238AF840
:102B3000003042E0594B198842F22103994212D1E8
:102B40005D4BD81D12F8011B03F8011F8342F9D118
:102B50005A4B1B68862B02D10F22594B1A7000204A
:102B60000146FFF7F3FC574B45F8363025E0504B54
:102B70001E68BEB14F4FB7F80080B8F1400F34BFA8
:102B80004546402530462946FFF7E0FCC5EB0803E3
:102B90009BB23B800BB9402D01D1354400E00025AC
:102BA000434B1D603D4B1B88B3F5A06F05D13B4BDC
:102BB00000225A709B788BF8003001238AF800308D
:102BC000B9E0414E9F0806EBC708D8F80420A2F1EF
:102BD0000800013DEDB213F0080F47D000F07EF978
:102BE0003A4B53F825304BB35A68384941F8252001
:102BF00003F10802C8F80420354A525D032A12D8AE
:102C0000DFE802F002060A0E0321314A51550AE0BC
:102C100002212F4A515506E005212D4A515502E067
:102C200004212B4A515518F0080F0CBF8822C822E6
:102C30001B8842EA034346F837307CE0244B5B5D57
:102C4000032B0BD8DFE803F0777702060022204B36
:102C50005A5570E001221E4B5A556CE018F0080FCF
:102C60000CBF022203221A4B5A5564E056F8373043
:102C70001B0C22F8083C002B55D0002322F8063C00
:102C800042F8043C134B53F825302BBB114B43F84F
:102C9000250025E06499FF1FC02007405899FF1FB9
:102CA000D06F00008898FF1FD49BFF1F7C99FF1FE7
:102CB0008C98FF1F6099FF1FCB9BFF1FCC9BFF1FB2
:102CC000F598FF1FC80040000080FF1F3899FF1FC4
:102CD000A098FF1FE498FF1F3F4B53F82530586022
:102CE0003D4B43F825003D4B33F8151032F8082CC6
:102CF0000A4423F8152000F0D1F860B100F1080370
:102D0000C8F8043018F0080F354B364A08BF134690
:102D100046F837300FE0002346F83730324B1A7848
:102D200001321A7007E018F0080F2D4B2D4A08BF2A
:102D3000134646F8373008232370F4E415F0010FEA
:102D400022D02A4902230B700022294B1A70294BEA
:102D500024481860284C5C6098602848D8601A6144
:102D60009A610D20264B1870FF23264803700838FF
:102D7000037018300270244A13709F22234B1A707C
:102D800001230B70BDE8F88F15F0800F05D00D22E0
:102D90001B4B1A708022403B1A7015F0020F06D0B0
:102DA000184B1A78D2B21A700222083B1A7015F02A
:102DB000100F0ED01022164B1A70BDE8F88F0020AD
:102DC0000146FFF7C3FBB1E628460021FFF7BEFB33
:102DD000ACE6BDE8F88F00BF9098FF1FC49BFF1FB3
:102DE000C8004000880040006299FF1F94200740FF
:102DF000F498FF1F0080FF1FA498FF1FF898FF1F83
:102E0000C0200740882007408C20074084200740CE
:102E10008020074008B501F0D3FF00231B491A4664
:102E20005A50C81842600833882BF9D1184B1A68D9
:102E300042F480221A60154BC3F30721154A117022
:102E4000C3F30741143211701B0E04321370FF23B9
:102E5000343A137008321370783A137001238432B5
:102E6000137000216C3211707C3A137070220A4B7F
:102E70001A704FF40072A3F241331A60102203F16A
:102E8000C04303F5C8231A7008BD00BF0080FF1FB0
:102E9000348004409C20074049E400E072B60D4BAA
:102EA0001A68B2FA82F30B2B02D962B6002070477F
:102EB0004FF00041D94022EA010206490A6062B699
:102EC000054903EBC303DB00C8180022CA50426067
:102ED000704700BF6887FF1F0084FF1F08B50F4BB6
:102EE000C31A0F4AA2FB03131B090B2B14D80D4A5C
:102EF00012783AB10C4A127812F0FF0F02D0FFF7A5
:102F00007DFB08BD72B6094A4FF0004121FA03F378
:102F100011681943116062B608BD00BF0084FF1F2D
:102F2000398EE3386299FF1F6C99FF1F6887FF1F76
:102F300010B5134B1B6853B9124B1B7813F0FF0FDE
:102F400018D00320FFF726FB0D4B1860A8B10C4BDF
:102F5000186843885A1C03441C7A03889A4206D393
:102F6000FFF7BCFF0022064B1A60204610BD4280CE
:102F7000204610BD4FF0FF3010BD4FF0FF3010BDA8
:102F80007899FF1F6C99FF1F08B50D4B1B6883B91B
:102F90000C4B1B7813F0FF0F08D00320FFF7FAFA51
:102FA000074B186028B94FF0FF3008BD4FF0FF30D5
:102FB00008BD034B1B685A881344187A08BD00BF2C
:102FC0007899FF1F6C99FF1F044B9888044B1B686E
:102FD0001BB11A885B88D31A18447047C49BFF1F23
:102FE0007899FF1F10B50B4B1B7813F0FF0F0FD014
:102FF000094B186820B1FFF771FF0022064B1A60D9
:1030000003242046FFF7C6FA10B1FFF767FFF8E781
:1030100010BD00BF6C99FF1F7899FF1F2DE9F04785
:1030200004460122374B1A700E46002964D0DFF89F
:10303000E080DFF8E0909A46334FD8F8003083BB49
:1030400099F8003013F0FF0F06D100222D4B1A70B3
:103050004FF0FF30BDE8F08747F209550420FFF735
:10306000B7FA07280AD801238AF80030FFF716FFBD
:10307000C8F80000A8B900238AF80030013D01D04B
:103080003B7833B10122204B1A704FF0FF30BDE87E
:10309000F08700F08FFB99F8003013F0FF0FDDD1BF
:1030A000D3E700233B70D8F800104A88C2F14005EE
:1030B000AE4238BF354602F108030B442A444A8029
:1030C000761B3DB1254414F8012B03F8012BAC42CB
:1030D000F9D100E025464B883F2B07D940230B80D0
:1030E0000420FFF7CFFA0023C8F800300522074B71
:1030F0001A700EB12C46A0E70020024B1870BDE8F4
:10310000F08700BF6F99FF1F7499FF1F6E99FF1F13
:103110007099FF1F6C99FF1F00B583B002AB03F8D5
:10312000010D18460121FFF779FF03B05DF804FB9C
:1031300010B5144B1B7813F0FF0F21D00122124B56
:103140001A70124B196851B10024114B1C704B8836
:103150000B800420FFF796FA0C4B1C600DE0FFF784
:103160009DFE014630B10022094B1A700420FFF782
:1031700089FA02E00122064B1A700022024B1A70F3
:1031800010BD00BF6C99FF1F6F99FF1F7099FF1F43
:103190006E99FF1F08B50E4B1B7813F0FF0F16D169
:1031A0000C4B196841B14B880B800420FFF76AFA79
:1031B0000022084B1A6008BDFFF770FE014618B1E7
:1031C0000420FFF75FFA08BD0122034B1A7008BD07
:1031D0006F99FF1F7099FF1F6E99FF1F08B5036855
:1031E0001B68C9B2984708BD08B503681B68C9B217
:1031F000984708BD08B503681B68C9B2984708BD61
:1032000008B503681B68C9B2984708BD08B54B08E4
:1032100003F1B76000F55840B0FBF1F000F00EFC90
:1032200008BD00BF10B514464B0803F1B76000F5A8
:103230005840B0FBF1F000F001FC204600F066FCC5
:1032400010BD00BF08B500F091FC08BD08B50846E8
:1032500000F0C6FC08BD00BF08B5084600F01AFD26
:1032600008BD00BF08B50846114600F0D5FC08BDF2
:1032700008B5084600F03AFD003018BF012008BD2F
:1032800008B5084600F054FD003018BF012008BD05
:1032900008B500F04DFE08BD08B500F093FE08BD6E
:1032A00008B500F055FE08BD08B500F01FFE08BDCA
:1032B00008B500F0A1FE08BD08B500F027FE08BD66
:1032C00008B5084600F060FD012008BD08B50846B5
:1032D00000F05AFD012008BD10B5144608461146FD
:1032E00000F0A2FD204610BD38B50D46084603F09B
:1032F000B7FA04462846214600F096FD204638BD20
:10330000704700BF044B00221A714FF47A71996024
:103310001A73024A1A6070478099FF1F386F0000C5
:1033200000B583B0054B1B88ADF8043003685B68BB
:1033300001A90222984703B05DF804FB906F0000DA
:10334000F0B58BB0164622B903681B68C9B298471E
:103350002FE0012A08BF0A2621B930228DF8252046
:10336000212417E021243746B1FBF6F506FB15159D
:10337000EDB22246092D94BF30353735EDB20DF14F
:10338000280E724402F8245CB1FBF7F111B1013C44
:10339000E4B2E9E733B1013CE4B20AAB23442D22A5
:1033A00003F8242C03685B6801A92144C4F12202BC
:1033B00098470BB0F0BD00BF2DE9F04F87B08146B4
:1033C00016461F469DF840801046194600220023ED
:1033D00002F0A6FB28B107F100431F464FF0010A97
:1033E00001E04FF0000AB8F1000F6ED04FF0000B73
:1033F0000022414B3EA5D5E900451046194622461C
:103400002B4602F01BF902460B460BF1010B5FFA4B
:103410008BF18845F1D82AE03E462046294652469F
:103420005B4602F00BF904460D4602F0C9FBC0B240
:10343000771CFFB206AB1E4400F1300306F8103CC7
:1034400002F096F802460B462046294601F042FF5C
:1034500004460D464745DFD101E04FF00108D9F899
:1034600000305B68484602A9424698473CE0304637
:10347000394601F031FF04460D4602F0A1FB064635
:1034800002F066F802460B462046294601F022FF6C
:1034900004460D46484631460A225346FFF750FF80
:1034A00001902E238DF80830B8F10F0F34BF43463A
:1034B0000F23002BD1D003F101085FFA88F8012611
:1034C0004FF0000ADFF834B0A7E730463946002253
:1034D000094B01F001FF02F073FB014648460A2246
:1034E0005346FFF72DFF0190019807B0BDE8F08F1C
:1034F000000000A09999B93F0000E03F000024407F
:1035000010B5044601F0D8FE204610BD10B5234B7F
:103510001B6883B1224A1268012182F88010013BA6
:1035200013F1050F02D01D4A136010BD6FF00202A7
:103530001A4B1A6010BD1A4B1B6801221A70194BE6
:103540001B681BB3184B1C682046002102F00EFEBE
:10355000A8B92046154902F01DFE80B9204614493D
:1035600002F05CFC4FF07C5102F04EFB02F01CFEBE
:103570000246272803D90F480F4901F085FE094B61
:103580001A6806490A6000221A6010BD094801F055
:1035900093FEFF22094B1A7010BD00BFAC99FF1FAC
:1035A000A499FF1FA899FF1FB099FF1FABAAAA4CAF
:1035B000000040429099FF1F0D3500006C87FF1FEF
:1035C00070B5044621286AD842B102FB01F6344B9B
:1035D000A3FB0626B6097600013601E06FF002066D
:1035E000084602F0C3FB01462E4802F0CBFC05461C
:1035F0002D4B03EBC403596872B62C4B1B789C42CD
:1036000016D12B4B196802F09DFD38B1294B1A6871
:1036100002F00102013A16441E603FE0244B1D6097
:10362000254B1E60234B1A6802F001021A6035E038
:10363000212B03D8214B1B6801221A701B4B1C70D5
:10364000194B53F8343003F580701C4A1060012286
:1036500083F8002183F880224FF4A2730B60154B8E
:103660001E60134B1D602846002102F07FFDA8B9A3
:103670002846134902F08EFD80B92846114902F010
:10368000CDFB4FF07C5102F0BFFA02F08DFD0246F7
:10369000272803D90C480D4901F0F6FD62B670BD2C
:1036A000D34D62100024F448206E00006C87FF1F89
:1036B000B099FF1FAC99FF1FA899FF1FA499FF1F86
:1036C000ABAAAA4C000040429099FF1F0D350000A4
:1036D00008B521280FD872B6074B1B78834209D151
:1036E000064801F0E9FD064B1B6801221A70FF2213
:1036F000014B1A7062B608BD6C87FF1F9099FF1FBF
:10370000A499FF1F08B50548002303708023437365
:103710000349044A02F068FD08BD00BF9099FF1FED
:10372000013500006087FF1F10B4401A019CE41AA5
:1037300004FB00F4521A94FBF2F018445DF8044BB9
:10374000704700BF08B5FCF7F7FEFDF7B9F900F0C8
:1037500031F8FAE708B5FFF737FC08BD08B5FFF701
:10376000E7FB08BD08B5FFF70FFC08BD08B5FFF77C
:10377000DFFC08BD08B5FFF735FC08BD08B50846F5
:10378000FFF7CAFC08BD00BF08B508461146FFF7A1
:1037900045FC08BD704700BF044B00221A714FF46E
:1037A0007A7199601A73024A1A607047B499FF1FC0
:1037B000A06F000008B50F4B1B78CBB901220D4B51
:1037C0001A70FFF701FC08B1FFF7E4FF00F0B0FB4F
:1037D00008B1FFF795FD00F037FF08B101F0C6FB17
:1037E00001F004FA08B101F063FC0022014B1A70E9
:1037F00008BD00BFC499FF1F60223A4B1A70E12236
:1038000001331A70384B1B78082B10D1012203F1B9
:10381000804303F56C331A60132334490B6001F5C0
:10382000FF2101F2FC710A60314A13601FE00A2B8C
:103830000DD139222F4B1A6013232C490B6001F54F
:10384000FF2101F2FC710A60294A13600FE00C2B82
:103850000CBF35223D22274B1A60122323490B60EF
:1038600001F5FF2101F2FC710A60214A1360224B2D
:103870001B7833B10123214A136002F50022136043
:1038800005E000231D4A136002F5002213601C4B63
:103890001B78012B06D880231A4A136002F50022F8
:1038A00013601AE0042B06D88423164A136002F52D
:1038B0000022136011E0082B06D88523114A1360FB
:1038C00002F50022136008E0102B94BF86238723A3
:1038D0000C4A136002F50022136001220A4B1A7091
:1038E000704700BF004007406D87FF1F0CB00340CA
:1038F0000CB00B4008B00340C699FF1F20B0034036
:103900006E87FF1F24B00340C599FF1F094B1A683B
:1039100042F480521A60084B1B781BB18022074B7F
:103920001A7002E0C022054B1A7080F30C00044BA1
:10393000188070472C800440C699FF1F21C00C409E
:1039400000C00C40024B1A6801321A60704700BF79
:103950008898FF1F08B50D4C236813F4802F01D001
:10396000FEF7D8FE236813F4806F01D000F06AFBE5
:10397000236813F4006F01D000F0F0FE236813F405
:10398000805FE9D001F0A8F9E6E700BF3480044089
:1039900008B5FFF7DFFF00BF1022014B1A80704708
:1039A00000200540704700BF024A136818441060A9
:1039B000184670477087FF1FEFF31383ABB9EFF31F
:1039C0001083ABB9EFF3058323B10F2B05D9094A57
:1039D000985C03E04FF4807000E00020EFF3118367
:1039E0003BB1834238BF184670474FF0FF307047F5
:1039F00000207047F0E300E030B40023B0FBF2F4A5
:103A000002FB14041D46092C94BF30343734E4B251
:103A1000CC54B0FBF2F008B10133EFE70D440022C3
:103A20006A70934207DD885CCC5C8C54C8540132C8
:103A3000013B9A42F7DB084630BC7047254B1A68B9
:103A400042F480621A600023234A1370234A1370E1
:103A5000234A1370234A1370234A1370234B1B7895
:103A600013B1152B05D008E040F21332204B1A6039
:103A700003E040F213321F4B1A601F4B1B78012BDF
:103A800002D0052B05D008E04FF451721B4B1A6091
:103A900003E04FF451721A4B1A60C0F34432194BD1
:103AA0001A70C0F347125A7000F01F009872042277
:103AB0009A700221D9745A7588221A743C22DA70DD
:103AC0004022114B1A704FF40052A3F229331A60AE
:103AD000704700BF34800440549AFF1FCD99FF1FE8
:103AE0005C9AFF1F559AFF1FCC99FF1F109AFF1F6A
:103AF00040A0044018C004407487FF1F44A0044045
:103B00001CC0044000A006402DE400E0164B9B784A
:103B100003F0EC0300F00302134310F0040F18BF8E
:103B200043F01003104A937000F00F03042B04D1EC
:103B30001346927942F040029A710B4B5A7902F087
:103B4000EF0210F0100F18BF42F01002064B5A712E
:103B50009B7903F0EF0310F0200F18BF43F0100320
:103B6000014A9371704700BF00A0064010B5144B86
:103B70001B6813F4806F21D0124B1B7813F0FF0FDA
:103B800006D0104CFFF716FE237813F0FF0FF9D183
:103B90004FF400520C4B1A6000230C4AD37040F2D1
:103BA00003120B490A6004310A600A4A13700A4A78
:103BB00013700A4B1B680BB101221A7010BD00BFB5
:103BC00034800440CC99FF1F84E100E000A006404F
:103BD00040A00440549AFF1FCD99FF1FC899FF1FB2
:103BE00010B50446094A137813F0FF0FFBD12046A5
:103BF0000121FEF7CFFA20460021FEF799FA044B87
:103C000053F83420034B1A6010BD00BFCC99FF1F3E
:103C1000206E0000589AFF1F10B40C4609B140F006
:103C20008000184B1B78984228D0174A126812F46B
:103C3000806F21D003F07F03012B02D0052B04D02D
:103C400006E00022114B1A6002E00022104B1A60BD
:103C5000002C0CBF4422602200F07F03012B02D015
:103C6000052B05D008E042F44072084B1A6003E0CF
:103C700042F44072064B1A60024B18705DF8044B18
:103C8000704700BF7487FF1F3480044044A0044085
:103C90001CC00440114B1B7898421ED0104A126879
:103CA00012F4806F17D013B1152B04D006E0002258
:103CB0000C4B1A6002E000220B4B1A6010B1152861
:103CC00005D008E040F21332064B1A6003E040F2E0
:103CD0001332054B1A60014B18707047109AFF1F82
:103CE0003480044040A0044018C0044010B50D4B7F
:103CF0001B6813F4806F12D021280CD80A4C0B4B90
:103D000053F8303023600121FEF744FA2368002283
:103D10001A70012010BD0020034B186010BD002058
:103D200010BD00BF34800440C899FF1F206E000002
:103D3000114B1B6813F4806F1BD0122804D140F282
:103D400002320E4B1A600DE0142804D140F2023208
:103D50000B4B1A6006E00B4B5A7B02F0FE025A73C3
:103D600000207047074B5A7B42F001025A73012032
:103D700070470020704700BF348004400CA004400E
:103D800014C0044000A006402DE9F04107461F4B37
:103D90001B6813F4806F37D01D4B1B680BB10122D9
:103DA0001A701C4B1C780134402C28BF00241A4D7B
:103DB0001A4EDFF86C8017E0FFF7FEFD40280FDC9D
:103DC000337913F0800F0FD02B780133402B28BFAD
:103DD000002318F80320D2B2F271DBB22B7003E09B
:103DE000FF2801DDFFF7E6FC2B78DBB29C42E3D035
:103DF000FFB20B4B1F5501220A4B1A70E4B2054B60
:103E00001C70BC22054BDA70BDE8F08134800440A0
:103E1000589AFF1F5C9AFF1F559AFF1F00A006408B
:103E2000D099FF1FCC99FF1F2DE9F84F0746284B6B
:103E30001B6813F4806F49D0264B1B680BB101221D
:103E40001A7007EB010B5F453DD2DFF89890224EC8
:103E5000DFF88C80DFF890A099F800400134402C06
:103E600028BF00243578EDB2A54220D1BC2388F8C4
:103E70000330FFF7A1FD402811DC98F8043013F05F
:103E8000800F10D033780133402B28BF00231AF85D
:103E90000320D2B288F80720DBB2337003E0FF289A
:103EA00001DDFFF787FC3378DBB29D42E1D017F8E4
:103EB000013B0AF804300122084B1A70E4B289F879
:103EC00000405F45C8D1BC22054BDA70BDE8F88FD1
:103ED00034800440589AFF1F559AFF1FCC99FF1F4A
:103EE00000A006405C9AFF1FD099FF1F10B5064B3B
:103EF0001B7813F0FF0F06D0034CFFF75BFC237811
:103F000013F0FF0FF9D110BDCC99FF1F064B1B78A2
:103F1000DBB2064A1278D2B293422CBF3F3202F192
:103F2000FF32D01A704700BF5C9AFF1F559AFF1FDF
:103F3000054B1878C0B2054B1B78DBB2984238BFEE
:103F40004030C01A704700BF549AFF1FCD99FF1F21
:103F500010B4184B1A78D2B2174B1B78DBB29A42C6
:103F600018D001333F2B18D81449C85CC0B2DCB25A
:103F700011490C7012490968C9B19A4203D300E093
:103F80000023D31A01E04032D31A1A2B0FDC00238E
:103F90000B700CE04FF0FF3009E0084B1878C0B20E
:103FA0000021054B1970064B19680029E8D15DF80E
:103FB000044B7047549AFF1FCD99FF1F149AFF1F9F
:103FC000C899FF1F094B1A78D2B2094B1B78DBB294
:103FD0009A4207D00133402B28BF0023054AD05C0A
:103FE000C0B270474FF0FF30704700BF549AFF1FB8
:103FF000CD99FF1F149AFF1F0D4B1B6813F4806FA0
:1040000014D00C4BDA7802F0CB02DA7040225A74EA
:10401000DA7842F03402DA70074B1A78D2B2074BE2
:104020001A70074B1B680BB100221A70704700BF53
:104030003480044000A00640CD99FF1F549AFF1F12
:10404000C899FF1F70B43D4B1B7913F0300F33D06C
:1040500072B63A4B9B7D03F0FF022BB9374BDA79EE
:1040600040225A7462B627E062B6354B1978C9B25D
:10407000344B1C78E4B2314D334EEB79D8B24B1C43
:10408000402B28BF0023A3421CBFF0541946531EE7
:1040900013F0FF02F1D1CAB2294B1A702B4B1B68E7
:1040A00053B1A1422EBFC4EB0101C4F14004091970
:1040B0002729C4BF01221A70204BDA78D2B212F03D
:1040C000800F27D01B7913F0800F23D0204B1C7852
:1040D000E4B2204B1B78DBB29C4210D017491E4D36
:1040E00001E0A3420BD00133402B28BF0023087905
:1040F000E85CC0B2C871087DC0B20728F1D9DBB254
:1041000014490B700D4B1B7913F0800F02D07C21EA
:104110000A4BD97012F0400F0ED0084B1B7913F0E8
:10412000400F09D000220D4B1A700D4B1B6803B1D4
:104130001A703C22014BDA7070BC704700A0064038
:10414000549AFF1FCD99FF1F149AFF1FC899FF1F94
:104150005C9AFF1F559AFF1FD099FF1FCC99FF1F34
:10416000589AFF1F254B1A6842F400621A60002318
:10417000234A1370234A1370234A1370234A13707F
:10418000234A1370234B1B78092B02D01A2B05D01E
:1041900008E040F21332204B1A6003E040F2133281
:1041A0001E4B1A601E4B1B780A2B02D01F2B05D00A
:1041B00008E04FF451721B4B1A6003E04FF4517248
:1041C000194B1A60C0F34432184B1A70C0F34712EF
:1041D0005A7000F01F00987204229A700221D9745C
:1041E0005A7588221A743C22DA704022104B1A70D9
:1041F0004FF40042A3F22B331A607047348004401E
:10420000D09AFF1F659AFF1FD89AFF1FD19AFF1FF0
:10421000649AFF1F7587FF1F0CB0044004D0044050
:104220007687FF1F10B0044000D0044000B0064065
:104230002FE400E0164B9B7803F0EC0300F0030240
:10424000134310F0040F18BF43F01003104A93708B
:1042500000F00F03042B04D11346927942F0400280
:104260009A710B4B5A7902F0EF0210F0100F18BF41
:1042700042F01002064B5A719B7903F0EF0310F0E5
:10428000200F18BF43F01003014A9371704700BF1D
:1042900000B0064010B5144B1B6813F4006F21D01A
:1042A000124B1B7813F0FF0F06D0104CFFF782FA69
:1042B000237813F0FF0FF9D14FF400420C4B1A6032
:1042C00000230C4AD37040F203120B490A600431F8
:1042D0000A600A4A13700A4A13700A4B1B680BB132
:1042E00001221A7010BD00BF34800440649AFF1F81
:1042F00084E100E000B006400CB00440D09AFF1FFB
:10430000659AFF1F609AFF1F10B50446094A13788B
:1043100013F0FF0FFBD120460121FDF73BFF2046A4
:104320000021FDF705FF044B53F83420034B1A60BE
:1043300010BD00BF649AFF1F206E0000D49AFF1FBB
:1043400010B40C4609B140F08000184B1B7898421D
:1043500028D0174A126812F4805F21D003F07F033F
:104360000A2B02D01F2B04D006E00022114B1A604A
:1043700002E00022104B1A60002C0CBF4422602285
:1043800000F07F030A2B02D01F2B05D008E042F477
:104390004072084B1A6003E042F44072064B1A6008
:1043A000024B18705DF8044B704700BF7687FF1F03
:1043B0003480044010B0044000D00440124B1B78FD
:1043C000984220D0114A126812F4805F19D0092B4C
:1043D00002D01A2B04D006E000220D4B1A6002E036
:1043E00000220C4B1A60092802D01A2805D008E0D8
:1043F00040F21332064B1A6003E040F21332054BD1
:104400001A60014B187070477587FF1F3480044095
:104410000CB0044004D0044010B50D4B1B6813F4DD
:10442000006F12D021280CD80A4C0B4B53F83030B7
:1044300023600121FDF7AEFE236800221A700120DF
:1044400010BD0020034B186010BD002010BD00BF40
:1044500034800440609AFF1F206E00000D4B1B68E3
:1044600013F4006F13D017280AD140F202320A4B1E
:104470001A600A4B5A7B42F001025A7301207047BE
:10448000064B5A7B02F0FE025A7300207047002050
:10449000704700BF3480044008B0044000B00640BC
:1044A0002DE9F04107461F4B1B6813F4006F37D00E
:1044B0001D4B1B680BB101221A701C4B1C78013478
:1044C000282C28BF00241A4D1A4EDFF86C8017E004
:1044D000FFF772FA40280FDC337913F0800F0FD00A
:1044E0002B780133282B28BF002318F80320D2B2E1
:1044F000F271DBB22B7003E0FF2801DDFFF75AF900
:104500002B78DBB29C42E3D0FFB20B4B1F5501224C
:104510000A4B1A70E4B2054B1C70BC22054BDA70D2
:10452000BDE8F08134800440D49AFF1FD89AFF1F61
:10453000D19AFF1F00B00640689AFF1F649AFF1FC0
:104540002DE9F84F0746284B1B6813F4006F49D03C
:10455000264B1B680BB101221A7007EB010B5F455C
:104560003DD2DFF89890224EDFF88C80DFF890A0E3
:1045700099F800400134282C28BF00243578EDB28A
:10458000A54220D1BC2388F80330FFF715FA402854
:1045900011DC98F8043013F0800F10D03378013319
:1045A000282B28BF00231AF80320D2B288F807204E
:1045B000DBB2337003E0FF2801DDFFF7FBF833784F
:1045C000DBB29D42E1D017F8013B0AF8043001222A
:1045D000084B1A70E4B289F800405F45C8D1BC228C
:1045E000054BDA70BDE8F88F34800440D49AFF1F81
:1045F000D19AFF1F649AFF1F00B00640D89AFF1F90
:10460000689AFF1F10B5064B1B7813F0FF0F06D0FA
:10461000034CFFF7CFF8237813F0FF0FF9D110BD4B
:10462000649AFF1F064B1B78DBB2064A1278D2B29F
:1046300093422CBF273202F1FF32D01A704700BFDD
:10464000D89AFF1FD19AFF1F054B1878C0B2054BAF
:104650001B78DBB2984238BF4030C01A704700BFA9
:10466000D09AFF1F659AFF1F10B4184B1A78D2B268
:10467000174B1B78DBB29A4218D001333F2B18D866
:104680001449C85CC0B2DCB211490C701249096807
:10469000C9B19A4203D300E00023D31A01E04032AB
:1046A000D31A1A2B0FDC00230B700CE04FF0FF30F5
:1046B00009E0084B1878C0B20021054B1970064B71
:1046C00019680029E8D15DF8044B7047D09AFF1FA4
:1046D000659AFF1F909AFF1F609AFF1F094B1A7877
:1046E000D2B2094B1B78DBB29A4207D00133402B80
:1046F00028BF0023054AD05CC0B270474FF0FF309E
:10470000704700BFD09AFF1F659AFF1F909AFF1F46
:104710000D4B1B6813F4006F14D00C4BDA7802F0C9
:10472000CB02DA7040225A74DA7842F03402DA703E
:10473000074B1A78D2B2074B1A70074B1B680BB1A4
:1047400000221A70704700BF3480044000B0064059
:10475000659AFF1FD09AFF1F609AFF1F70B43D4BF0
:104760001B7913F0300F33D072B63A4B9B7D03F0B8
:10477000FF022BB9374BDA7940225A7462B627E030
:1047800062B6354B1978C9B2344B1C78E4B2314D5E
:10479000334EEB79D8B24B1C402B28BF0023A342E9
:1047A0001CBFF0541946531E13F0FF02F1D1CAB2D8
:1047B000294B1A702B4B1B6853B1A1422EBFC4EB7F
:1047C0000101C4F1400409192729C4BF01221A704C
:1047D000204BDA78D2B212F0800F27D01B7913F079
:1047E000800F23D0204B1C78E4B2204B1B78DBB227
:1047F0009C4210D017491E4D01E0A3420BD001335B
:10480000282B28BF00230879E85CC0B2C871087D56
:10481000C0B20728F1D9DBB214490B700D4B1B79DC
:1048200013F0800F02D07C210A4BD97012F0400F98
:104830000ED0084B1B7913F0400F09D000220D4B0E
:104840001A700D4B1B6803B11A703C22014BDA70D1
:1048500070BC704700B00640D09AFF1F659AFF1FDA
:10486000909AFF1F609AFF1FD89AFF1FD19AFF1FCF
:10487000689AFF1F649AFF1FD49AFF1F174B1A688C
:1048800042F480521A600023154A1370154A1370BF
:10489000154A1370154A1370154A137040F21331FC
:1048A000144A11604FF4517104321160C0F3443165
:1048B000114A1170C0F34711517000F01F0090723F
:1048C000937013742C23D37040220C4B1A704FF446
:1048D0000032A3F22D331A60704700BF34800440C9
:1048E0004C9BFF1FE19AFF1F549BFF1F4D9BFF1F17
:1048F000E09AFF1F08C0044000C0064031E400E019
:10490000164B9B7803F0EC0300F00302134310F006
:10491000040F18BF43F01003104A937000F00F0308
:10492000042B04D11346927942F040029A710B4B4A
:104930005A7902F0EF0210F0100F18BF42F0100287
:10494000064B5A719B7903F0EF0310F0200F18BF4C
:1049500043F01003014A9371704700BF00C0064046
:1049600010B5144B1B6813F4805F21D0124B1B78D9
:1049700013F0FF0F06D0104CFEF71CFF237813F046
:10498000FF0FF9D14FF400320C4B1A6000230C4A90
:10499000D37040F203120B490A6004310A600A4ADC
:1049A00013700A4A13700A4B1B680BB101221A706C
:1049B00010BD00BF34800440E09AFF1F84E100E096
:1049C00000C0064008C004404C9BFF1FE19AFF1F37
:1049D000DC9AFF1F10B50446094A137813F0FF0F45
:1049E000FBD120460121FDF7D5FB20460021FDF734
:1049F0009FFB044B53F83420034B1A6010BD00BFDB
:104A0000E09AFF1F206E0000509BFF1F10B40C4661
:104A100009B140F08000104B1B78984219D00F4A22
:104A2000126812F4805F12D003F07F03082B02D1CA
:104A300000220B4B1A60002C0CBF4422602200F0B5
:104A40007F03082B03D142F44072054B1A60024BDE
:104A500018705DF8044B70477787FF1F348004405F
:104A60000CC00440704700BF10B50D4B1B6813F419
:104A7000805F12D021280CD80A4C0B4B53F83030F1
:104A800023600121FDF786FB236800221A700120B4
:104A900010BD0020034B186010BD002010BD00BFEA
:104AA00034800440DC9AFF1F206E00000D4B1B6811
:104AB00013F4805F13D00E280AD140F202320A4B61
:104AC0001A600A4B5A7B42F001025A730120704768
:104AD000064B5A7B02F0FE025A73002070470020FA
:104AE000704700BF3480044004C0044000C006404A
:104AF0002DE9F04107461F4B1B6813F4805F37D048
:104B00001D4B1B680BB101221A701C4B1C78013421
:104B1000282C28BF00241A4D1A4EDFF86C8017E0AD
:104B2000FEF74AFF40280FDC337913F0800F0FD0D7
:104B30002B780133282B28BF002318F80320D2B28A
:104B4000F271DBB22B7003E0FF2801DDFEF732FECD
:104B50002B78DBB29C42E3D0FFB20B4B1F550122F6
:104B60000A4B1A70E4B2054B1C70AC22054BDA708C
:104B7000BDE8F08134800440509BFF1F549BFF1F11
:104B80004D9BFF1F00C00640E49AFF1FE09AFF1FE5
:104B900038B505460C4629B115F8010BFFF7A8FFFB
:104BA000013CF9D138BD00BF10B5064B1B7813F09E
:104BB000FF0F06D0034CFEF7FDFD237813F0FF0F27
:104BC000F9D110BDE09AFF1F064B1B78DBB2064AF5
:104BD0001278D2B293422CBF273202F1FF32D01AA0
:104BE000704700BF549BFF1F4D9BFF1F054B18785C
:104BF000C0B2054B1B78DBB2984238BF4030C01AB8
:104C0000704700BF4C9BFF1FE19AFF1F10B4184B69
:104C10001A78D2B2174B1B78DBB29A4218D0013304
:104C20003F2B18D81449C85CC0B2DCB211490C70D3
:104C300012490968C9B19A4203D300E00023D31A8C
:104C400001E04032D31A1A2B0FDC00230B700CE06A
:104C50004FF0FF3009E0084B1878C0B20021054B37
:104C60001970064B19680029E8D15DF8044B7047AC
:104C70004C9BFF1FE19AFF1F0C9BFF1FDC9AFF1F3D
:104C8000094B1A78D2B2094B1B78DBB29A4207D093
:104C90000133402B28BF0023054AD05CC0B27047C7
:104CA0004FF0FF30704700BF4C9BFF1FE19AFF1F82
:104CB0000C9BFF1F054B1A78D2B2054B1A70054B9F
:104CC0001B680BB100221A70704700BFE19AFF1FEA
:104CD0004C9BFF1FDC9AFF1F2F4B1B7913F0200FFB
:104CE00023D02D4BDB79D9B22C4B1B780133402BD1
:104CF00028BF00232A4A1278D2B29A4204D0294A05
:104D0000D154D9B2254A1170274A116869B1274A8E
:104D10001278D2B293422EBFC2EB0303C2F140021B
:104D20009B18272BC4BF01230B701B4BDB78DBB216
:104D300013F0800F1CD0184A127912F0800F17D090
:104D40001B4A1178C9B2194A1278D2B2914203D1E2
:104D50006C21114AD1700BE00132282A28BF0022B1
:104D60001449885CC0B20C49C871D2B20F490A70AC
:104D700013F0400F0ED0084B1B7913F0400F09D0F1
:104D800000220D4B1A700D4B1B6803B11A702C22B8
:104D9000014BDA70704700BF00C006404C9BFF1FFC
:104DA000E19AFF1F0C9BFF1FDC9AFF1F4D9BFF1F0B
:104DB000549BFF1FE49AFF1FE09AFF1F509BFF1FA9
:104DC00000B585B072B61B4B70221A7041211A4A89
:104DD00011700F21013A117080221A701A4613784F
:104DE00013F0800FFBD0154B186862B6144B984235
:104DF0009CBF00EB8000400001A90A22FEF7FCFDE9
:104E00009DF804307BB908E001A9595C31B191806B
:104E1000023201330A2BF7D100E0002301335B009B
:104E2000084A137003E0074A53800123ECE705B0FA
:104E30005DF804FB00000240070002400800024049
:104E40007F9698000488FF1F08B503681B68C9B2E5
:104E5000984708BD08B503681B68C9B2984708BDE4
:104E600008B503681B68C9B2984708BD08B5036850
:104E70001B68C9B2984708BD08B54B0803F1B76075
:104E800000F55840B0FBF1F0FFF76CF908BD00BF2A
:104E900010B514464B0803F1B76000F55840B0FB5D
:104EA000F1F0FFF75FF92046FFF7C4F910BD00BF2E
:104EB00008B5FFF7EFF908BD08B50846FFF724FA73
:104EC00008BD00BF08B50846FFF778FA08BD00BF67
:104ED00008B508461146FFF733FA08BD08B508467D
:104EE000FFF79AFA003018BF012008BD08B5084640
:104EF000FFF7B4FA003018BF012008BD08B5FFF76E
:104F0000A3FB08BD08B5FFF7E9FB08BD08B5FFF72F
:104F1000ABFB08BD08B5FFF775FB08BD08B5FFF78B
:104F2000F7FB08BD08B5FFF77DFB08BD08B50846CF
:104F3000FFF7B6FA012008BD08B50846FFF7B0FA3A
:104F4000012008BD10B5144608461146FFF7F8FACF
:104F5000204610BD38B50D46084601F081FC0446D8
:104F600028462146FFF7ECFA204638BD704700BFBF
:104F7000044B00221A714FF47A7199601A73024A35
:104F80001A607047589BFF1F2070000008B5036827
:104F90001B68C9B2984708BD08B503681B68C9B249
:104FA000984708BD08B503681B68C9B2984708BD93
:104FB00008B503681B68C9B2984708BD08B54B0817
:104FC00003F1B76000F55840B0FBF1F0FFF756FC75
:104FD00008BD00BF10B514464B0803F1B76000F5DB
:104FE0005840B0FBF1F0FFF749FC2046FFF788FC82
:104FF00010BD00BF08B5FFF7B3FC08BD08B50846F3
:10500000FFF7E8FC08BD00BF08B50846FFF72AFD1A
:1050100008BD00BF08B508461146FFF7F7FC08BDFC
:1050200008B50846FFF720FD003018BF012008BD75
:1050300008B50846FFF73AFD003018BF012008BD4B
:1050400008B5FFF7D3FD08BD08B5FFF719FE08BD89
:1050500008B5FFF7DBFD08BD08B5FFF7A5FD08BDE6
:1050600008B5FFF727FE08BD08B5FFF7ADFD08BD81
:1050700008B50846FFF73CFD012008BD08B5084605
:10508000FFF736FD012008BD10B51446084611464D
:10509000FFF77EFD204610BD38B50D46084601F0ED
:1050A000DFFB044628462146FFF772FD204638BD47
:1050B000704700BF044B00221A714FF47A71996057
:1050C0001A73024A1A607047689BFF1F80700000C5
:1050D00008B50122024B1A60024B1B68984708BDB5
:1050E0000C710340809BFF1F08B50122024B1A6020
:1050F000024B5B68984708BD1C710340809BFF1FF3
:1051000008B50122024B1A60024B9B68984708BD04
:105110002C710340809BFF1F08B50122024B1A60CF
:10512000024BDB68984708BD3C710340809BFF1F22
:10513000054B1A6842F400021A600022034B1A6001
:105140000122034B1A7070473C80044000700340FA
:105150007C9BFF1F0122064B1A6003F588333C330A
:105160001A6822F400021A600022024B1A7070477B
:10517000007003407C9BFF1F10B442781401164B53
:1051800023444360154B234483600369144C44F863
:105190002230836800221A60436819608368032202
:1051A0001A6043784433DBB2037303F1604303F5C1
:1051B0006443427B1A70027B53119B0003F16043EE
:1051C00003F5614302F01F02012101FA02F21A60A5
:1051D0005DF8044B704700BF007103400871034045
:1051E000809BFF1F70B504460D46134B1B780BB90F
:1051F000FFF79EFF114B1B788BB1104B5B7843B1CF
:105200000E4B9B7843B10D4BDB789BB903231E46B5
:1052100007E001231E4604E002231E4601E00026AB
:105220003346637020462946FFF7A6FF0120034B53
:10523000985570BD002070BD7C9BFF1F789BFF1FA1
:1052400010B5836800221A60037B5C1103F01F0312
:10525000012101FA03F30A4941F82430094B41784E
:105260005A541B7853B9074B5B783BB9054B9B7875
:1052700023B9044BDB780BB9FFF76CFF10BD00BFFF
:1052800080E100E0789BFF1F70B504460E4615468E
:1052900003781BB1FFF7D4FF00232370266120465B
:1052A0002946FFF79FFF10B10123237001E000237F
:1052B0002370207870BD00BF10B5044603780BB191
:1052C000FFF7BEFF0023237010BD00BF81F0004137
:1052D00002E000BF83F0004330B54FEA41044FEADB
:1052E000430594EA050F08BF90EA020F1FBF54EA76
:1052F000000C55EA020C7FEA645C7FEA655C00F012
:10530000E2804FEA5454D4EB5555B8BF6D420CDDE2
:105310002C4480EA020281EA030382EA000083EA65
:10532000010180EA020281EA0303362D88BF30BD05
:1053300011F0004F4FEA01314FF4801C4CEA11315B
:1053400002D0404261EB410113F0004F4FEA0333BA
:105350004CEA133302D0524263EB430394EA050F45
:1053600000F0A780A4F10104D5F1200E0DDB02FAB4
:105370000EFC22FA05F2801841F1000103FA0EF248
:10538000801843FA05F359410EE0A5F120050EF10E
:10539000200E012A03FA0EFC28BF4CF0020C43FA3F
:1053A00005F3C01851EBE37101F0004507D54FF04C
:1053B000000EDCF1000C7EEB00006EEB0101B1F59C
:1053C000801F1BD3B1F5001F0CD349085FEA3000E2
:1053D0004FEA3C0C04F101044FEA445212F5800FED
:1053E00080F09A80BCF1004F08BF5FEA500C50F18A
:1053F000000041EB045141EA050130BD5FEA4C0C6D
:10540000404141EB010111F4801FA4F10104E9D1F5
:1054100091F0000F04BF01460020B1FA81F308BFEC
:105420002033A3F10B03B3F120020CDA0C3208DDB8
:1054300002F1140CC2F10C0201FA0CF021FA02F193
:105440000CE002F11402D8BFC2F1200C01FA02F103
:1054500020FA0CFCDCBF41EA0C019040E41AA2BF28
:1054600001EB0451294330BD6FEA04041F3C1CDAF0
:105470000C340EDC04F11404C4F1200220FA04F010
:1054800001FA02F340EA030021FA04F345EA0301BA
:1054900030BDC4F10C04C4F1200220FA02F001FA7C
:1054A00004F340EA0300294630BD21FA04F02946FE
:1054B00030BD94F0000F83F4801306BF81F4801197
:1054C0000134013D4EE77FEA645C18BF7FEA655C0A
:1054D00029D094EA050F08BF90EA020F05D054EADC
:1054E000000C04BF1946104630BD91EA030F1EBFE1
:1054F0000021002030BD5FEA545C05D140004941E5
:1055000028BF41F0004130BD14F580043CBF01F5D7
:10551000801130BD01F0004545F0FE4141F47001BD
:105520004FF0000030BD7FEA645C1ABF1946104698
:105530007FEA655C1CBF0B46024650EA013406BF99
:1055400052EA033591EA030F41F4002130BD00BF58
:1055500090F0000F04BF0021704730B54FF4806415
:1055600004F132044FF000054FF0000150E700BF96
:1055700090F0000F04BF0021704730B54FF48064F5
:1055800004F1320410F0004548BF40424FF00001E2
:105590003EE700BF42004FEAE2014FEA31014FEA25
:1055A00002701FBF12F07F4393F07F4F81F0605174
:1055B000704792F0000F14BF93F07F4F704730B5E3
:1055C0004FF4607401F0004521F0004120E700BF76
:1055D00050EA010208BF704730B54FF000050AE0FD
:1055E00050EA010208BF704730B511F0004502D5FE
:1055F000404261EB41014FF4806404F132045FEA00
:10560000915C3FF4DCAE4FF003025FEADC0C18BFA4
:1056100003325FEADC0C18BF033202EBDC02C2F19A
:10562000200300FA03FC20FA02F001FA03FE40EA2C
:105630000E0021FA02F11444C1E600BF70B54FF02C
:10564000FF0C4CF4E06C1CEA11541DBF1CEA13550E
:1056500094EA0C0F95EA0C0F00F0DEF82C4481EA76
:10566000030621EA4C5123EA4C5350EA013518BF96
:1056700052EA033541F4801143F4801338D0A0FB83
:1056800002CE4FF00005E1FB02E506F00042E0FB30
:1056900003E54FF00006E1FB03569CF0000F18BF36
:1056A0004EF0010EA4F1FF04B6F5007F64F54074DE
:1056B00004D25FEA4E0E6D4146EB060642EAC62171
:1056C00041EA55514FEAC52040EA5E504FEACE2EDE
:1056D000B4F1FD0C88BFBCF5E06F1ED8BEF1004FE1
:1056E00008BF5FEA500E50F1000041EB045170BD5D
:1056F00006F0004646EA010140EA020081EA0301A1
:10570000B4EB5C04C2BFD4EB0C0541EA045170BD9C
:1057100041F480114FF0000E013C00F3AB8014F116
:10572000360FDEBF002001F0004170BDC4F100045F
:10573000203C35DA0C341BDC04F11404C4F12005E0
:1057400000FA05F320FA04F001FA05F240EA02003B
:1057500001F0004221F0004110EBD37021FA04F671
:1057600042EB06015EEA430E08BF20EAD37070BD2B
:10577000C4F10C04C4F1200500FA04F320FA05F08A
:1057800001FA04F240EA020001F0004110EBD3708C
:1057900041F100015EEA430E08BF20EAD37070BDFC
:1057A000C4F1200500FA05F24EEA020E20FA04F3D5
:1057B00001FA05F243EA020321FA04F001F0004184
:1057C00021FA04F220EA020000EBD3705EEA430EF5
:1057D00008BF20EAD37070BD94F0000F0FD101F024
:1057E0000046400041EB010111F4801F08BF013C5D
:1057F000F7D041EA060195F0000F18BF704703F09B
:105800000046520043EB030313F4801F08BF013D21
:10581000F7D043EA0603704794EA0C0F0CEA1355DD
:1058200018BF95EA0C0F0CD050EA410618BF52EA97
:105830004306D1D181EA030101F000414FF000009D
:1058400070BD50EA410606BF1046194652EA4306AB
:1058500019D094EA0C0F02D150EA013613D195EA1F
:105860000C0F05D152EA03361CBF104619460AD167
:1058700081EA030101F0004141F0FE4141F4700171
:105880004FF0000070BD41F0FE4141F4780170BD61
:1058900070B54FF0FF0C4CF4E06C1CEA11541DBFC6
:1058A0001CEA135594EA0C0F95EA0C0F00F0A7F8C8
:1058B000A4EB050481EA030E52EA03354FEA0131F5
:1058C00000F088804FEA03334FF0805545EA131308
:1058D00043EA12634FEA022245EA111545EA1065D0
:1058E0004FEA00260EF000419D4208BF964244F167
:1058F000FD0404F5407402D25B084FEA3202B61A86
:1059000065EB03055B084FEA32024FF480104FF459
:10591000002CB6EB020E75EB030E22BFB61A7546CD
:1059200040EA0C005B084FEA3202B6EB020E75EB60
:10593000030E22BFB61A754640EA5C005B084FEAC8
:105940003202B6EB020E75EB030E22BFB61A754695
:1059500040EA9C005B084FEA3202B6EB020E75EBA0
:10596000030E22BFB61A754640EADC0055EA060E61
:1059700018D04FEA051545EA16754FEA06164FEAA4
:10598000C30343EA52734FEAC2025FEA1C1CC0D150
:1059900011F4801F0BD141EA00014FF000004FF0DD
:1059A000004CB6E711F4801F04BF01430020B4F19E
:1059B000FD0C88BFBCF5E06F3FF6AFAEB5EB030C56
:1059C00004BFB6EB020C5FEA500C50F1000041EB53
:1059D000045170BD0EF0004E4EEA113114EB5C0420
:1059E000C2BFD4EB0C0541EA045170BD41F48011F3
:1059F0004FF0000E013C90E645EA060E8DE60CEAFB
:105A0000135594EA0C0F08BF95EA0C0F3FF43BAF17
:105A100094EA0C0F0AD150EA01347FF434AF95EACE
:105A20000C0F7FF425AF104619462CE795EA0C0FB2
:105A300006D152EA03353FF4FDAE1046194622E77F
:105A400050EA410618BF52EA43067FF4C5AE50EA59
:105A500041047FF40DAF52EA43057FF4EBAE12E749
:105A60004FF0FF3C06E000BF4FF0010C02E000BF2A
:105A70004FF0010C4DF804CD4FEA410C7FEA6C5C0D
:105A80004FEA430C18BF7FEA6C5C1BD001B050EAB0
:105A9000410C0CBF52EA430C91EA030F02BF90EA9B
:105AA000020F0020704710F1000F91EA030F58BF5A
:105AB000994208BF90422CBFD8176FEAE37040F0BC
:105AC000010070474FEA410C7FEA6C5C02D150EA5A
:105AD000013C07D14FEA430C7FEA6C5CD6D152EA15
