:1000000000800020BD010000ED160000B1160000C8
:10001000B1160000B1160000B1160000B1160000C4
:10002000B1160000B1160000B1160000ED16000078
:10003000ED160000B1160000ED160000A11600003C
:10004000ED160000ED160000ED160000ED160000A4
:10005000ED160000ED160000ED160000ED16000094
:10006000ED160000ED160000ED160000ED16000084
:10007000ED160000ED160000ED160000ED16000074
:10008000ED160000ED160000ED160000ED16000064
:10009000ED160000ED160000ED160000ED16000054
:1000A000ED160000ED160000ED160000ED16000044
:1000B000ED160000ED160000ED160000ED16000034
:1000C000ED160000ED160000ED160000ED16000024
:1000D000ED160000ED160000ED160000ED16000014
:1000E000ED160000ED160000ED160000ED16000004
:1000F000ED1600004D1D0000ED1600006524000007
:10010000ED160000E1290000ED160000ED160000DC
:10011000ED160000ED160000ED160000ED160000D3
:10012000ED160000ED160000ED160000ED160000C3
:10013000ED160000ED160000ED160000ED160000B3
:10014000ED160000ED160000ED160000ED160000A3
:100150001D2F0000352F00004D2F0000652F0000DF
:10016000ED1600007D080000ED160000ED16000001
:10017000ED160000ED160000ED160000ED16000073
:10018000ED160000ED160000ED160000ED16000063
:10019000ED160000ED160000ED160000ED16000053
:1001A000ED160000ED160000ED160000ED16000043
:1001B000ED160000ED160000ED160000574B4CF256
:1001C000205210B51A804DF628121A8000BF00BFC9
:1001D00001F090FA524B4FF010621A60514A9A6047
:1001E000514ADA60A3F53043203B1A6812F480725A
:1001F00004D14E490A604FF4A8521A604C4B1A7849
:10020000110703D51A7842F008021A70494B4A4C7C
:100210004A482A221A704A4A00239918A14203D256
:10022000195899500433F8E7464B474900228B424E
:1002300002D243F8042BFAE74448454900235A58B0
:100240001A500433B3F5DE7FF9D1424B424A802184
:1002500003F8011B9342FBD1404B3C4A1A60404BD0
:100260000A221A70A3F5805324225A70A0221A7011
:100270009A799207FCD59A79D406FCD4394A9379B5
:1002800003F00C03082B374BF9D103221A714022DB
:100290005A719A799006FCD5324A9179314B4906C8
:1002A000FBD5314A314911600221516020221A7078
:1002B0009A7902F00C020C2AFAD12D4B2D4A1A60C1
:1002C0002D4B4BF67F321A6000225A60072243F80A
:1002D000042C2A4AC3F80C2D62B600F08FF9134B98
:1002E0001B68DA0705D5264800F0CCF8254B264ACE
:1002F0001A60264B1B785B0609D5224C224A2368DC
:10030000934204D11E4800F0BDF80023236003F09F
:1003100059FA01F0F5F901F00FF9FEE70E2005405A
:1003200030800440823F04000100002B14D00340C1
:1003300002D0074000E00740408CFF1F543C000003
:100340006087FF1F408CFF1F788FFF1F0082FF1FF9
:100350000000000000E400E05FE400E008ED00E0E1
:100360000050064000400640448004400000131145
:1003700004800440C010050014E000E000002020CC
:100380009202DB571CE00340A5C3945A00F00740DB
:10039000FFFFFFFFFFFFFFFFFFFFFFFFFFFFFFFF6D
:1003A000FFFFFFFFFFFFFFFFFFFFFFFFFFFFFFFF5D
:1003B000FFFFFFFFFFFFFFFFFFFFFFFFFFFFFFFF4D
:1003C000FFFFFFFFFFFFFFFFFFFFFFFFFFFFFFFF3D
:1003D000FFFFFFFFFFFFFFFFFFFFFFFFFFFFFFFF2D
:1003E000FFFFFFFFFFFFFFFFFFFFFFFFFFFFFFFF1D
:1003F000FFFFFFFFFFFFFFFFFFFFFFFFFFFFFFFF0D
:10040000FFFFFFFFFFFFFFFFFFFFFFFFDEF9FFFF23
:1004100010B5054C237833B9044B13B10448AFF33E
:1004200000800123237010BD408CFF1F00000000DE
:10043000543C000008B5064B1BB106480649AFF313
:1004400000800648036813B1054B03B1984708BD07
:1004500000000000543C0000448CFF1F408CFF1F34
:100460000000000008B50C20012100F03FF808BD95
:1004700008B50C204FF47A6142F2107200F0C2FF0E
:1004800008BD00BF044B00221A6004490A60044AF8
:10049000106010221A60704714D0034004D003404B
:1004A00000D0034021281ED80F4B53F8303093F86A
:1004B000802212F0FF0F08D019B1012283F88020AA
:1004C0007047012283F800217047074B03EBC000FF
:1004D000436821B11A6842F003021A6070471A6833
:1004E00022F002021A6070476C39000021284AD8B5
:1004F000254B03EBC0035B68012911D004291DD0F3
:10050000214A52F83020002082F8800200292FD0A2
:10051000022931D003291FD040F203121A6070471C
:10052000194A52F83020012182F880124FF4A27249
:100530001A601A6822F020021A607047124A52F8B4
:100540003020012182F880124FF4A2721A601A68DA
:1005500042F020021A6070474FF480721A601A68E5
:1005600042F002021A601A6822F001021A60704713
:100570004FF480721A6070474FF480721A601A68E4
:1005800042F003021A6070476C39000072B60C4BDF
:100590001B680C4A12680C49096862B611F0806F3A
:1005A00002D0322B88BF0132C3F53B437F3307496A
:1005B000A1FB03035B094FF47A7000FB0230704724
:1005C00018E000E05C8CFF1F04ED00E0ABAAAAAAD3
:1005D00038B50546FFF7DAFF044625B938BD013DB9
:1005E0000AD004F57A74FFF7D1FF001BB0F57A7FCB
:1005F000F5D200F0A9FFF6E738BD00BF10B5264BD5
:100600004FF400021A604FF080721A604FF00072CF
:100610001A604FF080621A604FF000621A6000208A
:100620001E4B18604BF6FF710433196028231C4AD7
:100630001360083213600832136008321360083206
:100640001360083213600832136008321360092205
:10065000144C226004F5805404342060043421607A
:100660000434236008342360143C226004F5FE2423
:10067000043420600C4801600C490B6008310B60A9
:100680000B4B1A6000F082FF4FF4C870FFF7A0FF19
:1006900000F074FC10BD00BF08E100E004800340DE
:1006A0000C8003400080034008800B400C800B400E
:1006B00000800B4030B40E4B1B7843F002020D4C0F
:1006C00004EBC20460600C48007800280CBF88244A
:1006D000C82444EA0141074D45F8321080F001007A
:1006E000054A107083F00103014A137030BC704753
:1006F000C88CFF1F0080FF1F418DFF1F10B4431ED9
:10070000032B11D872B60A4A52F8230050B142683E
:10071000074941F82320074A32F813400188611A3B
:1007200022F8131062B600E000205DF8044B704719
:10073000B88CFF1F648FFF1F013803280DD872B6D5
:10074000074B53F820302BB1002001305B68002BA1
:10075000FBD100E0002062B670470020704700BF68
:100760000C8DFF1F38B572B601231B491B4C5A185C
:1007700012F8012C12F0080F24D09A0054F83250CD
:100780006DB9164B03EBC20108304860144943F8B9
:100790003210144B1A78013A1A7062B638BD42F022
:1007A000010254F832506DB90C4B03EBC201083012
:1007B00048600D4943F832100A4B1A78013A1A7012
:1007C00062B638BD0133052BD1D162B60022054B8C
:1007D0001A7000F037FC38BD7C3A00000080FF1F23
:1007E00088004000368DFF1FC800400010B4431E33
:1007F000032B37D8400140F010001C4A104472B659
:100800001B4AD25C032A09D8DFE802F019021B0553
:100810000830022216E00830042213E0154A52F88C
:1008200023201AB9134A42F8231003E0124A52F85F
:1008300023205160104A42F8231062B612E00322CE
:1008400000E005220A4CE25401F10803436000F085
:100850000803002B0CBF8823C8230A8843EA0243FD
:10086000036062B65DF8044B704700BF0080FF1F55
:10087000748CFF1F0C8DFF1F1C8DFF1F2DE9F84F7F
:10088000A34CDFF8E092DFF8E0A2DFF8E0B22578D1
:10089000EDB215F0040F1DD09E4B1B7813F0FF0F27
:1008A00016D09D4B1B7803F0FF022BB1531EDBB219
:1008B000994A137003B900BE984B1B7803F0FF02EE
:1008C00033B1531EDBB2954A13700BB900F016FD1D
:1008D0000423237015F0080F00F0E48299F800302B
:1008E000DBB21D0940F021828D4D9E0805EBC60349
:1008F0005A6855F83630C3F38303013B0C2B00F2E2
:100900001082DFE813F0CB01CB010E020E020E02C3
:100910000E020E020E02E8010E020E020E020D0081
:10092000804913680B6052684A607F4A45F8362058
:1009300000227E490A607A490A618A6101217C4A63
:1009400011709BB240F28162934218D8B3F5D06F18
:100950002ED2B3F5817F00F01E8106D8802B00F0E7
:10096000C980822B00F0CC8066E140F202329342D3
:1009700000F02681B3F5A06F00F062815CE142F2E5
:100980002102934200F0868107D8B3F5086F00F08A
:10099000AB80B3F5106F11D04EE142F221229342A9
:1009A00000F0418142F22132934200F0498143E15B
:1009B000604B5D68002D40F0188130E1594B9A780A
:1009C000544B1A70564D05F180062B6A13F0800FB8
:1009D00003D0686A083800F035FB0835B542F4D119
:1009E000DFF88C8100263746534AB05828B1456855
:1009F00000F028FB0DB12846F9E700234E4973505B
:100A00004E4AB3504E4BF05828B1456800F01AFBDF
:100A10000DB12846F9E7002349497350494AB350BC
:100A200028F8023F484BFB5C023B032B0AD8DFE867
:100A300003F0020602060022434BDA5502E00122CF
:100A4000414BDA5501370436102ECDD100223F4BF1
:100A50001A7001253E4EDFF81C81314F05EB08036B
:100A600013F8013C06F8043B13F0080F2DD000F0FA
:100A7000C9FA48B1A90007EB451200F10803536019
:100A8000344A47F8312007E0AB00002247F8332012
:100A90002E4B1A7801321A7000F0B4FA58B1AB003C
:100AA00043F0010307EBC30100F108024A601E4A4C
:100AB00047F8332009E0AB0043F00103002247F878
:100AC0003320224B1A7801321A70AA0042F0020138
:100AD000002347F8313042F0030247F83230013545
:100AE0001D4B9E42BAD11EE20A4B1B781B4D2B7048
:100AF0000127AAE0194D00232B706B700227A4E098
:100B0000084B9B88042B37D90F22154B1A70C1E074
:100B100080200740408DFF1FC98CFF1F428DFF1FA3
:100B20000080FF1F2C8DFF1FC8004000608CFF1F3E
:100B3000418DFF1F803A0000B88CFF1F648CFF1F9F
:100B40000C8DFF1F1C8DFF1F748CFF1F368DFF1F28
:100B5000C420074088004000D4200740388DFF1F84
:100B6000C02007409020074094200740982007406D
:100B7000628FFF1F7C3A0000A04A00211170517063
:100B80009F4A12F8233013F0020F5CD09B4D0123D3
:100B90002B70022759E09B4B9B8803F07F03042BAB
:100BA00002DC984A52881AB10F22954B1A7071E0F4
:100BB000934A12F8231021F0020102F82310B2E147
:100BC000904B9B8803F07F03042B02DC8D4A5288F4
:100BD0001AB10F228A4B1A705CE0894A12F823106E
:100BE00041F0020102F823109DE1864B5E889F8848
:100BF000854BA3F10C02114633F80C0CB04209D11D
:100C000033F80A0CB84205D1360A032E0CBF2F78F0
:100C100017891AE00D690C330C32002DEBD10F222D
:100C2000774B1A7036E0794B1A68794B1A60754B1E
:100C30009A78784B1A7076E10F22714B1A7029E07E
:100C400000273D4601E002276C4D6E4BDB889F423A
:100C500028BF1F46402F34BF3E4640262846314617
:100C6000FFF728FD3544BF1B03D13F2E00F2608102
:100C700010E0402F34BF3E46402628463146FFF75D
:100C800019FD3544BF1B01D13F2E03D9624B1D60B6
:100C9000624B1F8001238AF8003042E0594B1988CB
:100CA00042F22103994212D15D4BD81D12F8011B6B
:100CB00003F8011F8342F9D15A4B1B68862B02D1DE
:100CC0000F22594B1A7000200146FFF7F3FC574BD7
:100CD00045F8363025E0504B1E68BEB14F4FB7F88F
:100CE0000080B8F1400F34BF4546402530462946C4
:100CF000FFF7E0FCC5EB08039BB23B800BB9402D2E
:100D000001D1354400E00025434B1D603D4B1B885D
:100D1000B3F5A06F05D13B4B00225A709B788BF83E
:100D2000003001238AF80030B9E0414E9F0806EBFD
:100D3000C708D8F80420A2F10800013DEDB213F075
:100D4000080F47D000F07EF93A4B53F825304BB3EB
:100D50005A68384941F8252003F10802C8F80420F0
:100D6000354A525D032A12D8DFE802F002060A0E65
:100D70000321314A51550AE002212F4A515506E01C
:100D800005212D4A515502E004212B4A515518F0F6
:100D9000080F0CBF8822C8221B8842EA034346F88A
:100DA00037307CE0244B5B5D032B0BD8DFE803F08E
:100DB000777702060022204B5A5570E001221E4B25
:100DC0005A556CE018F0080F0CBF022203221A4B90
:100DD0005A5564E056F837301B0C22F8083C002BBB
:100DE00055D0002322F8063C42F8043C134B53F83C
:100DF00025302BBB114B43F8250025E0388DFF1F14
:100E0000C02007402C8DFF1F8C3A00005C8CFF1F18
:100E1000748FFF1F508DFF1F608CFF1F348DFF1FCD
:100E20006B8FFF1F6C8FFF1FC98CFF1FC800400016
:100E30000080FF1F0C8DFF1F748CFF1FB88CFF1FDD
:100E40003F4B53F8253058603D4B43F825003D4B50
:100E500033F8151032F8082C0A4423F8152000F056
:100E6000D1F860B100F10803C8F8043018F0080F99
:100E7000354B364A08BF134646F837300FE000239B
:100E800046F83730324B1A7801321A7007E018F002
:100E9000080F2D4B2D4A08BF134646F8373008235C
:100EA0002370F4E415F0010F22D02A4902230B70BD
:100EB0000022294B1A70294B24481860284C5C608A
:100EC00098602848D8601A619A610D20264B1870E6
:100ED000FF23264803700838037018300270244A34
:100EE00013709F22234B1A7001230B70BDE8F88FFB
:100EF00015F0800F05D00D221B4B1A708022403B4D
:100F00001A7015F0020F06D0184B1A78D2B21A7068
:100F10000222083B1A7015F0100F0ED01022164B4B
:100F20001A70BDE8F88F00200146FFF7C3FBB1E659
:100F300028460021FFF7BEFBACE6BDE8F88F00BFF6
:100F4000648CFF1F648FFF1FC800400088004000B2
:100F5000368DFF1F94200740C88CFF1F0080FF1FA5
:100F6000788CFF1FCC8CFF1FC020074088200740D3
:100F70008C200740842007408020074008B501F0FE
:100F8000A3FD00231B491A465A50C8184260083373
:100F9000882BF9D1184B1A6842F480221A60154B3D
:100FA000C3F30721154A1170C3F3074114321170BE
:100FB0001B0E04321370FF23343A1370083213707F
:100FC000783A137001238432137000216C3211704F
:100FD0007C3A137070220A4B1A704FF40072A3F21D
:100FE00041331A60102203F1C04303F5C8231A707D
:100FF00008BD00BF0080FF1F348004409C200740D4
:1010000049E400E072B60D4B1A68B2FA82F30B2B7A
:1010100002D962B6002070474FF00041D94022EA61
:10102000010206490A6062B6054903EBC303DB000F
:10103000C8180022CA504260704700BF6487FF1F73
:101040000084FF1F08B50F4BC31A0F4AA2FB0313FE
:101050001B090B2B14D80D4A12783AB10C4A12789E
:1010600012F0FF0F02D0FFF77DFB08BD72B6094AF0
:101070004FF0004121FA03F311681943116062B681
:1010800008BD00BF0084FF1F398EE338368DFF1F77
:10109000408DFF1F6487FF1F10B5134B1B6853B9AA
:1010A000124B1B7813F0FF0F18D00320FFF726FB1D
:1010B0000D4B1860A8B10C4B186843885A1C0344A8
:1010C0001C7A03889A4206D3FFF7BCFF0022064B26
:1010D0001A60204610BD4280204610BD4FF0FF3000
:1010E00010BD4FF0FF3010BD4C8DFF1F408DFF1F16
:1010F00008B50D4B1B6883B90C4B1B7813F0FF0F21
:1011000008D00320FFF7FAFA074B186028B94FF010
:10111000FF3008BD4FF0FF3008BD034B1B685A88F5
:101120001344187A08BD00BF4C8DFF1F408DFF1F70
:10113000044B9888044B1B681BB11A885B88D31A30
:1011400018447047648FFF1F4C8DFF1F10B50B4B69
:101150001B7813F0FF0F0FD0094B186820B1FFF771
:1011600071FF0022064B1A6003242046FFF7C6FADF
:1011700010B1FFF767FFF8E710BD00BF408DFF1FFC
:101180004C8DFF1F2DE9F04704460122374B1A70A2
:101190000E46002964D0DFF8E080DFF8E0909A4640
:1011A000334FD8F8003083BB99F8003013F0FF0FAD
:1011B00006D100222D4B1A704FF0FF30BDE8F087AA
:1011C00047F209550420FFF7B7FA07280AD8012388
:1011D0008AF80030FFF716FFC8F80000A8B900230E
:1011E0008AF80030013D01D03B7833B10122204B19
:1011F0001A704FF0FF30BDE8F08700F0A5F999F8BC
:10120000003013F0FF0FDDD1D3E700233B70D8F897
:1012100000104A88C2F14005AE4238BF354602F19F
:1012200008030B442A444A80761B3DB1254414F838
:10123000012B03F8012BAC42F9D100E025464B8885
:101240003F2B07D940230B800420FFF7CFFA002360
:10125000C8F800300522074B1A700EB12C46A0E7E3
:101260000020024B1870BDE8F08700BF438DFF1FC0
:10127000488DFF1F428DFF1F448DFF1F408DFF1FB4
:1012800000B583B002AB03F8010D18460121FFF74A
:1012900079FF03B05DF804FB10B5144B1B7813F015
:1012A000FF0F21D00122124B1A70124B196851B155
:1012B0000024114B1C704B880B800420FFF796FA1A
:1012C0000C4B1C600DE0FFF79DFE014630B1002283
:1012D000094B1A700420FFF789FA02E00122064B3D
:1012E0001A700022024B1A7010BD00BF408DFF1F04
:1012F000438DFF1F448DFF1F428DFF1F08B50E4B0E
:101300001B7813F0FF0F16D10C4B196841B14B88B5
:101310000B800420FFF76AFA0022084B1A6008BD10
:10132000FFF770FE014618B10420FFF75FFA08BD11
:101330000122034B1A7008BD438DFF1F448DFF1F10
:10134000428DFF1F10B5044601F0DCFE204610BDA3
:1013500010B5234B1B6883B1224A1268012182F821
:101360008010013B13F1050F02D01D4A136010BD20
:101370006FF002021A4B1A6010BD1A4B1B68012253
:101380001A70194B1B681BB3184B1C6820460021B0
:1013900002F0CAF9A8B92046154902F0D9F980B976
:1013A0002046144902F018F84FF07C5101F00AFF72
:1013B00002F0D8F90246272803D90F480F4901F057
:1013C00089FE094B1A6806490A6000221A6010BD9E
:1013D000094801F097FEFF22094B1A7010BD00BFAB
:1013E000708DFF1F688DFF1F6C8DFF1F748DFF1F99
:1013F000ABAAAA4C00004042548DFF1F51130000BD
:101400006887FF1F70B5044621286AD842B102FBE5
:1014100001F6344BA3FB0626B6097600013601E03F
:101420006FF00206084601F07FFF01462E4802F0E9
:1014300087F805462D4B03EBC403596872B62C4B55
:101440001B789C4216D12B4B196802F059F938B120
:10145000294B1A6802F00102013A16441E603FE06F
:10146000244B1D60254B1E60234B1A6802F00102BD
:101470001A6035E0212B03D8214B1B6801221A701A
:101480001B4B1C70194B53F8343003F580701C4A09
:101490001060012283F8002183F880224FF4A273A8
:1014A0000B60154B1E60134B1D602846002102F097
:1014B0003BF9A8B92846134902F04AF980B92846F1
:1014C000114901F089FF4FF07C5101F07BFE02F0E1
:1014D00049F90246272803D90C480D4901F0FAFDC5
:1014E00062B670BDD34D62100024F4486C39000020
:1014F0006887FF1F748DFF1F708DFF1F6C8DFF1F8E
:10150000688DFF1FABAAAA4C00004042548DFF1FFC
:101510005113000008B5054800230370802343736E
:101520000349044A02F03EF908BD00BF548DFF1F75
:10153000451300006087FF1F08B5FEF793FFFEF715
:1015400097FF00F001F8FAE708B50F4B1B78CBB90D
:1015500001220D4B1A70FFF7EBFD08B101F0FCFD05
:1015600000F06AFB08B101F085FB00F0F1FE08B164
:1015700001F022FC01F0BEF908B101F0BFFC00222D
:10158000014B1A7008BD00BF788DFF1F60223A4BD7
:101590001A70E12201331A70384B1B78082B10D1D6
:1015A000012203F1804303F56C331A60132334499D
:1015B0000B6001F5FF2101F2FC710A60314A1360F2
:1015C0001FE00A2B0DD139222F4B1A6013232C490F
:1015D0000B6001F5FF2101F2FC710A60294A1360DA
:1015E0000FE00C2B0CBF35223D22274B1A60122333
:1015F00023490B6001F5FF2101F2FC710A60214AC9
:101600001360224B1B7833B10123214A136002F58A
:101610000022136005E000231D4A136002F500223A
:1016200013601C4B1B78012B06D880231A4A1360C9
:1016300002F5002213601AE0042B06D88423164A10
:10164000136002F50022136011E0082B06D88523F1
:10165000114A136002F50022136008E0102B94BFBA
:10166000862387230C4A136002F5002213600122AF
:101670000A4B1A70704700BF004007406987FF1F80
:101680000CB003400CB00B4008B003407A8DFF1F34
:1016900020B003406A87FF1F24B00340798DFF1FED
:1016A000024B1A6801321A60704700BF5C8CFF1F42
:1016B00008B50D4C236813F4802F01D0FFF7DEF836
:1016C000236813F4806F01D000F040FB236813F40B
:1016D000006F01D000F0C6FE236813F4805FE9D0EC
:1016E00001F07EF9E6E700BF3480044008B5FFF75B
:1016F000DFFF00BF1022014B1A8070470020054019
:10170000704700BFEFF31383ABB9EFF31083ABB9AE
:10171000EFF3058323B10F2B05D9094A985C03E049
:101720004FF4807000E00020EFF311833BB183425F
:1017300038BF184670474FF0FF30704700207047A1
:10174000F0E300E0254B1A6842F480621A6000233F
:10175000234A1370234A1370234A1370234A1370C9
:10176000234A1370234B1B7813B1152B05D008E0C7
:1017700040F21332204B1A6003E040F213321F4B49
:101780001A601F4B1B78012B02D0052B05D008E0F7
:101790004FF451721B4B1A6003E04FF451721A4B15
:1017A0001A60C0F34432194B1A70C0F347125A70D2
:1017B00000F01F00987204229A700221D9745A75A1
:1017C00088221A743C22DA704022114B1A704FF4AE
:1017D0000052A3F229331A60704700BF34800440DE
:1017E000088EFF1F818DFF1F108EFF1F098EFF1FA8
:1017F000808DFF1FC48DFF1F40A0044018C004400F
:101800006B87FF1F44A004401CC0044000A006409A
:101810002DE400E0164B9B7803F0EC0300F003028C
:10182000134310F0040F18BF43F01003104A9370D5
:1018300000F00F03042B04D11346927942F04002CA
:101840009A710B4B5A7902F0EF0210F0100F18BF8B
:1018500042F01002064B5A719B7903F0EF0310F02F
:10186000200F18BF43F01003014A9371704700BF67
:1018700000A0064010B5144B1B6813F4806F21D0F4
:10188000124B1B7813F0FF0F06D0104CFFF75CFED5
:10189000237813F0FF0FF9D14FF400520C4B1A606C
:1018A00000230C4AD37040F203120B490A60043142
:1018B0000A600A4A13700A4A13700A4B1B680BB17C
:1018C00001221A7010BD00BF34800440808DFF1FBC
:1018D00084E100E000A0064040A00440088EFF1F05
:1018E000818DFF1F7C8DFF1F10B50446094A1378B8
:1018F00013F0FF0FFBD120460121FEF7F7FD204634
:101900000021FEF7CFFD044B53F83420034B1A603F
:1019100010BD00BF808DFF1F6C3900000C8EFF1FB3
:1019200010B40C4609B140F08000184B1B78984267
:1019300028D0174A126812F4806F21D003F07F0379
:10194000012B02D0052B04D006E00022114B1A60B7
:1019500002E00022104B1A60002C0CBF44226022CF
:1019600000F07F03012B02D0052B05D008E042F4E4
:101970004072084B1A6003E042F44072064B1A6052
:10198000024B18705DF8044B704700BF6B87FF1F58
:101990003480044044A004401CC00440114B1B7818
:1019A00098421ED0104A126812F4806F17D013B1FB
:1019B000152B04D006E000220C4B1A6002E0002236
:1019C0000B4B1A6010B1152805D008E040F2133215
:1019D000064B1A6003E040F21332054B1A60014BCC
:1019E00018707047C48DFF1F3480044040A004402D
:1019F00018C0044010B50D4B1B6813F4806F12D053
:101A000021280CD80A4C0B4B53F8303023600121AD
:101A1000FEF76CFD236800221A70012010BD002023
:101A2000034B186010BD002010BD00BF348004407F
:101A30007C8DFF1F6C390000114B1B6813F4806F05
:101A40001BD0122804D140F202320E4B1A600DE076
:101A5000142804D140F202320B4B1A6006E00B4B03
:101A60005A7B02F0FE025A7300207047074B5A7BE4
:101A700042F001025A73012070470020704700BFF6
:101A8000348004400CA0044014C0044000A0064070
:101A90002DE9F04107461F4B1B6813F4806F37D0C8
:101AA0001D4B1B680BB101221A701C4B1C780134B2
:101AB000402C28BF00241A4D1A4EDFF86C8017E026
:101AC000FFF720FE40280FDC337913F0800F0FD092
:101AD0002B780133402B28BF002318F80320D2B203
:101AE000F271DBB22B7003E0FF2801DDFFF72CFD64
:101AF0002B78DBB29C42E3D0FFB20B4B1F55012287
:101B00000A4B1A70E4B2054B1C70BC22054BDA700C
:101B1000BDE8F081348004400C8EFF1F108EFF1F43
:101B2000098EFF1F00A00640848DFF1F808DFF1FC0
:101B30002DE9F84F0746284B1B6813F4806F49D0F6
:101B4000264B1B680BB101221A7007EB010B5F4596
:101B50003DD2DFF89890224EDFF88C80DFF890A01D
:101B600099F800400134402C28BF00243578EDB2AC
:101B7000A54220D1BC2388F80330FFF7C3FD4028DD
:101B800011DC98F8043013F0800F10D03378013353
:101B9000402B28BF00231AF80320D2B288F8072070
:101BA000DBB2337003E0FF2801DDFFF7CDFC3378B3
:101BB000DBB29D42E1D017F8013B0AF80430012264
:101BC000084B1A70E4B289F800405F45C8D1BC22C6
:101BD000054BDA70BDE8F88F348004400C8EFF1F8F
:101BE000098EFF1F808DFF1F00A00640108EFF1F73
:101BF000848DFF1F10B5064B1B7813F0FF0F06D026
:101C0000034CFFF7A1FC237813F0FF0FF9D110BDAF
:101C1000808DFF1F064B1B78DBB2064A1278D2B2CA
:101C200093422CBF3F3202F1FF32D01A704700BFFF
:101C3000108EFF1F098EFF1F054B1878C0B2054B91
:101C40001B78DBB2984238BF4030C01A704700BFE3
:101C5000088EFF1F818DFF1F10B4184B1A78D2B267
:101C6000174B1B78DBB29A4218D001333F2B18D8A0
:101C70001449C85CC0B2DCB211490C701249096841
:101C8000C9B19A4203D300E00023D31A01E04032E5
:101C9000D31A1A2B0FDC00230B700CE04FF0FF302F
:101CA00009E0084B1878C0B20021054B1970064BAB
:101CB00019680029E8D15DF8044B7047088EFF1FB2
:101CC000818DFF1FC88DFF1F7C8DFF1F094B1A7868
:101CD000D2B2094B1B78DBB29A4207D00133402BBA
:101CE00028BF0023054AD05CC0B270474FF0FF30D8
:101CF000704700BF088EFF1F818DFF1FC88DFF1F1B
:101D00000D4B1B6813F4806F14D00C4BDA7802F083
:101D1000CB02DA7040225A74DA7842F03402DA7078
:101D2000074B1A78D2B2074B1A70074B1B680BB1DE
:101D300000221A70704700BF3480044000A00640A3
:101D4000818DFF1F088EFF1F7C8DFF1F70B43D4BE0
:101D50001B7913F0300F33D072B63A4B9B7D03F0F2
:101D6000FF022BB9374BDA7940225A7462B627E06A
:101D700062B6354B1978C9B2344B1C78E4B2314D98
:101D8000334EEB79D8B24B1C402B28BF0023A34223
:101D90001CBFF0541946531E13F0FF02F1D1CAB212
:101DA000294B1A702B4B1B6853B1A1422EBFC4EBB9
:101DB0000101C4F1400409192729C4BF01221A7086
:101DC000204BDA78D2B212F0800F27D01B7913F0B3
:101DD000800F23D0204B1C78E4B2204B1B78DBB261
:101DE0009C4210D017491E4D01E0A3420BD0013395
:101DF000402B28BF00230879E85CC0B2C871087D79
:101E0000C0B20728F1D9DBB214490B700D4B1B7916
:101E100013F0800F02D07C210A4BD97012F0400FD2
:101E20000ED0084B1B7913F0400F09D000220D4B48
:101E30001A700D4B1B6803B11A703C22014BDA700B
:101E400070BC704700A00640088EFF1F818DFF1FE9
:101E5000C88DFF1F7C8DFF1F108EFF1F098EFF1F77
:101E6000848DFF1F808DFF1F0C8EFF1F254B1A686E
:101E700042F400621A600023234A1370234A13704D
:101E8000234A1370234A1370234A1370234B1B7881
:101E9000092B02D01A2B05D008E040F21332204B58
:101EA0001A6003E040F213321E4B1A601E4B1B787F
:101EB0000A2B02D01F2B05D008E04FF451721B4BA8
:101EC0001A6003E04FF45172194B1A60C0F34432A8
:101ED000184B1A70C0F347125A7000F01F00987226
:101EE00004229A700221D9745A7588221A743C22ED
:101EF000DA704022104B1A704FF40042A3F22B33D9
:101F00001A60704734800440848EFF1F198EFF1FB3
:101F10008C8EFF1F858EFF1F188EFF1F6C87FF1F83
:101F20000CB0044004D004406D87FF1F10B0044083
:101F300000D0044000B006402FE400E0164B9B7830
:101F400003F0EC0300F00302134310F0040F18BF7A
:101F500043F01003104A937000F00F03042B04D1D8
:101F60001346927942F040029A710B4B5A7902F073
:101F7000EF0210F0100F18BF42F01002064B5A711A
:101F80009B7903F0EF0310F0200F18BF43F010030C
:101F9000014A9371704700BF00B0064010B5144B62
:101FA0001B6813F4006F21D0124B1B7813F0FF0F46
:101FB00006D0104CFFF7C8FA237813F0FF0FF9D1C1
:101FC0004FF400420C4B1A6000230C4AD37040F2CD
:101FD00003120B490A6004310A600A4A13700A4A64
:101FE00013700A4B1B680BB101221A7010BD00BFA1
:101FF00034800440188EFF1F84E100E000B00640EA
:102000000CB00440848EFF1F198EFF1F148EFF1F1B
:1020100010B50446094A137813F0FF0FFBD1204690
:102020000121FEF763FA20460021FEF73BFA044B3C
:1020300053F83420034B1A6010BD00BF188EFF1FE9
:102040006C390000888EFF1F10B40C4609B140F0B7
:102050008000184B1B78984228D0174A126812F457
:10206000805F21D003F07F030A2B02D01F2B04D006
:1020700006E00022114B1A6002E00022104B1A60A9
:10208000002C0CBF4422602200F07F030A2B02D0F8
:102090001F2B05D008E042F44072084B1A6003E0A1
:1020A00042F44072064B1A60024B18705DF8044B04
:1020B000704700BF6D87FF1F3480044010B004409C
:1020C00000D00440124B1B78984220D0114A12686D
:1020D00012F4805F19D0092B02D01A2B04D006E02D
:1020E00000220D4B1A6002E000220C4B1A600928F6
:1020F00002D01A2805D008E040F21332064B1A60CD
:1021000003E040F21332054B1A60014B1870704720
:102110006C87FF1F348004400CB0044004D004409E
:1021200010B50D4B1B6813F4006F12D021280CD88A
:102130000A4C0B4B53F8303023600121FEF7D6F9DF
:10214000236800221A70012010BD0020034B186084
:1021500010BD002010BD00BF34800440148EFF1F4E
:102160006C3900000D4B1B6813F4006F13D0172857
:102170000AD140F202320A4B1A600A4B5A7B42F0F3
:1021800001025A7301207047064B5A7B02F0FE028F
:102190005A73002070470020704700BF348004400D
:1021A00008B0044000B006402DE9F04107461F4B3F
:1021B0001B6813F4006F37D01D4B1B680BB1012255
:1021C0001A701C4B1C780134282C28BF00241A4D8F
:1021D0001A4EDFF86C8017E0FFF794FA40280FDC06
:1021E000337913F0800F0FD02B780133282B28BFC1
:1021F000002318F80320D2B2F271DBB22B7003E097
:10220000FF2801DDFFF7A0F92B78DBB29C42E3D079
:10221000FFB20B4B1F5501220A4B1A70E4B2054B5B
:102220001C70BC22054BDA70BDE8F081348004409C
:10223000888EFF1F8C8EFF1F858EFF1F00B006400B
:102240001C8EFF1F188EFF1F2DE9F84F0746284BE5
:102250001B6813F4006F49D0264B1B680BB1012299
:102260001A7007EB010B5F453DD2DFF89890224EC4
:10227000DFF88C80DFF890A099F800400134282C1A
:1022800028BF00243578EDB2A54220D1BC2388F8C0
:102290000330FFF737FA402811DC98F8043013F0C8
:1022A000800F10D033780133282B28BF00231AF871
:1022B0000320D2B288F80720DBB2337003E0FF2896
:1022C00001DDFFF741F93378DBB29D42E1D017F829
:1022D000013B0AF804300122084B1A70E4B289F875
:1022E00000405F45C8D1BC22054BDA70BDE8F88FCD
:1022F00034800440888EFF1F858EFF1F188EFF1FBD
:1023000000B006408C8EFF1F1C8EFF1F10B5064BC1
:102310001B7813F0FF0F06D0034CFFF715F9237855
:1023200013F0FF0FF9D110BD188EFF1F064B1B785D
:10233000DBB2064A1278D2B293422CBF273202F1A6
:10234000FF32D01A704700BF8C8EFF1F858EFF1F93
:10235000054B1878C0B2054B1B78DBB2984238BFEA
:102360004030C01A704700BF848EFF1F198EFF1FB8
:1023700010B4184B1A78D2B2174B1B78DBB29A42C2
:1023800018D001333F2B18D81449C85CC0B2DCB256
:1023900011490C7012490968C9B19A4203D300E08F
:1023A0000023D31A01E04032D31A1A2B0FDC00238A
:1023B0000B700CE04FF0FF3009E0084B1878C0B20A
:1023C0000021054B1970064B19680029E8D15DF80A
:1023D000044B7047848EFF1F198EFF1F448EFF1F12
:1023E000148EFF1F094B1A78D2B2094B1B78DBB24F
:1023F0009A4207D00133402B28BF0023054AD05C06
:10240000C0B270474FF0FF30704700BF848EFF1F8F
:10241000198EFF1F448EFF1F0D4B1B6813F4006FB6
:1024200014D00C4BDA7802F0CB02DA7040225A74E6
:10243000DA7842F03402DA70074B1A78D2B2074BDE
:102440001A70074B1B680BB100221A70704700BF4F
:102450003480044000B00640198EFF1F848EFF1F99
:10246000148EFF1F70B43D4B1B7913F0300F33D027
:1024700072B63A4B9B7D03F0FF022BB9374BDA79EA
:1024800040225A7462B627E062B6354B1978C9B259
:10249000344B1C78E4B2314D334EEB79D8B24B1C3F
:1024A000402B28BF0023A3421CBFF0541946531EE3
:1024B00013F0FF02F1D1CAB2294B1A702B4B1B68E3
:1024C00053B1A1422EBFC4EB0101C4F1400409196C
:1024D0002729C4BF01221A70204BDA78D2B212F039
:1024E000800F27D01B7913F0800F23D0204B1C784E
:1024F000E4B2204B1B78DBB29C4210D017491E4D32
:1025000001E0A3420BD00133282B28BF0023087918
:10251000E85CC0B2C871087DC0B20728F1D9DBB24F
:1025200014490B700D4B1B7913F0800F02D07C21E6
:102530000A4BD97012F0400F0ED0084B1B7913F0E4
:10254000400F09D000220D4B1A700D4B1B6803B1D0
:102550001A703C22014BDA7070BC704700B0064024
:10256000848EFF1F198EFF1F448EFF1F148EFF1FC6
:102570008C8EFF1F858EFF1F1C8EFF1F188EFF1F66
:10258000888EFF1F174B1A6842F480521A6000238E
:10259000154A1370154A1370154A1370154A1370B3
:1025A000154A137040F21331144A11604FF45171FF
:1025B00004321160C0F34431114A1170C0F3471165
:1025C000517000F01F009072937013742C23D3701D
:1025D00040220C4B1A704FF40032A3F22D331A60D4
:1025E000704700BF34800440008FFF1F958EFF1F8F
:1025F000088FFF1F018FFF1F948EFF1F08C004402C
:1026000000C0064031E400E0164B9B7803F0EC0379
:1026100000F00302134310F0040F18BF43F010033F
:10262000104A937000F00F03042B04D113469279E3
:1026300042F040029A710B4B5A7902F0EF0210F00F
:10264000100F18BF42F01002064B5A719B7903F02D
:10265000EF0310F0200F18BF43F01003014A9371ED
:10266000704700BF00C0064010B5144B1B6813F440
:10267000805F21D0124B1B7813F0FF0F06D0104C57
:10268000FEF762FF237813F0FF0FF9D14FF4003209
:102690000C4B1A6000230C4AD37040F203120B4912
:1026A0000A6004310A600A4A13700A4A13700A4B1E
:1026B0001B680BB101221A7010BD00BF34800440AA
:1026C000948EFF1F84E100E000C0064008C0044073
:1026D000008FFF1F958EFF1F908EFF1F10B50446C1
:1026E000094A137813F0FF0FFBD120460121FDF7B3
:1026F000FDFE20460021FDF7D5FE044B53F83420A3
:10270000034B1A6010BD00BF948EFF1F6C39000090
:10271000048FFF1F10B40C4609B140F08000104B2D
:102720001B78984219D00F4A126812F4805F12D0B9
:1027300003F07F03082B02D100220B4B1A60002C00
:102740000CBF4422602200F07F03082B03D142F427
:102750004072054B1A60024B18705DF8044B7047CD
:102760006E87FF1F348004400CC00440704700BFD8
:1027700010B50D4B1B6813F4805F12D021280CD8C4
:102780000A4C0B4B53F8303023600121FDF7AEFEAD
:10279000236800221A70012010BD0020034B18602E
:1027A00010BD002010BD00BF34800440908EFF1F7C
:1027B0006C3900000D4B1B6813F4805F13D00E289A
:1027C0000AD140F202320A4B1A600A4B5A7B42F09D
:1027D00001025A7301207047064B5A7B02F0FE0239
:1027E0005A73002070470020704700BF34800440B7
:1027F00004C0044000C006402DE9F04107461F4BCD
:102800001B6813F4805F37D01D4B1B680BB101228E
:102810001A701C4B1C780134282C28BF00241A4D38
:102820001A4EDFF86C8017E0FEF76CFF40280FDCD3
:10283000337913F0800F0FD02B780133282B28BF6A
:10284000002318F80320D2B2F271DBB22B7003E040
:10285000FF2801DDFEF778FE2B78DBB29C42E3D047
:10286000FFB20B4B1F5501220A4B1A70E4B2054B05
:102870001C70AC22054BDA70BDE8F0813480044056
:10288000048FFF1F088FFF1F018FFF1F00C006402E
:10289000988EFF1F948EFF1F38B505460C4629B150
:1028A00015F8010BFFF7A8FF013CF9D138BD00BFB7
:1028B00010B5064B1B7813F0FF0F06D0034CFEF744
:1028C00043FE237813F0FF0FF9D110BD948EFF1F44
:1028D000064B1B78DBB2064A1278D2B293422CBF69
:1028E000273202F1FF32D01A704700BF088FFF1F56
:1028F000018FFF1F054B1878C0B2054B1B78DBB268
:10290000984238BF4030C01A704700BF008FFF1F89
:10291000958EFF1F10B4184B1A78D2B2174B1B7844
:10292000DBB29A4218D001333F2B18D81449C85C47
:10293000C0B2DCB211490C7012490968C9B19A429F
:1029400003D300E00023D31A01E04032D31A1A2B3C
:102950000FDC00230B700CE04FF0FF3009E0084B58
:102960001878C0B20021054B1970064B1968002970
:10297000E8D15DF8044B7047008FFF1F958EFF1F55
:10298000C08EFF1F908EFF1F094B1A78D2B2094BE1
:102990001B78DBB29A4207D00133402B28BF0023BB
:1029A000054AD05CC0B270474FF0FF30704700BF9F
:1029B000008FFF1F958EFF1FC08EFF1F054B1A78DB
:1029C000D2B2054B1A70054B1B680BB100221A706E
:1029D000704700BF958EFF1F008FFF1F908EFF1F57
:1029E0002F4B1B7913F0200F23D02D4BDB79D9B25D
:1029F0002C4B1B780133402B28BF00232A4A127826
:102A0000D2B29A4204D0294AD154D9B2254A11707F
:102A1000274A116869B1274A1278D2B293422EBF71
:102A2000C2EB0303C2F140029B18272BC4BF012352
:102A30000B701B4BDB78DBB213F0800F1CD0184AF5
:102A4000127912F0800F17D01B4A1178C9B2194AB7
:102A50001278D2B2914203D16C21114AD1700BE0AD
:102A60000132282A28BF00221449885CC0B20C49D0
:102A7000C871D2B20F490A7013F0400F0ED0084B44
:102A80001B7913F0400F09D000220D4B1A700D4B2B
:102A90001B6803B11A702C22014BDA70704700BF1B
:102AA00000C00640008FFF1F958EFF1FC08EFF1FC6
:102AB000908EFF1F018FFF1F088FFF1F988EFF1F33
:102AC000948EFF1F048FFF1F00B585B072B61B4B9D
:102AD00070221A7041211A4A11700F21013A1170A7
:102AE00080221A701A46137813F0800FFBD0154B12
:102AF000186862B6144B98429CBF00EB80004000FF
:102B000001A90A2200F038FB9DF804307BB908E0E7
:102B100001A9595C31B19180023201330A2BF7D1FE
:102B200000E0002301335B00084A137003E0074A0A
:102B300053800123ECE705B05DF804FB0000024080
:102B400007000240080002407F969800FC87FF1FA4
:102B500008B503681B68C9B2984708BD08B5036883
:102B60001B68C9B2984708BD08B503681B68C9B29D
:102B7000984708BD08B503681B68C9B2984708BDE7
:102B800008B54B0803F1B76000F55840B0FBF1F011
:102B9000FEF7D8FD08BD00BF10B514464B0803F181
:102BA000B76000F55840B0FBF1F0FEF7CBFD2046D2
:102BB000FEF730FE10BD00BF08B5FEF75BFE08BD96
:102BC00008B50846FEF790FE08BD00BF08B50846E8
:102BD000FEF7E4FE08BD00BF08B508461146FEF743
:102BE0009FFE08BD08B50846FEF704FF003018BF79
:102BF000012008BD08B50846FEF71EFF003018BFCB
:102C0000012008BD08B5FFF717F808BD08B5FFF7A4
:102C10005DF808BD08B5FFF71FF808BD08B5FEF759
:102C2000E9FF08BD08B5FFF76BF808BD08B5FEF76A
:102C3000F1FF08BD08B50846FEF72AFF012008BDD0
:102C400008B50846FEF724FF012008BD10B514465C
:102C500008461146FEF76CFF204610BD38B50D46FC
:102C6000084600F0D7FD044628462146FEF760FFDF
:102C7000204638BD704700BF044B00221A714FF444
:102C80007A7199601A73024A1A6070470C8FFF1F9D
:102C9000E03A000008B503681B68C9B2984708BD50
:102CA00008B503681B68C9B2984708BD08B5036832
:102CB0001B68C9B2984708BD08B503681B68C9B24C
:102CC000984708BD08B54B0803F1B76000F55840B8
:102CD000B0FBF1F0FFF7CAF808BD00BF10B514460D
:102CE0004B0803F1B76000F55840B0FBF1F0FFF777
:102CF000BDF82046FFF722F910BD00BF08B5FFF769
:102D00004DF908BD08B50846FFF782F908BD00BFB8
:102D100008B50846FFF7D6F908BD00BF08B5084654
:102D20001146FFF791F908BD08B50846FFF7F8F915
:102D3000003018BF012008BD08B50846FFF712FA99
:102D4000003018BF012008BD08B5FFF701FB08BD22
:102D500008B5FFF747FB08BD08B5FFF709FB08BD3D
:102D600008B5FFF7D3FA08BD08B5FFF755FB08BD56
:102D700008B5FFF7DBFA08BD08B50846FFF714FAF7
:102D8000012008BD08B50846FFF70EFA012008BD6E
:102D900010B5144608461146FFF756FA204610BDF6
:102DA00038B50D46084600F035FD04462846214654
:102DB000FFF74AFA204638BD704700BF044B002297
:102DC0001A714FF47A7199601A73024A1A60704747
:102DD0001C8FFF1F403B000008B503681B68C9B289
:102DE000984708BD08B503681B68C9B2984708BD75
:102DF00008B503681B68C9B2984708BD08B50368E1
:102E00001B68C9B2984708BD08B54B0803F1B76005
:102E100000F55840B0FBF1F0FFF7B4FB08BD00BF70
:102E200010B514464B0803F1B76000F55840B0FBED
:102E3000F1F0FFF7A7FB2046FFF7E6FB10BD00BF50
:102E400008B5FFF711FC08BD08B50846FFF746FCBA
:102E500008BD00BF08B50846FFF788FC08BD00BFE5
:102E600008B508461146FFF755FC08BD08B50846E9
:102E7000FFF77EFC003018BF012008BD08B50846EA
:102E8000FFF798FC003018BF012008BD08B5FFF718
:102E900031FD08BD08B5FFF777FD08BD08B5FFF7A0
:102EA00039FD08BD08B5FFF703FD08BD08B5FFF7FC
:102EB00085FD08BD08B5FFF70BFD08BD08B5084640
:102EC000FFF79AFC012008BD08B50846FFF794FCFF
:102ED000012008BD10B5144608461146FFF7DCFC7A
:102EE000204610BD38B50D46084600F093FC044658
:102EF00028462146FFF7D0FC204638BD704700BF6A
:102F0000044B00221A714FF47A7199601A73024AC5
:102F10001A6070472C8FFF1FA03B000008B50122EC
:102F2000024B1A60024B1B68984708BD0C710340A6
:102F3000448FFF1F08B50122024B1A60024B5B68E9
:102F4000984708BD1C710340448FFF1F08B501223C
:102F5000024B1A60024B9B68984708BD2C710340D6
:102F6000448FFF1F08B50122024B1A60024BDB6839
:102F7000984708BD3C710340448FFF1F054B1A68FA
:102F800042F400021A600022034B1A600122034B34
:102F90001A7070473C80044000700340408FFF1F50
:102FA0000122064B1A6003F588333C331A6822F479
:102FB00000021A600022024B1A7070470070034032
:102FC000408FFF1F10B442781401164B2344436016
:102FD000154B234483600369144C44F82230836802
:102FE00000221A6043681960836803221A604378DC
:102FF0004433DBB2037303F1604303F56443427B64
:103000001A70027B53119B0003F1604303F5614387
:1030100002F01F02012101FA02F21A605DF8044B6E
:10302000704700BF0071034008710340448FFF1FC9
:1030300070B504460D46134B1B780BB9FFF79EFF86
:10304000114B1B788BB1104B5B7843B10E4B9B78C7
:1030500043B10D4BDB789BB903231E4607E00123E8
:103060001E4604E002231E4601E00026334663703C
:1030700020462946FFF7A6FF0120034B985570BD57
:10308000002070BD408FFF1F3C8FFF1F10B583686D
:1030900000221A60037B5C1103F01F03012101FA77
:1030A00003F30A4941F82430094B41785A541B78FC
:1030B00053B9074B5B783BB9054B9B7823B9044B5D
:1030C000DB780BB9FFF76CFF10BD00BF80E100E0BB
:1030D0003C8FFF1F70B504460E46154603781BB1A2
:1030E000FFF7D4FF00232370266120462946FFF70F
:1030F0009FFF10B10123237001E00023237020788B
:1031000070BD00BF10B5044603780BB1FFF7BEFFDA
:103110000023237010BD00BF08B5FEF709F808BDF5
:1031200008B5FDF7B9FF08BD08B5FDF7E1FF08BD1B
:1031300008B5FEF7B1F808BD08B5FEF707F808BDF9
:1031400008B50846FEF79CF808BD00BF08B508465C
:103150001146FEF717F808BD704700BF044B002268
:103160001A714FF47A7199601A73024A1A607047A3
:10317000548FFF1F003C000030B40023B0FBF2F47A
:1031800002FB14041D46092C94BF30343734E4B2DA
:10319000CC54B0FBF2F008B10133EFE70D4400224C
:1031A0006A70934207DD885CCC5C8C54C854013251
:1031B000013B9A42F7DB084630BC704780F0004084
:1031C00002E000BF81F0004142001FBF5FEA4103FF
:1031D00092EA030F7FEA226C7FEA236C6AD04FEAFF
:1031E0001262D2EB1363C1BFD21841404840414044
:1031F000B8BF5B42192B88BF704710F0004F40F4F6
:10320000000020F07F4018BF404211F0004F41F411
:10321000000121F07F4118BF494292EA030F3FD0DD
:10322000A2F1010241FA03FC10EB0C00C3F12003F0
:1032300001FA03F100F0004302D5494260EB40007F
:10324000B0F5000F13D3B0F1807F06D340084FEAEA
:10325000310102F10102FE2A51D2B1F1004F40EBDF
:10326000C25008BF20F0010040EA03007047490047
:1032700040EB000010F4000FA2F10102EDD1B0FA12
:1032800080FCACF1080CB2EB0C0200FA0CF0AABF07
:1032900000EBC25052421843BCBFD04018437047A5
:1032A00092F0000F81F4000106BF80F400000132AB
:1032B000013BB5E74FEA41037FEA226C18BF7FEA82
:1032C000236C21D092EA030F04D092F0000F08BFC4
:1032D0000846704790EA010F1CBF0020704712F0AB
:1032E0007F4F04D1400028BF40F00040704712F1EA
:1032F00000723CBF00F50000704700F0004343F04F
:10330000FE4040F4000070477FEA226216BF084684
:103310007FEA23630146420206BF5FEA412390EA47
:10332000010F40F4800070474FF0000304E000BF3D
:1033300010F0004348BF40425FEA000C08BF7047EE
:1033400043F0964301464FF000001CE050EA0102B2
:1033500008BF70474FF000030AE000BF50EA0102C7
:1033600008BF704711F0004302D5404261EB4101B4
:103370005FEA010C02BF84460146002043F0B643D9
:1033800008BFA3F18053A3F50003BCFA8CF2083AFE
:10339000A3EBC25310DB01FA02FC634400FA02FC07
:1033A000C2F12002BCF1004F20FA02F243EB02000E
:1033B00008BF20F00100704702F1200201FA02FC70
:1033C000C2F1200250EA4C0021FA02F243EB020063
:1033D00008BF20EADC7070474FF0FF0C1CEAD052A7
:1033E0001EBF1CEAD15392EA0C0F93EA0C0F6FD068
:1033F0001A4480EA010C400218BF5FEA41211ED046
:103400004FF0006343EA501043EA5111A0FB013131
:103410000CF00040B1F5000F3EBF490041EAD37106
:103420005B0040EA010062F17F02FD2A1DD8B3F182
:10343000004F40EBC25008BF20F00100704790F0F1
:10344000000F0CF0004C08BF49024CEA502040EA43
:1034500051207F3AC2BFD2F1FF0340EAC250704709
:1034600040F400004FF00003013A5DDC12F1190F47
:10347000DCBF00F000407047C2F10002410021FAB9
:1034800002F1C2F1200200FA02FC5FEA310040F1D1
:10349000000053EA4C0308BF20EADC70704792F04A
:1034A000000F00F0004C02BF400010F4000F013A82
:1034B000F9D040EA0C0093F0000F01F0004C02BF7D
:1034C000490011F4000F013BF9D041EA0C018FE7EC
:1034D0000CEAD15392EA0C0F18BF93EA0C0F0AD0F2
:1034E00030F0004C18BF31F0004CD8D180EA010018
:1034F00000F00040704790F0000F17BF90F0004FB1
:10350000084691F0000F91F0004F14D092EA0C0F92
:1035100001D142020FD193EA0C0F03D14B0218BF25
:10352000084608D180EA010000F0004040F0FE406B
:1035300040F40000704740F0FE4040F44000704707
:103540004FF0FF0C1CEAD0521EBF1CEAD15392EA86
:103550000C0F93EA0C0F69D0A2EB030280EA010C76
:1035600049024FEA402037D04FF0805343EA11110F
:1035700043EA10130CF000408B4238BF5B0042F16D
:103580007D024FF4000C8B4224BF5B1A40EA0C0012
:10359000B3EB510F24BFA3EB510340EA5C00B3EB44
:1035A000910F24BFA3EB910340EA9C00B3EBD10F32
:1035B00024BFA3EBD10340EADC001B0118BF5FEA84
:1035C0001C1CE0D1FD2A3FF650AF8B4240EBC250AD
:1035D00008BF20F0010070470CF0004C4CEA50206E
:1035E0007F32C2BFD2F1FF0340EAC250704740F4BD
:1035F00000004FF00003013A37E792F0000F00F0AF
:10360000004C02BF400010F4000F013AF9D040EA2C
:103610000C0093F0000F01F0004C02BF490011F4C0
:10362000000F013BF9D041EA0C0195E70CEAD153B8
:1036300092EA0C0F08D142027FF47DAF93EA0C0F9F
:103640007FF470AF084676E793EA0C0F04D14B0283
:103650003FF44CAF08466EE730F0004C18BF31F035
:10366000004CCAD130F000427FF45CAF31F000432F
:103670007FF43CAF5FE700BF4FF0FF3C06E000BFC8
:103680004FF0010C02E000BF4FF0010C4DF804CDEB
:103690004FEA40024FEA41037FEA226C18BF7FEAFB
:1036A000236C11D001B052EA530C18BF90EA010FFD
:1036B00058BFB2EB030088BFC81738BF6FEAE1708C
:1036C00018BF40F0010070477FEA226C02D15FEA28
:1036D000402C05D17FEA236CE4D15FEA412CE1D094
:1036E0005DF8040B704700BF844608466146FFE75B
:1036F0000FB5FFF7C9FF002848BF10F1000F0FBD3D
:103700004DF808EDFFF7F4FF0CBF012000205DF835
:1037100008FB00BF4DF808EDFFF7EAFF34BF0120BA
:1037200000205DF808FB00BF4DF808EDFFF7E0FF53
:1037300094BF012000205DF808FB00BF4DF808EDA4
:10374000FFF7D2FF94BF012000205DF808FB00BF07
:103750004DF808EDFFF7C8FF34BF012000205DF8E9
:1037600008FB00BF42000ED2B2F1FE4F0BD34FF068
:103770009E03B3EB126209D44FEA002343F00043E7
:1037800023FA02F070474FF00000704712F1610F0A
:1037900001D1420202D14FF0FF3070474FF00000DC
:1037A000704700BF03460846194600F001B800BF45
:1037B00010B40C4613460146224602205DF8044B25
:1037C00000F058B870B50F4E0F4D761BB61007D0ED
:1037D000043D0024013455F8043F9847A642F9D12E
:1037E0000A4E0B4D761B00F01FFAB61008D0043DB0
:1037F0000024013455F8043F9847A642F9D170BD22
:1038000070BD00BF343C0000343C0000503C000060
:10381000343C000020F0030110F00300C0F1000070
:1038200051F8043B00F1040C4FEACC0C6FF000029D
:103830001CBF22FA0CF213434FF0010C4CEA0C2C83
:103840004CEA0C4CA3EB0C0222EA030212EACC1263
:1038500004BF51F8043B0430F4D013F0FF0F1FBF36
:10386000013013F47F4F013013F47F0F18BF013084
:10387000704700BFF0B5274C2668D6F8484185B0A0
:103880000746002C41D065681F2D1EDD224818B95F
:103890004FF0FF3005B0F0BD4FF4C87003910292B5
:1038A0000193AFF300800399029A019B044600281C
:1038B000EED0D6F848512560002060600546C6F875
:1038C0004841C4F88801C4F88C013FB9AB1C002002
:1038D0000135656044F8231005B0F0BD04EB8500A8
:1038E0004FF0010CC0F88820D4F888610CFA05F27A
:1038F0001643022FC4F88861C0F80831E6D1D4F825
:103900008C311A43C4F88C21E0E706F5A674C6F89A
:103910004841B8E7243C000000000000024B13B10E
:10392000024800F005B87047000000003D39000073
:103930000146002002460346FFF79CBF38B5094DFB
:10394000094C641BA41018BF05EB840505D0013C8D
:1039500055F8043D9847002CF9D1BDE8384000F0F7
:1039600077B900BF00000000000000004008FE43DF
:1039700040A004404408FE4344A004400018FE4315
:1039800000C004403000FE43309004403400FE4349
:10399000349004401C18FE431CC004401018FE4321
:1039A00010C004400818FE4308C004400C18FE4331
:1039B0000CC004400C10FE430CB004401010FE4339
:1039C00010B004401810FE4318B004401C10FE4311
:1039D0001CB004401410FE4314B004400418FE430D
:1039E00004C004400010FE4300B004400008FE4341
:1039F00000A004400408FE4304A004400C08FE4359
:103A00000CA004400808FE4308A004401418FE431C
:103A100014C004401818FE4318C004400410FE43AC
:103A200004B004400810FE4308B004401400FE43F4
:103A3000149004404C08FE434CA004400420FE4374
:103A400004D004402410FE4324B004402010FE4360
:103A500020B004402810FE4328B004402C10FE4340
:103A60002CB004400020FE4300D004404808FE4330
:103A700048A004401000FE431090044000151915A2
:103A8000000100007087FF1F12000000000200000C
:103A90009C87FF1F4300000000030000F887FF1F02
:103AA00000000000010309048487FF1F00000000DC
:103AB00002030904E087FF1F00000000030309045C
:103AC000FC87FF1F00000000000000000000000055
:103AD00000000000FFFFFFFF0000000000000000EA
:103AE000352C00004D2C0000052C0000152C00008A
:103AF0000D2C00001D2C0000812B0000992B0000D4
:103B0000B92B0000C12B0000CD2B0000D92B0000E9
:103B1000E52B0000F52B0000252C00002D2C0000CB
:103B2000512B00005D2B0000692B0000752B00005D
:103B30005D2C0000412C000000000000000000008F
:103B4000792D0000912D0000492D0000592D000015
:103B5000512D0000612D0000C52C0000DD2C00005F
:103B6000FD2C0000052D0000112D00001D2D000072
:103B7000292D0000392D0000692D0000712D000055
:103B8000952C0000A12C0000AD2C0000B92C0000E9
:103B9000A12D0000852D00000000000000000000A5
:103BA000BD2E0000D52E00008D2E00009D2E0000A1
:103BB000952E0000A52E0000092E0000212E0000E9
:103BC000412E0000492E0000552E0000612E0000FD
:103BD0006D2E00007D2E0000AD2E0000B52E0000E1
:103BE000D92D0000E52D0000F12D0000FD2D000075
:103BF000E52E0000C92E00000000000000000000BB
:103C0000413100004D310000193100002131000028
:103C1000293100003131000039310000000000007E
:103C2000430000001888FF1FF8B500BFF8BC08BCAF
:103C30009E4670471D390000350400001515000030
:103C4000792C0000BD2D0000012F00005D31000027
:043C5000F8B500BF04
:103C540000000000FFFFFFFFFF0A0401090A08003B
:103C64001201010102000040C01683040002010297
:103C74000301000018035400650065006E00730022
:103C840079006400750069006E006F00090243004A
:103C9400020100C0320904000001020201000524EF
:103CA4000010010524010101042402060524060074
:103CB400010705820310004009040100020A000004
:103CC40000070503024000000705840240000000CD
:103CD4001603550053004200200053006500720093
:103CE400690061006C000000040309040C03000077
:103CF40000000000000000000000000000000000C0
:103D0400000000000000000000000000048BFF1F02
:103D14006C8BFF1FD48BFF1F00000000000000000D
:103D2400000000000000000000000000000000008F
:103D3400000000000000000000000000203C000023
:103D4400000000000000000000000000000000006F
:103D5400000000000000000000000000000000005F
:103D6400000000000000000000000000000000004F
:103D7400000000000000000000000000000000003F
:103D8400000000000000000000000000000000002F
:103D9400000000000000000000000000000000001F
:103DA400000000000000000000000000000000000F
:103DB40001000000000000000E33CDAB34126DE6AC
:103DC400ECDE05000B000000000000000000000015
:103DD40000000000000000000000000000000000DF
:103DE40000000000000000000000000000000000CF
:103DF40000000000000000000000000000000000BF
:103E040000000000000000000000000000000000AE
:00000001FF
