:1000000000800020BD010000591F00001D1F0000DE
:100010001D1F00001D1F00001D1F00001D1F0000F0
:100020001D1F00001D1F00001D1F0000591F0000A4
:10003000591F00001D1F0000591F00000D1F000068
:10004000591F0000591F0000591F0000591F0000D0
:10005000591F0000591F0000591F0000591F0000C0
:10006000591F0000591F0000591F0000591F0000B0
:10007000591F0000591F0000591F0000591F0000A0
:10008000591F0000591F0000591F0000591F000090
:10009000591F0000591F0000591F0000591F000080
:1000A000591F0000591F0000591F0000591F000070
:1000B000591F0000591F0000591F0000591F000060
:1000C000591F0000591F0000591F0000591F000050
:1000D000591F0000591F0000591F0000591F000040
:1000E000591F0000591F0000591F0000591F000030
:1000F000591F0000B9250000591F0000D12C000035
:10010000591F00004D320000591F0000591F000008
:10011000591F0000591F0000591F0000591F0000FF
:10012000591F0000591F0000591F0000591F0000EF
:10013000591F0000591F0000591F0000591F0000DF
:10014000591F0000591F0000591F0000591F0000CF
:10015000591F0000591F0000591F0000591F0000BF
:10016000591F000045110000591F0000591F0000D1
:10017000591F0000591F0000591F0000591F00009F
:10018000591F0000591F0000591F0000591F00008F
:10019000591F0000591F0000591F0000591F00007F
:1001A000591F0000591F0000591F0000591F00006F
:1001B000591F0000591F0000591F0000574B4CF2F7
:1001C000205210B51A804DF628121A8000BF00BFC9
:1001D00001F0C6FE524B4FF010621A60514A9A600D
:1001E000514ADA60A3F53043203B1A6812F480725A
:1001F00004D14E490A604FF4A8521A604C4B1A7849
:10020000110703D51A7842F008021A70494B4A4C7C
:100210004A482A221A704A4A00239918A14203D256
:10022000195899500433F8E7464B474900228B424E
:1002300002D243F8042BFAE74448454900235A58B0
:100240001A500433B3F5DE7FF9D1424B424A802184
:1002500003F8011B9342FBD1404B3C4A1A60404BD0
:100260000A221A70A3F5805324225A70A0221A7011
:100270009A799207FCD59A79D406FCD4394A9379B5
:1002800003F00C03082B374BF9D103221A714022DB
:100290005A719A799006FCD5324A9179314B4906C8
:1002A000FBD5314A314911600221516020221A7078
:1002B0009A7902F00C020C2AFAD12D4B2D4A1A60C1
:1002C0002D4B4BF67F321A6000225A60072243F80A
:1002D000042C2A4AC3F80C2D62B600F0F3FD134B30
:1002E0001B68DA0705D5264800F08CFB254B264A0B
:1002F0001A60264B1B785B0609D5224C224A2368DC
:10030000934204D11E4800F07DFB0023236003F0DC
:10031000DFFC01F02BFE01F029FDFEE70E20054079
:1003200030800440823F04000100002B14D00340C1
:1003300002D0074000E00740408CFF1FF041000062
:100340006087FF1F408CFF1F1093FF1F0082FF1F5D
:100350000000000000E400E05FE400E008ED00E0E1
:100360000050064000400640448004400000131145
:1003700004800440C010050014E000E000002020CC
:100380007461DA571CE00340A5C3945A00F007409B
:10039000FFFFFFFFFFFFFFFFFFFFFFFFFFFFFFFF6D
:1003A000FFFFFFFFFFFFFFFFFFFFFFFFFFFFFFFF5D
:1003B000FFFFFFFFFFFFFFFFFFFFFFFFFFFFFFFF4D
:1003C000FFFFFFFFFFFFFFFFFFFFFFFFFFFFFFFF3D
:1003D000FFFFFFFFFFFFFFFFFFFFFFFFFFFFFFFF2D
:1003E000FFFFFFFFFFFFFFFFFFFFFFFFFFFFFFFF1D
:1003F000FFFFFFFFFFFFFFFFFFFFFFFFFFFFFFFF0D
:10040000FFFFFFFFFFFFFFFFFFFFFFFFDEF9FFFF23
:1004100010B5054C237833B9044B13B10448AFF33E
:1004200000800123237010BD408CFF1F00000000DE
:10043000F041000008B5064B1BB106480649AFF372
:1004400000800648036813B1054B03B1984708BD07
:1004500000000000F0410000448CFF1F408CFF1F93
:100460000000000010B584B00720012100F0AAFBB5
:100470000820012100F0A6FB1420012100F0A2FBBE
:100480001520012100F09EFB0520012100F09AFBC0
:100490000320012100F096FB0420012100F092FBD3
:1004A0000620012100F08EFB0A2000F0BBFA124C5E
:1004B0000420214600F0C2FA0620214600F0BEFAD0
:1004C00002230093DC2301930C4C02940C484FF45C
:1004D000E1310022012300F0C5F84FF4E1300021A2
:1004E000012200F08FF8204600214FF45C7203F0E7
:1004F00017FC04B010BD00BF00E0AB465C8CFF1FD2
:100500002891FF1F00B583B000F050F93C4B1B68E9
:1005100023B10720002100F031FB03E00720012177
:1005200000F02CFB364B5B6823B10820002100F063
:1005300025FB03E00820012100F020FB304B9B68E5
:1005400023B11420002100F019FB03E01420012145
:1005500000F014FB2A4BDB6823B11520002100F0CA
:100560000DFB03E01520012100F008FB244B1B6963
:1005700023B10520002100F001FB03E0052001214B
:1005800000F0FCFA1E4B5B6923B10320002100F050
:10059000F5FA03E00320012100F0F0FA184B1B6983
:1005A0007BB1174B986960B140F2FF330093002193
:1005B00064220B4601F0CCFB0146042000F052FB04
:1005C00003E00420002100F04DFB0D4B5B697BB183
:1005D0000B4BD86960B140F2FF33009300216422D5
:1005E0000B4601F0B5FB0146062000F03BFB03E0A3
:1005F0000620002100F036FB03B05DF804FB00BFCD
:100600005C8CFF1F70B504460E4615460F4B1868EC
:100610000368DB692146324698470D4B1D70B4F5DF
:10062000964F08DD40F2EE220A4B1A6040F2D66285
:10063000094B1A6070BD094A92FBF4F2054B1A602F
:10064000074B93FBF4F4044B1C6070BD2890FF1F14
:100650002490FF1F2090FF1F1490FF1FC0E1E400B3
:10066000C00E160238B59DF810500D4C206008469B
:1006700011461A46FFF7C6FF0A4A059B13600A4A4D
:10068000069B1360094C25702846012100F09AFA58
:100690002078002100F072FA0022054B1A6038BD64
:1006A0002890FF1F1890FF1FCC8FFF1FD08FFF1FB8
:1006B0002C90FF1F70B4C8B1104B5C1E421E53FA41
:1006C00082F64FF6FF7308254AF2010014F8012F55
:1006D00053402A4603F001015B0801B14340013A4F
:1006E00012F0FF02F6D1B442F0D101E04FF6FF73F1
:1006F0001A0242EA132080B270BC7047D48FFF1FE9
:1007000070B50546124B1878012100F037FA6DB12B
:10071000104B5C1E013D53FA85F60F4D28680368A7
:100720001B6814F8011F9847B442F7D10A4B1868A8
:1007300003685B699847094B1B681B0102D0013BAA
:100740007FF4FDAF024B1878002100F017FA70BD5E
:10075000D08FFF1FD48FFF1F2890FF1F1490FF1F03
:1007600010B50D4B1A6801321A600C4B1B7893B907
:100770000B4C0C4B1B7823700B4B1B7863F07F03E7
:100780006370A0700320FFF795FF030AE3702071E8
:100790000520FFF7B5FF10BD2C90FF1F1C90FF1F19
:1007A000D48FFF1F2490FF1F1D90FF1F2DE9F041E4
:1007B0008B4B186803689B689847002800F00C81F1
:1007C00000263446864DDFF82482864F17E026B196
:1007D00028680368DB6898470BE0402C14BF0026AC
:1007E000012628680368DB68984708F8040001348C
:1007F000E4B23B681B0102D0013B7FF4FDAF2868E7
:1008000003689B6898470028E1D12EB1764B1868A1
:10081000421C1A60BDE8F081072C40F2D580734B72
:100820001B781BB10021724A117002E00121704A4D
:100830001170704A1578AB4204D06D4B1B78002BB9
:1008400000F0CA802646A01EC0B2FFF733FF674BF8
:100850001C4414F8022C14F8013C43EA022383429E
:1008600040F0AD80614B5A7863490A709878D97826
:1008700041EA002118795B7943EA00235C185C485F
:10088000007800283CD1032A3AD15C4A1268914290
:1008900032D294422CD85B00DFB27E1DF6B2534BAD
:1008A0001D709F70CBB219469C4212D9544AD2F89F
:1008B00000E003224D4D5EF82110080AA854501C98
:1008C000C0B229540232D2B20133DBB219469C4283
:1008D000F1D8F81CC0B2FFF7EDFE444B3344020AD6
:1008E00003F8022C03F8010C3046FFF709FF73E010
:1008F0000320FFF735FF6FE00220FFF731FF6BE0C9
:10090000062A1AD13D4A1268914212D23C4A126814
:1009100042F821300620FFF7CDFE344B020A9A71CF
:10092000D871334B1B78002B56D10820FFF7E8FE17
:1009300052E00220FFF714FF4EE0102A3BD12B4B70
:100940009B79093EB34231D12C4B1B68994229D285
:100950009C4223D8C9B208468C4211D90723284F9C
:10096000224AD5186D78D65C45EA06263D6845F8DA
:1009700020600233DBB20131C9B208468C42F0D8A4
:100980000620FFF797FE194B020A9A71D871184B8F
:100990001B780BBB0820FFF7B3FE1DE00320FFF719
:1009A000DFFE19E00220FFF7DBFE15E00E4B1A68B0
:1009B00001321A6010E00120FFF7D2FE0CE00A4B72
:1009C0001A6801321A6007E0013CE4B2062C03D831
:1009D000054B1A6801321A60034B1868BDE8F081B4
:1009E0002890FF1F2090FF1F2C90FF1FD48FFF1F08
:1009F0001C90FF1F2490FF1F1D90FF1F1890FF1FCA
:100A0000CC8FFF1F044B00221A6004490A60044A7D
:100A1000106010221A60704714D0034004D00340C5
:100A200000D0034018B1102828BF102000E001209A
:100A3000014B1870704700BF6087FF1F2DE9F84316
:100A400080460D460846424903F0FAF8002814BFD4
:100A50004FF002094FF001093E4B47F612260028DD
:100A600008BF1E46304602F0F5FE4FF05E5102F020
:100A700049FF0146284603F0F7F890B901244FF0EA
:100A80005E5726FA04F002F0E5FE394602F03AFF1E
:100A90000146284603F0E8F820B90134072CF0D1CC
:100AA00000E0002426FA04F002F0D4FE294602F009
:100AB000DDFF4FF07C5102F01BFE03F0E9F84FF62A
:100AC000FF73984238BF0346A8F10302D2B2012A4D
:100AD0000DD8214A002111602048016020490B6097
:100AE00004F0070444EAC9041460BDE8F883A8F1DF
:100AF0000902D2B2012A09D9A8F11402D2B2032AFA
:100B000004D9A8F10502D2B2012A0DD8154A002154
:100B100011601548016015490B6004F0070444EAB0
:100B2000C9041460BDE8F883B8F1200F02D0B8F111
:100B3000190F0BD10E4A002111600E4801600E49B9
:100B40000B6004F0070343EAC9031360BDE8F883B0
:100B5000001BB740006CDC0200900340049003408F
:100B60000890034000800340048003400880034055
:100B700000800B4004800B4008800B4021281ED8C9
:100B80000F4B53F8303093F8802212F0FF0F08D04B
:100B900019B1012283F880207047012283F80021D7
:100BA0007047074B03EBC000436821B11A6842F05D
:100BB00003021A6070471A6822F002021A60704736
:100BC0000C3F000021284AD8254B03EBC0035B688B
:100BD000012911D004291DD0214A52F830200020CB
:100BE00082F8800200292FD0022931D003291FD09A
:100BF00040F203121A607047194A52F8302001215E
:100C000082F880124FF4A2721A601A6822F0200251
:100C10001A607047124A52F83020012182F880127F
:100C20004FF4A2721A601A6842F020021A607047EC
:100C30004FF480721A601A6842F002021A601A6851
:100C400022F001021A6070474FF480721A607047F8
:100C50004FF480721A601A6842F003021A607047FB
:100C60000C3F000010B5044628280FD15D4B1B78BF
:100C70000B2B03D8C3F10C03994003E00C2B84BF6A
:100C80000C3B1941084601F025F910BD554B1B7866
:100C9000012202FA03F0002908DC20460021FFF7B8
:100CA0006DFF20460121FFF78DFF10BD0A468842E7
:100CB00008D820460121FFF761FF20460121FFF7F8
:100CC00081FF10BDE01EC0B2012806D8464800686A
:100CD00000FB011222FA03F310E0202C01D0192CA2
:100CE00006D14248006800FB022222FA03F305E025
:100CF0003F48006800FB011222FA03F3E01E1D28A2
:100D000064D8DFE800F0474E402B63631D24636323
:100D10006363636363636332390F16635C636363A6
:100D200063636355334A136040F24442324B1A60A6
:100D300010BD324A136040F24442314B1A6010BD7C
:100D4000304A136040F244422F4B1A6010BD2F4AC4
:100D5000136040F244422E4B1A6010BD2D4A1360BE
:100D600040F244422C4B1A6010BD2C4A136040F2F2
:100D700044422B4B1A6010BD2A4A136040F2444291
:100D8000294B1A6010BD294A136040F24442284B97
:100D90001A6010BD274A13604FF45172264B1A6037
:100DA00010BD264A13604FF45172254B1A6010BDD6
:100DB000244A13604FF45172234B1A6010BD234A2A
:100DC00013604FF45172224B1A6010BD20467F29E8
:100DD000D4BF00210121FFF7D1FE20460121FFF7FA
:100DE000F1FE10BD6087FF1F0890034008800B4094
:100DF000088003401080034004B004401880034082
:100E000008B00440208003400CB004402880034018
:100E100010B004403080034010C0044038800340CC
:100E200014C004404080034018C004404880034080
:100E30001CC00440109003403090044018900340C0
:100E40003490044010800B4048A0044018800B40B0
:100E50004CA0044072B60C4B1B680C4A12680C493B
:100E6000096862B611F0806F02D0322B88BF013260
:100E7000C3F53B437F330749A1FB03035B094FF4F1
:100E80007A7000FB0230704718E000E03090FF1FDE
:100E900004ED00E0ABAAAAAA38B50546FFF7DAFFD1
:100EA000044625B938BD013D0AD004F57A74FFF730
:100EB000D1FF001BB0F57A7FF5D200F05FFFF6E7B7
:100EC00038BD00BF10B5264B4FF400021A604FF03A
:100ED00080721A604FF000721A604FF080621A60E0
:100EE0004FF000621A6000201E4B18604BF6FF7135
:100EF0000433196028231C4A136008321360083237
:100F0000136008321360083213600832136008322D
:100F10001360083213600922144C226004F58054D7
:100F200004342060043421600434236008342360D6
:100F3000143C226004F5FE24043420600C48016057
:100F40000C490B6008310B600B4B1A6000F038FF46
:100F50004FF4C870FFF7A0FF00F074FC10BD00BF95
:100F600008E100E0048003400C800340008003405F
:100F700008800B400C800B4000800B4030B40E4BBF
:100F80001B7843F002020D4C04EBC20460600C4875
:100F9000007800280CBF8824C82444EA0141074D8A
:100FA00045F8321080F00100054A107083F001030B
:100FB000014A137030BC70479C90FF1F0080FF1FD8
:100FC0001591FF1F10B4431E032B11D872B60A4AA5
:100FD00052F8230050B14268074941F82320074ADC
:100FE00032F813400188611A22F8131062B600E04B
:100FF00000205DF8044B70478C90FF1FFC92FF1F90
:10100000013803280DD872B6074B53F820302BB1A6
:10101000002001305B68002BFBD100E0002062B6AD
:1010200070470020704700BFE090FF1F38B572B6D0
:1010300001231B491B4C5A1812F8012C12F0080FFF
:1010400024D09A0054F832506DB9164B03EBC2010C
:1010500008304860144943F83210144B1A78013AAA
:101060001A7062B638BD42F0010254F832506DB9C0
:101070000C4B03EBC201083048600D4943F83210B5
:101080000A4B1A78013A1A7062B638BD0133052B43
:10109000D1D162B60022054B1A7000F037FC38BD82
:1010A000804000000080FF1F880040000A91FF1F61
:1010B000C800400010B4431E032B37D8400140F055
:1010C00010001C4A104472B61B4AD25C032A09D88D
:1010D000DFE802F019021B050830022216E0083092
:1010E000042213E0154A52F823201AB9134A42F891
:1010F000231003E0124A52F823205160104A42F8AC
:10110000231062B612E0032200E005220A4CE254EA
:1011100001F10803436000F00803002B0CBF882393
:10112000C8230A8843EA0243036062B65DF8044BB1
:10113000704700BF0080FF1F4890FF1FE090FF1F17
:10114000F090FF1F2DE9F84FA34CDFF8E092DFF895
:10115000E0A2DFF8E0B22578EDB215F0040F1DD063
:101160009E4B1B7813F0FF0F16D09D4B1B7803F09E
:10117000FF022BB1531EDBB2994A137003B900BEB4
:10118000984B1B7803F0FF0233B1531EDBB2954A34
:1011900013700BB900F016FD0423237015F0080F2F
:1011A00000F0E48299F80030DBB21D0940F02182A2
:1011B0008D4D9E0805EBC6035A6855F83630C3F3CB
:1011C0008303013B0C2B00F21082DFE813F0CB010C
:1011D000CB010E020E020E020E020E020E02E801FA
:1011E0000E020E020E020D00804913680B60526859
:1011F0004A607F4A45F8362000227E490A607A49D3
:101200000A618A6101217C4A11709BB240F28162BD
:10121000934218D8B3F5D06F2ED2B3F5817F00F08A
:101220001E8106D8802B00F0C980822B00F0CC8074
:1012300066E140F20232934200F02681B3F5A06FDE
:1012400000F062815CE142F22102934200F086816B
:1012500007D8B3F5086F00F0AB80B3F5106F11D06D
:101260004EE142F22122934200F0418142F22132CA
:10127000934200F0498143E1604B5D68002D40F0EE
:10128000188130E1594B9A78544B1A70564D05F13C
:1012900080062B6A13F0800F03D0686A083800F0CC
:1012A00035FB0835B542F4D1DFF88C81002637468E
:1012B000534AB05828B1456800F028FB0DB12846C4
:1012C000F9E700234E4973504E4AB3504E4BF05845
:1012D00028B1456800F01AFB0DB12846F9E7002354
:1012E00049497350494AB35028F8023F484BFB5CC8
:1012F000023B032B0AD8DFE803F0020602060022B5
:10130000434BDA5502E00122414BDA5501370436EE
:10131000102ECDD100223F4B1A7001253E4EDFF832
:101320001C81314F05EB080313F8013C06F8043B20
:1013300013F0080F2DD000F0C9FA48B1A90007EB4F
:10134000451200F108035360344A47F8312007E0A2
:10135000AB00002247F833202E4B1A7801321A7066
:1013600000F0B4FA58B1AB0043F0010307EBC3013E
:1013700000F108024A601E4A47F8332009E0AB003A
:1013800043F00103002247F83320224B1A78013240
:101390001A70AA0042F00201002347F8313042F0EF
:1013A000030247F8323001351D4B9E42BAD11EE28E
:1013B0000A4B1B781B4D2B700127AAE0194D002307
:1013C0002B706B700227A4E0084B9B88042B37D945
:1013D0000F22154B1A70C1E0802007401491FF1FA7
:1013E0009D90FF1F1691FF1F0080FF1F0091FF1FA0
:1013F000C80040003490FF1F1591FF1F844000007B
:101400008C90FF1F3890FF1FE090FF1FF090FF1F90
:101410004890FF1F0A91FF1FC4200740880040002A
:10142000D42007400C91FF1FC020074090200740A8
:101430009420074098200740FA92FF1F8040000048
:10144000A04A0021117051709F4A12F8233013F006
:10145000020F5CD09B4D01232B70022759E09B4B60
:101460009B8803F07F03042B02DC984A52881AB150
:101470000F22954B1A7071E0934A12F8231021F055
:10148000020102F82310B2E1904B9B8803F07F0326
:10149000042B02DC8D4A52881AB10F228A4B1A7033
:1014A0005CE0894A12F8231041F0020102F823108F
:1014B0009DE1864B5E889F88854BA3F10C02114607
:1014C00033F80C0CB04209D133F80A0CB84205D1FC
:1014D000360A032E0CBF2F7817891AE00D690C33DA
:1014E0000C32002DEBD10F22774B1A7036E0794B7E
:1014F0001A68794B1A60754B9A78784B1A7076E1B6
:101500000F22714B1A7029E000273D4601E00227A7
:101510006C4D6E4BDB889F4228BF1F46402F34BF67
:101520003E46402628463146FFF728FD3544BF1B7E
:1015300003D13F2E00F2608110E0402F34BF3E46C1
:10154000402628463146FFF719FD3544BF1B01D11F
:101550003F2E03D9624B1D60624B1F8001238AF826
:10156000003042E0594B198842F22103994212D1CE
:101570005D4BD81D12F8011B03F8011F8342F9D1FE
:101580005A4B1B68862B02D10F22594B1A70002030
:101590000146FFF7F3FC574B45F8363025E0504B3A
:1015A0001E68BEB14F4FB7F80080B8F1400F34BF8E
:1015B0004546402530462946FFF7E0FCC5EB0803C9
:1015C0009BB23B800BB9402D01D1354400E0002592
:1015D000434B1D603D4B1B88B3F5A06F05D13B4BC2
:1015E00000225A709B788BF8003001238AF8003073
:1015F000B9E0414E9F0806EBC708D8F80420A2F1D5
:101600000800013DEDB213F0080F47D000F07EF95D
:101610003A4B53F825304BB35A68384941F82520E6
:1016200003F10802C8F80420354A525D032A12D893
:10163000DFE802F002060A0E0321314A51550AE0A2
:1016400002212F4A515506E005212D4A515502E04D
:1016500004212B4A515518F0080F0CBF8822C822CC
:101660001B8842EA034346F837307CE0244B5B5D3D
:10167000032B0BD8DFE803F0777702060022204B1C
:101680005A5570E001221E4B5A556CE018F0080FB5
:101690000CBF022203221A4B5A5564E056F8373029
:1016A0001B0C22F8083C002B55D0002322F8063CE6
:1016B00042F8043C134B53F825302BBB114B43F835
:1016C000250025E00C91FF1FC02007400091FF1F5F
:1016D000904000003090FF1F0C93FF1F2491FF1FCC
:1016E0003490FF1F0891FF1F0393FF1F0493FF1FF8
:1016F0009D90FF1FC80040000080FF1FE090FF1F6B
:101700004890FF1F8C90FF1F3F4B53F825305860C7
:101710003D4B43F825003D4B33F8151032F8082CAB
:101720000A4423F8152000F0D1F860B100F1080355
:10173000C8F8043018F0080F354B364A08BF134676
:1017400046F837300FE0002346F83730324B1A782E
:1017500001321A7007E018F0080F2D4B2D4A08BF10
:10176000134646F8373008232370F4E415F0010FD0
:1017700022D02A4902230B700022294B1A70294BD0
:1017800024481860284C5C6098602848D8601A612A
:101790009A610D20264B1870FF23264803700838E5
:1017A000037018300270244A13709F22234B1A7062
:1017B00001230B70BDE8F88F15F0800F05D00D22C6
:1017C0001B4B1A708022403B1A7015F0020F06D096
:1017D000184B1A78D2B21A700222083B1A7015F010
:1017E000100F0ED01022164B1A70BDE8F88F002093
:1017F0000146FFF7C3FBB1E628460021FFF7BEFB19
:10180000ACE6BDE8F88F00BF3890FF1FFC92FF1FC9
:10181000C8004000880040000A91FF1F9420074044
:101820009C90FF1F0080FF1F4C90FF1FA090FF1F88
:10183000C0200740882007408C20074084200740B4
:101840008020074008B501F075FD00231B491A46AA
:101850005A50C81842600833882BF9D1184B1A68BF
:1018600042F480221A60154BC3F30721154A117008
:10187000C3F30741143211701B0E04321370FF239F
:10188000343A137008321370783A1370012384329B
:10189000137000216C3211707C3A137070220A4B65
:1018A0001A704FF40072A3F241331A60102203F150
:1018B000C04303F5C8231A7008BD00BF0080FF1F96
:1018C000348004409C20074049E400E072B60D4B90
:1018D0001A68B2FA82F30B2B02D962B60020704765
:1018E0004FF00041D94022EA010206490A6062B67F
:1018F000054903EBC303DB00C8180022CA5042604D
:10190000704700BF6487FF1F0084FF1F08B50F4B9F
:10191000C31A0F4AA2FB03131B090B2B14D80D4A41
:1019200012783AB10C4A127812F0FF0F02D0FFF78A
:101930007DFB08BD72B6094A4FF0004121FA03F35E
:1019400011681943116062B608BD00BF0084FF1F13
:10195000398EE3380A91FF1F1491FF1F6487FF1F20
:1019600010B5134B1B6853B9124B1B7813F0FF0FC4
:1019700018D00320FFF726FB0D4B1860A8B10C4BC5
:10198000186843885A1C03441C7A03889A4206D379
:10199000FFF7BCFF0022064B1A60204610BD4280B4
:1019A000204610BD4FF0FF3010BD4FF0FF3010BD8E
:1019B0002091FF1F1491FF1F08B50D4B1B6883B9C1
:1019C0000C4B1B7813F0FF0F08D00320FFF7FAFA37
:1019D000074B186028B94FF0FF3008BD4FF0FF30BB
:1019E00008BD034B1B685A881344187A08BD00BF12
:1019F0002091FF1F1491FF1F044B9888044B1B6814
:101A00001BB11A885B88D31A18447047FC92FF1FD9
:101A10002091FF1F10B50B4B1B7813F0FF0F0FD059
:101A2000094B186820B1FFF771FF0022064B1A60BE
:101A300003242046FFF7C6FA10B1FFF767FFF8E767
:101A400010BD00BF1491FF1F2091FF1F2DE9F0472B
:101A500004460122374B1A700E46002964D0DFF885
:101A6000E080DFF8E0909A46334FD8F8003083BB2F
:101A700099F8003013F0FF0F06D100222D4B1A7099
:101A80004FF0FF30BDE8F08747F209550420FFF71B
:101A9000B7FA07280AD801238AF80030FFF716FFA3
:101AA000C8F80000A8B900238AF80030013D01D031
:101AB0003B7833B10122204B1A704FF0FF30BDE864
:101AC000F08700F05BF999F8003013F0FF0FDDD1DB
:101AD000D3E700233B70D8F800104A88C2F14005D4
:101AE000AE4238BF354602F108030B442A444A800F
:101AF000761B3DB1254414F8012B03F8012BAC42B1
:101B0000F9D100E025464B883F2B07D940230B80B5
:101B10000420FFF7CFFA0023C8F800300522074B56
:101B20001A700EB12C46A0E70020024B1870BDE8D9
:101B3000F08700BF1791FF1F1C91FF1F1691FF1F19
:101B40001891FF1F1491FF1F00B583B002AB03F87B
:101B5000010D18460121FFF779FF03B05DF804FB82
:101B600010B5144B1B7813F0FF0F21D00122124B3C
:101B70001A70124B196851B10024114B1C704B881C
:101B80000B800420FFF796FA0C4B1C600DE0FFF76A
:101B90009DFE014630B10022094B1A700420FFF768
:101BA00089FA02E00122064B1A700022024B1A70D9
:101BB00010BD00BF1491FF1F1791FF1F1891FF1F49
:101BC0001691FF1F08B50E4B1B7813F0FF0F16D1AF
:101BD0000C4B196841B14B880B800420FFF76AFA5F
:101BE0000022084B1A6008BDFFF770FE014618B1CD
:101BF0000420FFF75FFA08BD0122034B1A7008BDED
:101C00001791FF1F1891FF1F1691FF1F08B503685A
:101C10001B68C9B2984708BD08B503681B68C9B2FC
:101C2000984708BD08B503681B68C9B2984708BD46
:101C300008B503681B68C9B2984708BD08B54B08CA
:101C400003F1B76000F55840B0FBF1F000F0B0F9D7
:101C500008BD00BF10B514464B0803F1B76000F58E
:101C60005840B0FBF1F000F0A3F9204600F008FA6C
:101C700010BD00BF08B500F033FA08BD08B508462E
:101C800000F068FA08BD00BF08B5084600F0BCFACD
:101C900008BD00BF08B50846114600F077FA08BD38
:101CA00008B5084600F0DCFA003018BF012008BD76
:101CB00008B5084600F0F6FA003018BF012008BD4C
:101CC00008B500F0EFFB08BD08B500F035FC08BD15
:101CD00008B500F0F7FB08BD08B500F0C1FB08BD72
:101CE00008B500F043FC08BD08B500F0C9FB08BD0D
:101CF00008B5084600F002FB012008BD08B50846FB
:101D000000F0FCFA012008BD10B514460846114643
:101D100000F044FB204610BD38B50D46084602F0E1
:101D200049F804462846214600F038FB204638BDD5
:101D3000704700BF044B00221A714FF47A7199600A
:101D40001A73024A1A6070472891FF1F284000004A
:101D500010B4401A019CE41A04FB00F4521A94FBDC
:101D6000F2F018445DF8044B704700BF08B5FEF769
:101D700079FBFEF7C7FB00F001F8FAE708B50F4B57
:101D80001B78CBB901220D4B1A70FFF735FE08B155
:101D900001F078FC00F086FB08B1FFF7C9FF00F006
:101DA0000DFF08B101F09CFB01F0DAF908B101F078
:101DB00039FC0022014B1A7008BD00BF3891FF1F8B
:101DC00060223A4B1A70E12201331A70384B1B78AB
:101DD000082B10D1012203F1804303F56C331A6004
:101DE000132334490B6001F5FF2101F2FC710A60F5
:101DF000314A13601FE00A2B0DD139222F4B1A6094
:101E000013232C490B6001F5FF2101F2FC710A60DC
:101E1000294A13600FE00C2B0CBF35223D22274BC3
:101E20001A60122323490B6001F5FF2101F2FC71B6
:101E30000A60214A1360224B1B7833B10123214AE7
:101E4000136002F50022136005E000231D4A1360B1
:101E500002F5002213601C4B1B78012B06D880234F
:101E60001A4A136002F5002213601AE0042B06D808
:101E70008423164A136002F50022136011E0082B38
:101E800006D88523114A136002F50022136008E08A
:101E9000102B94BF862387230C4A136002F500227F
:101EA000136001220A4B1A70704700BF00400740C0
:101EB0006887FF1F0CB003400CB00B4008B0034014
:101EC0003A91FF1F20B003406987FF1F24B00340F1
:101ED0003991FF1F094B1A6842F480521A60084B6F
:101EE0001B781BB18022074B1A7002E0C022054B01
:101EF0001A7080F30C00044B188070472C8004404B
:101F00003A91FF1F21C00C4000C00C40024B1A68E0
:101F100001321A60704700BF3090FF1F08B50D4CAA
:101F2000236813F4802F01D0FFF70CF9236813F412
:101F3000806F01D000F040FB236813F4006F01D0E4
:101F400000F0C6FE236813F4805FE9D001F07EF94B
:101F5000E6E700BF3480044008B5FFF7DFFF00BFAD
:101F60001022014B1A80704700200540704700BFC7
:101F7000EFF31383ABB9EFF31083ABB9EFF3058342
:101F800023B10F2B05D9094A985C03E04FF4807008
:101F900000E00020EFF311833BB1834238BF1846C5
:101FA00070474FF0FF30704700207047F0E300E0CB
:101FB000254B1A6842F480621A600023234A13708A
:101FC000234A1370234A1370234A1370234A137051
:101FD000234B1B7813B1152B05D008E040F21332C8
:101FE000204B1A6003E040F213321F4B1A601F4B64
:101FF0001B78012B02D0052B05D008E04FF451725D
:102000001B4B1A6003E04FF451721A4B1A60C0F375
:102010004432194B1A70C0F347125A7000F01F0077
:10202000987204229A700221D9745A7588221A74FF
:102030003C22DA704022114B1A704FF40052A3F286
:1020400029331A60704700BF34800440C891FF1FD5
:102050004191FF1FD091FF1FC991FF1F4091FF1FAA
:102060008491FF1F40A0044018C004406A87FF1FEE
:1020700044A004401CC0044000A006402DE400E041
:10208000164B9B7803F0EC0300F00302134310F0AF
:10209000040F18BF43F01003104A937000F00F03B1
:1020A000042B04D11346927942F040029A710B4BF3
:1020B0005A7902F0EF0210F0100F18BF42F0100230
:1020C000064B5A719B7903F0EF0310F0200F18BFF5
:1020D00043F01003014A9371704700BF00A006400F
:1020E00010B5144B1B6813F4806F21D0124B1B7872
:1020F00013F0FF0F06D0104CFFF740FE237813F0CB
:10210000FF0FF9D14FF400520C4B1A6000230C4A18
:10211000D37040F203120B490A6004310A600A4A84
:1021200013700A4A13700A4B1B680BB101221A7014
:1021300010BD00BF348004404091FF1F84E100E0E7
:1021400000A0064040A00440C891FF1F4191FF1F1E
:102150003C91FF1F10B50446094A137813F0FF0F96
:10216000FBD120460121FEF72DFD20460021FEF780
:1021700005FD044B53F83420034B1A6010BD00BF1B
:102180004091FF1F0C3F0000CC91FF1F10B40C4684
:1021900009B140F08000184B1B78984228D0174AAC
:1021A000126812F4806F21D003F07F03012B02D05C
:1021B000052B04D006E00022114B1A6002E0002239
:1021C000104B1A60002C0CBF4422602200F07F03E9
:1021D000012B02D0052B05D008E042F44072084BD9
:1021E0001A6003E042F44072064B1A60024B18700A
:1021F0005DF8044B704700BF6A87FF1F34800440BE
:1022000044A004401CC00440114B1B7898421ED0CF
:10221000104A126812F4806F17D013B1152B04D036
:1022200006E000220C4B1A6002E000220B4B1A6001
:1022300010B1152805D008E040F21332064B1A60A1
:1022400003E040F21332054B1A60014B18707047DF
:102250008491FF1F3480044040A0044018C0044013
:1022600010B50D4B1B6813F4806F12D021280CD8C9
:102270000A4C0B4B53F8303023600121FEF7A2FCCF
:10228000236800221A70012010BD0020034B186043
:1022900010BD002010BD00BF348004403C91FF1FE2
:1022A0000C3F0000114B1B6813F4806F1BD01228E9
:1022B00004D140F202320E4B1A600DE0142804D112
:1022C00040F202320B4B1A6006E00B4B5A7B02F0D5
:1022D000FE025A7300207047074B5A7B42F00102FE
:1022E0005A73012070470020704700BF34800440BB
:1022F0000CA0044014C0044000A006402DE9F041A9
:1023000007461F4B1B6813F4806F37D01D4B1B68AB
:102310000BB101221A701C4B1C780134402C28BFD1
:1023200000241A4D1A4EDFF86C8017E0FFF720FEEC
:1023300040280FDC337913F0800F0FD02B78013356
:10234000402B28BF002318F80320D2B2F271DBB271
:102350002B7003E0FF2801DDFFF710FD2B78DBB2C7
:102360009C42E3D0FFB20B4B1F5501220A4B1A705F
:10237000E4B2054B1C70BC22054BDA70BDE8F0815D
:1023800034800440CC91FF1FD091FF1FC991FF1FE3
:1023900000A006404491FF1F4091FF1F2DE9F84F18
:1023A0000746284B1B6813F4806F49D0264B1B68E7
:1023B0000BB101221A7007EB010B5F453DD2DFF82C
:1023C0009890224EDFF88C80DFF890A099F80040BA
:1023D0000134402C28BF00243578EDB2A54220D12D
:1023E000BC2388F80330FFF7C3FD402811DC98F8C0
:1023F000043013F0800F10D033780133402B28BF06
:1024000000231AF80320D2B288F80720DBB2337019
:1024100003E0FF2801DDFFF7B1FC3378DBB29D421A
:10242000E1D017F8013B0AF804300122084B1A707A
:10243000E4B289F800405F45C8D1BC22054BDA7090
:10244000BDE8F88F34800440CC91FF1FC991FF1F75
:102450004091FF1F00A00640D091FF1F4491FF1F35
:1024600010B5064B1B7813F0FF0F06D0034CFFF797
:1024700085FC237813F0FF0FF9D110BD4091FF1FA9
:10248000064B1B78DBB2064A1278D2B293422CBFBD
:102490003F3202F1FF32D01A704700BFD091FF1FC8
:1024A000C991FF1F054B1878C0B2054B1B78DBB2F2
:1024B000984238BF4030C01A704700BFC891FF1F14
:1024C0004191FF1F10B4184B1A78D2B2174B1B78EA
:1024D000DBB29A4218D001333F2B18D81449C85C9C
:1024E000C0B2DCB211490C7012490968C9B19A42F4
:1024F00003D300E00023D31A01E04032D31A1A2B91
:102500000FDC00230B700CE04FF0FF3009E0084BAC
:102510001878C0B20021054B1970064B19680029C4
:10252000E8D15DF8044B7047C891FF1F4191FF1F30
:102530008891FF1F3C91FF1F094B1A78D2B2094BBB
:102540001B78DBB29A4207D00133402B28BF00230F
:10255000054AD05CC0B270474FF0FF30704700BFF3
:10256000C891FF1F4191FF1F8891FF1F0D4B1B68F2
:1025700013F4806F14D00C4BDA7802F0CB02DA70CF
:1025800040225A74DA7842F03402DA70074B1A7833
:10259000D2B2074B1A70074B1B680BB100221A709E
:1025A000704700BF3480044000A006404191FF1FE7
:1025B000C891FF1F3C91FF1F70B43D4B1B7913F076
:1025C000300F33D072B63A4B9B7D03F0FF022BB92C
:1025D000374BDA7940225A7462B627E062B6354B3F
:1025E0001978C9B2344B1C78E4B2314D334EEB79D3
:1025F000D8B24B1C402B28BF0023A3421CBFF05471
:102600001946531E13F0FF02F1D1CAB2294B1A70BA
:102610002B4B1B6853B1A1422EBFC4EB0101C4F187
:10262000400409192729C4BF01221A70204BDA7807
:10263000D2B212F0800F27D01B7913F0800F23D075
:10264000204B1C78E4B2204B1B78DBB29C4210D0AC
:1026500017491E4D01E0A3420BD00133402B28BF88
:1026600000230879E85CC0B2C871087DC0B20728B1
:10267000F1D9DBB214490B700D4B1B7913F0800FAD
:1026800002D07C210A4BD97012F0400F0ED0084BBB
:102690001B7913F0400F09D000220D4B1A700D4B1F
:1026A0001B6803B11A703C22014BDA7070BC704792
:1026B00000A00640C891FF1F4191FF1F8891FF1F96
:1026C0003C91FF1FD091FF1FC991FF1F4491FF1F35
:1026D0004091FF1FCC91FF1F254B1A6842F4006206
:1026E0001A600023234A1370234A1370234A13707D
:1026F000234A1370234A1370234B1B78092B02D0F3
:102700001A2B05D008E040F21332204B1A6003E088
:1027100040F213321E4B1A601E4B1B780A2B02D05C
:102720001F2B05D008E04FF451721B4B1A6003E0D9
:102730004FF45172194B1A60C0F34432184B1A709F
:10274000C0F347125A7000F01F00987204229A706A
:102750000221D9745A7588221A743C22DA704022F8
:10276000104B1A704FF40042A3F22B331A607047DB
:10277000348004404492FF1FD991FF1F4C92FF1FE9
:102780004592FF1FD891FF1F6B87FF1F0CB00440BD
:1027900004D004406C87FF1F10B0044000D00440F8
:1027A00000B006402FE400E0164B9B7803F0EC03EA
:1027B00000F00302134310F0040F18BF43F010039E
:1027C000104A937000F00F03042B04D11346927942
:1027D00042F040029A710B4B5A7902F0EF0210F06E
:1027E000100F18BF42F01002064B5A719B7903F08C
:1027F000EF0310F0200F18BF43F01003014A93714C
:10280000704700BF00B0064010B5144B1B6813F4AE
:10281000006F21D0124B1B7813F0FF0F06D0104C25
:10282000FFF7ACFA237813F0FF0FF9D14FF4004211
:102830000C4B1A6000230C4AD37040F203120B4970
:102840000A6004310A600A4A13700A4A13700A4B7C
:102850001B680BB101221A7010BD00BF3480044008
:10286000D891FF1F84E100E000B006400CB00440A6
:102870004492FF1FD991FF1FD491FF1F10B504464A
:10288000094A137813F0FF0FFBD120460121FEF710
:1028900099F920460021FEF771F9044B53F83420D2
:1028A000034B1A6010BD00BFD891FF1F0C3F000002
:1028B0004892FF1F10B40C4609B140F08000184B3D
:1028C0001B78984228D0174A126812F4805F21D0F2
:1028D00003F07F030A2B02D01F2B04D006E0002256
:1028E000114B1A6002E00022104B1A60002C0CBF42
:1028F0004422602200F07F030A2B02D01F2B05D058
:1029000008E042F44072084B1A6003E042F440725F
:10291000064B1A60024B18705DF8044B704700BFFD
:102920006C87FF1F3480044010B0044000D0044086
:10293000124B1B78984220D0114A126812F4805F23
:1029400019D0092B02D01A2B04D006E000220D4B1F
:102950001A6002E000220C4B1A60092802D01A28E3
:1029600005D008E040F21332064B1A6003E040F253
:102970001332054B1A60014B187070476B87FF1FAD
:10298000348004400CB0044004D0044010B50D4B1A
:102990001B6813F4006F12D021280CD80A4C0B4B83
:1029A00053F8303023600121FEF70CF92368002230
:1029B0001A70012010BD0020034B186010BD0020CC
:1029C00010BD00BF34800440D491FF1F0C3F0000B5
:1029D0000D4B1B6813F4006F13D017280AD140F277
:1029E00002320A4B1A600A4B5A7B42F001025A73B8
:1029F00001207047064B5A7B02F0FE025A730020FA
:102A000070470020704700BF3480044008B0044085
:102A100000B006402DE9F04107461F4B1B6813F438
:102A2000006F37D01D4B1B680BB101221A701C4B75
:102A30001C780134282C28BF00241A4D1A4EDFF8C8
:102A40006C8017E0FFF794FA40280FDC337913F01D
:102A5000800F0FD02B780133282B28BF002318F8C4
:102A60000320D2B2F271DBB22B7003E0FF2801DD4C
:102A7000FFF784F92B78DBB29C42E3D0FFB20B4B1B
:102A80001F5501220A4B1A70E4B2054B1C70BC2280
:102A9000054BDA70BDE8F081348004404892FF1F96
:102AA0004C92FF1F4592FF1F00B00640DC91FF1FB4
:102AB000D891FF1F2DE9F84F0746284B1B6813F4E8
:102AC000006F49D0264B1B680BB101221A7007EB2F
:102AD000010B5F453DD2DFF89890224EDFF88C80E5
:102AE000DFF890A099F800400134282C28BF00247A
:102AF0003578EDB2A54220D1BC2388F80330FFF72A
:102B000037FA402811DC98F8043013F0800F10D009
:102B100033780133282B28BF00231AF80320D2B2C0
:102B200088F80720DBB2337003E0FF2801DDFFF7F0
:102B300025F93378DBB29D42E1D017F8013B0AF862
:102B400004300122084B1A70E4B289F800405F4556
:102B5000C8D1BC22054BDA70BDE8F88F3480044040
:102B60004892FF1F4592FF1FD891FF1F00B00640FB
:102B70004C92FF1FDC91FF1F10B5064B1B7813F022
:102B8000FF0F06D0034CFFF7F9F8237813F0FF0F7F
:102B9000F9D110BDD891FF1F064B1B78DBB2064A56
:102BA0001278D2B293422CBF273202F1FF32D01AF0
:102BB000704700BF4C92FF1F4592FF1F054B1878CE
:102BC000C0B2054B1B78DBB2984238BF4030C01A08
:102BD000704700BF4492FF1FD991FF1F10B4184BDC
:102BE0001A78D2B2174B1B78DBB29A4218D0013355
:102BF0003F2B18D81449C85CC0B2DCB211490C7024
:102C000012490968C9B19A4203D300E00023D31ADC
:102C100001E04032D31A1A2B0FDC00230B700CE0BA
:102C20004FF0FF3009E0084B1878C0B20021054B87
:102C30001970064B19680029E8D15DF8044B7047FC
:102C40004492FF1FD991FF1F0492FF1FD491FF1FD1
:102C5000094B1A78D2B2094B1B78DBB29A4207D0E3
:102C60000133402B28BF0023054AD05CC0B2704717
:102C70004FF0FF30704700BF4492FF1FD991FF1FF4
:102C80000492FF1F0D4B1B6813F4006F14D00C4B04
:102C9000DA7802F0CB02DA7040225A74DA7842F025
:102CA0003402DA70074B1A78D2B2074B1A70074B0E
:102CB0001B680BB100221A70704700BF34800440BB
:102CC00000B00640D991FF1F4492FF1FD491FF1F0F
:102CD00070B43D4B1B7913F0300F33D072B63A4BC2
:102CE0009B7D03F0FF022BB9374BDA7940225A74EF
:102CF00062B627E062B6354B1978C9B2344B1C78FE
:102D0000E4B2314D334EEB79D8B24B1C402B28BF87
:102D10000023A3421CBFF0541946531E13F0FF02B8
:102D2000F1D1CAB2294B1A702B4B1B6853B1A14287
:102D30002EBFC4EB0101C4F1400409192729C4BF07
:102D400001221A70204BDA78D2B212F0800F27D00D
:102D50001B7913F0800F23D0204B1C78E4B2204B5A
:102D60001B78DBB29C4210D017491E4D01E0A342F4
:102D70000BD00133282B28BF00230879E85CC0B2B0
:102D8000C871087DC0B20728F1D9DBB214490B70B5
:102D90000D4B1B7913F0800F02D07C210A4BD970A8
:102DA00012F0400F0ED0084B1B7913F0400F09D0E2
:102DB00000220D4B1A700D4B1B6803B11A703C2298
:102DC000014BDA7070BC704700B006404492FF1FA0
:102DD000D991FF1F0492FF1FD491FF1F4C92FF1F38
:102DE0004592FF1FDC91FF1FD891FF1F4892FF1FE4
:102DF000174B1A6842F480521A600023154A137068
:102E0000154A1370154A1370154A1370154A13703A
:102E100040F21331144A11604FF4517104321160C1
:102E2000C0F34431114A1170C0F34711517000F0E2
:102E30001F009072937013742C23D37040220C4B9C
:102E40001A704FF40032A3F22D331A60704700BF9E
:102E500034800440C092FF1F5592FF1FC892FF1F8D
:102E6000C192FF1F5492FF1F08C0044000C00640DB
:102E700031E400E0164B9B7803F0EC0300F0030212
:102E8000134310F0040F18BF43F01003104A93705F
:102E900000F00F03042B04D11346927942F0400254
:102EA0009A710B4B5A7902F0EF0210F0100F18BF15
:102EB00042F01002064B5A719B7903F0EF0310F0B9
:102EC000200F18BF43F01003014A9371704700BFF1
:102ED00000C0064010B5144B1B6813F4805F21D06E
:102EE000124B1B7813F0FF0F06D0104CFEF746FF75
:102EF000237813F0FF0FF9D14FF400320C4B1A6016
:102F000000230C4AD37040F203120B490A600431CB
:102F10000A600A4A13700A4A13700A4B1B680BB105
:102F200001221A7010BD00BF348004405492FF1F6C
:102F300084E100E000C0064008C00440C092FF1FCA
:102F40005592FF1F5092FF1F10B50446094A13788F
:102F500013F0FF0FFBD120460121FDF733FE204681
:102F60000021FDF70BFE044B53F83420034B1A608D
:102F700010BD00BF5492FF1F0C3F0000C492FF1F02
:102F800010B40C4609B140F08000104B1B789842F9
:102F900019D00F4A126812F4805F12D003F07F0339
:102FA000082B02D100220B4B1A60002C0CBF4422CC
:102FB000602200F07F03082B03D142F44072054BDE
:102FC0001A60024B18705DF8044B70476D87FF1F45
:102FD000348004400CC00440704700BF10B50D4B56
:102FE0001B6813F4805F12D021280CD80A4C0B4BBD
:102FF00053F8303023600121FDF7E4FD23680022FF
:103000001A70012010BD0020034B186010BD002075
:1030100010BD00BF348004405092FF1F0C3F0000E1
:103020000D4B1B6813F4805F13D00E280AD140F2B9
:1030300002320A4B1A600A4B5A7B42F001025A7361
:1030400001207047064B5A7B02F0FE025A730020A3
:1030500070470020704700BF3480044004C0044023
:1030600000C006402DE9F04107461F4B1B6813F4D2
:10307000805F37D01D4B1B680BB101221A701C4BAF
:103080001C780134282C28BF00241A4D1A4EDFF872
:103090006C8017E0FEF76CFF40280FDC337913F0EB
:1030A000800F0FD02B780133282B28BF002318F86E
:1030B0000320D2B2F271DBB22B7003E0FF2801DDF6
:1030C000FEF75CFE2B78DBB29C42E3D0FFB20B4BE9
:1030D0001F5501220A4B1A70E4B2054B1C70AC223A
:1030E000054BDA70BDE8F08134800440C492FF1FC4
:1030F000C892FF1FC192FF1F00C006405892FF1FD9
:103100005492FF1F38B505460C4629B115F8010B3E
:10311000FFF7A8FF013CF9D138BD00BF10B5064B41
:103120001B7813F0FF0F06D0034CFEF727FE237821
:1031300013F0FF0FF9D110BD5492FF1F064B1B78FF
:10314000DBB2064A1278D2B293422CBF273202F188
:10315000FF32D01A704700BFC892FF1FC192FF1FF5
:10316000054B1878C0B2054B1B78DBB2984238BFCC
:103170004030C01A704700BFC092FF1F5592FF1F1A
:1031800010B4184B1A78D2B2174B1B78DBB29A42A4
:1031900018D001333F2B18D81449C85CC0B2DCB238
:1031A00011490C7012490968C9B19A4203D300E071
:1031B0000023D31A01E04032D31A1A2B0FDC00236C
:1031C0000B700CE04FF0FF3009E0084B1878C0B2EC
:1031D0000021054B1970064B19680029E8D15DF8EC
:1031E000044B7047C092FF1F5592FF1F8092FF1F34
:1031F0005092FF1F094B1A78D2B2094B1B78DBB2F1
:103200009A4207D00133402B28BF0023054AD05CE7
:10321000C0B270474FF0FF30704700BFC092FF1F31
:103220005592FF1F8092FF1F054B1A78D2B2054BB3
:103230001A70054B1B680BB100221A70704700BF53
:103240005592FF1FC092FF1F5092FF1F2F4B1B79FB
:1032500013F0200F23D02D4BDB79D9B22C4B1B78E8
:103260000133402B28BF00232A4A1278D2B29A4257
:1032700004D0294AD154D9B2254A1170274A11687D
:1032800069B1274A1278D2B293422EBFC2EB030330
:10329000C2F140029B18272BC4BF01230B701B4BAC
:1032A000DB78DBB213F0800F1CD0184A127912F0D1
:1032B000800F17D01B4A1178C9B2194A1278D2B2BE
:1032C000914203D16C21114AD1700BE00132282ABE
:1032D00028BF00221449885CC0B20C49C871D2B220
:1032E0000F490A7013F0400F0ED0084B1B7913F0F2
:1032F000400F09D000220D4B1A700D4B1B6803B113
:103300001A702C22014BDA70704700BF00C00640D3
:10331000C092FF1F5592FF1F8092FF1F5092FF1F08
:10332000C192FF1FC892FF1F5892FF1F5492FF1FA8
:10333000C492FF1F00B585B072B61B4B70221A7085
:1033400041211A4A11700F21013A117080221A701E
:103350001A46137813F0800FFBD0154B186862B62D
:10336000144B98429CBF00EB8000400001A90A2248
:1033700000F098F99DF804307BB908E001A9595C88
:1033800031B19180023201330A2BF7D100E00023E2
:1033900001335B00084A137003E0074A538001239E
:1033A000ECE705B05DF804FB0000024007000240B6
:1033B000080002407F969800FC87FF1F08B503684D
:1033C0001B68C9B2984708BD08B503681B68C9B235
:1033D000984708BD08B503681B68C9B2984708BD7F
:1033E00008B503681B68C9B2984708BD08B54B0803
:1033F00003F1B76000F55840B0FBF1F0FFF76CF94E
:1034000008BD00BF10B514464B0803F1B76000F5C6
:103410005840B0FBF1F0FFF75FF92046FFF7C4F921
:1034200010BD00BF08B5FFF7EFF908BD08B50846A5
:10343000FFF724FA08BD00BF08B50846FFF778FA81
:1034400008BD00BF08B508461146FFF733FA08BDAE
:1034500008B50846FFF79AFA003018BF012008BDEA
:1034600008B50846FFF7B4FA003018BF012008BDC0
:1034700008B5FFF7A3FB08BD08B5FFF7E9FB08BDDA
:1034800008B5FFF7ABFB08BD08B5FFF775FB08BD36
:1034900008B5FFF7F7FB08BD08B5FFF77DFB08BDD2
:1034A00008B50846FFF7B6FA012008BD08B508467A
:1034B000FFF7B0FA012008BD10B5144608461146C2
:1034C000FFF7F8FA204610BD38B50D46084600F063
:1034D00071FC044628462146FFF7ECFA204638BD29
:1034E000704700BF044B00221A714FF47A71996043
:1034F0001A73024A1A607047CC92FF1FE040000026
:1035000008B503681B68C9B2984708BD08B50368C9
:103510001B68C9B2984708BD08B503681B68C9B2E3
:10352000984708BD08B503681B68C9B2984708BD2D
:1035300008B54B0803F1B76000F55840B0FBF1F057
:10354000FFF756FC08BD00BF10B514464B0803F149
:10355000B76000F55840B0FBF1F0FFF749FC20469A
:10356000FFF788FC10BD00BF08B5FFF7B3FC08BD2E
:1035700008B50846FFF7E8FC08BD00BF08B50846D7
:10358000FFF72AFD08BD00BF08B508461146FFF742
:10359000F7FC08BD08B50846FFF720FD003018BF4E
:1035A000012008BD08B50846FFF73AFD003018BFF6
:1035B000012008BD08B5FFF7D3FD08BD08B5FFF72A
:1035C00019FE08BD08B5FFF7DBFD08BD08B5FFF71C
:1035D000A5FD08BD08B5FFF727FE08BD08B5FFF734
:1035E000ADFD08BD08B50846FFF73CFD012008BD4C
:1035F00008B50846FFF736FD012008BD10B5144692
:1036000008461146FFF77EFD204610BD38B50D4631
:10361000084600F0CFFB044628462146FFF772FD1E
:10362000204638BD704700BF044B00221A714FF48A
:103630007A7199601A73024A1A607047DC92FF1F10
:103640004041000008B5FEF7D7F908BD08B5FEF700
:1036500087F908BD08B5FEF7AFF908BD08B5FEF754
:103660007FFA08BD08B5FEF7D5F908BD08B50846CC
:10367000FEF76AFA08BD00BF08B508461146FEF716
:10368000E5F908BD704700BF044B00221A714FF4E2
:103690007A7199601A73024A1A607047EC92FF1FA0
:1036A000A041000030B40023B0FBF2F402FB14048C
:1036B0001D46092C94BF30343734E4B2CC54B0FBEF
:1036C000F2F008B10133EFE70D4400226A70934233
:1036D00007DD885CCC5C8C54C8540132013B9A42B3
:1036E000F7DB084630BC704780F0004002E000BFC6
:1036F00081F0004142001FBF5FEA410392EA030FDD
:103700007FEA226C7FEA236C6AD04FEA1262D2EB26
:103710001363C1BFD218414048404140B8BF5B422B
:10372000192B88BF704710F0004F40F4000020F0C4
:103730007F4018BF404211F0004F41F4000121F0DA
:103740007F4118BF494292EA030F3FD0A2F1010224
:1037500041FA03FC10EB0C00C3F1200301FA03F162
:1037600000F0004302D5494260EB4000B0F5000F85
:1037700013D3B0F1807F06D340084FEA310102F144
:103780000102FE2A51D2B1F1004F40EBC25008BFF6
:1037900020F0010040EA03007047490040EB0000C0
:1037A00010F4000FA2F10102EDD1B0FA80FCACF1EF
:1037B000080CB2EB0C0200FA0CF0AABF00EBC250EE
:1037C00052421843BCBFD0401843704792F0000FDC
:1037D00081F4000106BF80F400000132013BB5E72F
:1037E0004FEA41037FEA226C18BF7FEA236C21D0A5
:1037F00092EA030F04D092F0000F08BF084670470A
:1038000090EA010F1CBF0020704712F07F4F04D1D7
:10381000400028BF40F00040704712F100723CBFEA
:1038200000F50000704700F0004343F0FE4040F414
:10383000000070477FEA226216BF08467FEA2363D2
:103840000146420206BF5FEA412390EA010F40F4BD
:10385000800070474FF0000304E000BF10F0004309
:1038600048BF40425FEA000C08BF704743F09643F0
:1038700001464FF000001CE050EA010208BF70470B
:103880004FF000030AE000BF50EA010208BF704792
:1038900011F0004302D5404261EB41015FEA010CA7
:1038A00002BF84460146002043F0B64308BFA3F19F
:1038B0008053A3F50003BCFA8CF2083AA3EBC25381
:1038C00010DB01FA02FC634400FA02FCC2F12002A0
:1038D000BCF1004F20FA02F243EB020008BF20F0D7
:1038E0000100704702F1200201FA02FCC2F120023D
:1038F00050EA4C0021FA02F243EB020008BF20EA32
:10390000DC7070474FF0FF0C1CEAD0521EBF1CEA5F
:10391000D15392EA0C0F93EA0C0F6FD01A4480EA4D
:10392000010C400218BF5FEA41211ED04FF0006336
:1039300043EA501043EA5111A0FB01310CF0004062
:10394000B1F5000F3EBF490041EAD3715B0040EA88
:10395000010062F17F02FD2A1DD8B3F1004F40EB58
:10396000C25008BF20F00100704790F0000F0CF02B
:10397000004C08BF49024CEA502040EA51207F3AEF
:10398000C2BFD2F1FF0340EAC250704740F40000CA
:103990004FF00003013A5DDC12F1190FDCBF00F0BB
:1039A00000407047C2F10002410021FA02F1C2F169
:1039B000200200FA02FC5FEA310040F1000053EA05
:1039C0004C0308BF20EADC70704792F0000F00F053
:1039D000004C02BF400010F4000F013AF9D040EA59
:1039E0000C0093F0000F01F0004C02BF490011F4ED
:1039F000000F013BF9D041EA0C018FE70CEAD153EB
:103A000092EA0C0F18BF93EA0C0F0AD030F0004C6A
:103A100018BF31F0004CD8D180EA010000F000401E
:103A2000704790F0000F17BF90F0004F084691F0DC
:103A3000000F91F0004F14D092EA0C0F01D1420216
:103A40000FD193EA0C0F03D14B0218BF084608D1DF
:103A500080EA010000F0004040F0FE4040F4000029
:103A6000704740F0FE4040F4400070474FF0FF0CBC
:103A70001CEAD0521EBF1CEAD15392EA0C0F93EA03
:103A80000C0F69D0A2EB030280EA010C49024FEA55
:103A9000402037D04FF0805343EA111143EA10130E
:103AA0000CF000408B4238BF5B0042F17D024FF4C6
:103AB000000C8B4224BF5B1A40EA0C00B3EB510FA1
:103AC00024BFA3EB510340EA5C00B3EB910F24BF8A
:103AD000A3EB910340EA9C00B3EBD10F24BFA3EB0F
:103AE000D10340EADC001B0118BF5FEA1C1CE0D1D7
:103AF000FD2A3FF650AF8B4240EBC25008BF20F08A
:103B0000010070470CF0004C4CEA50207F32C2BFDD
:103B1000D2F1FF0340EAC250704740F400004FF07A
:103B20000003013A37E792F0000F00F0004C02BFAB
:103B3000400010F4000F013AF9D040EA0C0093F075
:103B4000000F01F0004C02BF490011F4000F013BCF
:103B5000F9D041EA0C0195E70CEAD15392EA0C0F37
:103B600008D142027FF47DAF93EA0C0F7FF470AF6F
:103B7000084676E793EA0C0F04D14B023FF44CAFB2
:103B800008466EE730F0004C18BF31F0004CCAD147
:103B900030F000427FF45CAF31F000437FF43CAF83
:103BA0005FE700BF4FF0FF3C06E000BF4FF0010CA5
:103BB00002E000BF4FF0010C4DF804CD4FEA400287
:103BC0004FEA41037FEA226C18BF7FEA236C11D0D1
:103BD00001B052EA530C18BF90EA010F58BFB2EB84
:103BE000030088BFC81738BF6FEAE17018BF40F004
:103BF000010070477FEA226C02D15FEA402C05D1B8
:103C00007FEA236CE4D15FEA412CE1D05DF8040B3C
:103C1000704700BF844608466146FFE70FB5FFF7CF
:103C2000C9FF002848BF10F1000F0FBD4DF808ED87
:103C3000FFF7F4FF0CBF012000205DF808FB00BF78
:103C40004DF808EDFFF7EAFF34BF012000205DF8D2
:103C500008FB00BF4DF808EDFFF7E0FF94BF01201F
:103C600000205DF808FB00BF4DF808EDFFF7D2FF1C
:103C700094BF012000205DF808FB00BF4DF808ED5F
:103C8000FFF7C8FF34BF012000205DF808FB00BF2C
:103C900042000ED2B2F1FE4F0BD34FF09E03B3EBB6
:103CA000126209D44FEA002343F0004323FA02F0E2
:103CB00070474FF00000704712F1610F01D14202CE
:103CC00002D14FF0FF3070474FF00000704700BF47
:103CD00070B50F4E0F4D761BB61007D0043D002473
:103CE000013455F8043F9847A642F9D10A4E0B4DCE
:103CF000761B00F069FAB61008D0043D00240134A8
:103D000055F8043F9847A642F9D170BD70BD00BF79
:103D1000D4410000D4410000EC410000D441000037
:103D2000F0B4840743D0541E002A3ED0CDB20346DF
:103D300003E0621E002C38D0144603F8015B9A079A
:103D4000F7D1032C2AD9CDB245EA05250F2C45EA37
:103D5000054515D9A4F110073F0903F1100606EB3C
:103D600007161A46156055609560D5601032B2424C
:103D7000F8D104F00F040137032C03EB07130DD91E
:103D80001E462246043A032A46F8045BFAD8221F4C
:103D900022F003020432134404F003042CB1C9B22C
:103DA0001C4403F8011BA342FBD1F0BC704714462E
:103DB0000346C6E720F0030110F00300C0F1000045
:103DC00051F8043B00F1040C4FEACC0C6FF00002F8
:103DD0001CBF22FA0CF213434FF0010C4CEA0C2CDE
:103DE0004CEA0C4CA3EB0C0222EA030212EACC12BE
:103DF00004BF51F8043B0430F4D013F0FF0F1FBF91
:103E0000013013F47F4F013013F47F0F18BF0130DE
:103E1000704700BF024B13B1024800F005B870476D
:103E200000000000353E0000014600200246034627
:103E300000F018B838B5094D094C641BA41018BF20
:103E400005EB840505D0013C55F8043D9847002C4E
:103E5000F9D1BDE8384000F0C9B900BF000000004A
:103E600000000000F0B5274C2668D6F8484185B020
:103E70000746002C41D065681F2D1EDD224818B969
:103E80004FF0FF3005B0F0BD4FF4C87003910292BF
:103E90000193AFF300800399029A019B0446002826
:103EA000EED0D6F848512560002060600546C6F87F
:103EB0004841C4F88801C4F88C013FB9AB1C00200C
:103EC0000135656044F8231005B0F0BD04EB8500B2
:103ED0004FF0010CC0F88820D4F888610CFA05F284
:103EE0001643022FC4F88861C0F80831E6D1D4F82F
:103EF0008C311A43C4F88C21E0E706F5A674C6F8A5
:103F00004841B8E7C4410000000000004008FE43FB
:103F100040A004404408FE4344A004400018FE436F
:103F200000C004403000FE43309004403400FE43A3
:103F3000349004401C18FE431CC004401018FE437B
:103F400010C004400818FE4308C004400C18FE438B
:103F50000CC004400C10FE430CB004401010FE4393
:103F600010B004401810FE4318B004401C10FE436B
:103F70001CB004401410FE4314B004400418FE4367
:103F800004C004400010FE4300B004400008FE439B
:103F900000A004400408FE4304A004400C08FE43B3
:103FA0000CA004400808FE4308A004401418FE4377
:103FB00014C004401818FE4318C004400410FE4307
:103FC00004B004400810FE4308B004401400FE434F
:103FD000149004404C08FE434CA004400420FE43CF
:103FE00004D004402410FE4324B004402010FE43BB
:103FF00020B004402810FE4328B004402C10FE439B
:104000002CB004400020FE4300D004404808FE438A
:1040100048A004401000FE4310900440FFFFFFFF43
:104020000000000000000000F11C0000091D00005D
:10403000C11C0000D11C0000C91C0000D91C0000DC
:104040003D1C0000551C0000751C00007D1C00007C
:10405000891C0000951C0000A11C0000B11C000080
:10406000E11C0000E91C00000D1C0000191C0000F0
:10407000251C0000311C0000191D0000FD1C000063
:1040800000151915000100007087FF1F12000000C5
:10409000000200009C87FF1F430000000003000097
:1040A000F887FF1F00000000010309048487FF1F39
:1040B0000000000002030904E087FF1F0000000069
:1040C00003030904FC87FF1F00000000000000003C
:1040D00000000000000000000000000000000000E0
:1040E000A1340000B93400007134000081340000B4
:1040F0007934000089340000ED33000005340000FD
:10410000253400002D34000039340000453400000F
:1041100051340000613400009134000099340000F3
:10412000BD330000C9330000D5330000E133000087
:10413000C9340000AD3400000000000000000000A1
:10414000E5350000FD350000B5350000C53500003F
:10415000BD350000CD350000313500004935000087
:1041600069350000713500007D350000893500009B
:1041700095350000A5350000D5350000DD3500007F
:10418000013500000D35000019350000253500000F
:104190000D360000F13500000000000000000000B6
:1041A0006D36000079360000453600004D360000BF
:1041B000553600005D360000653600000000000046
:1041C000430000001888FF1FF8B500BFF8BC08BC0A
:1041D0009E467047153E000035040000351D000066
:0C41E000E534000029360000893600009C
:0441EC00F8B500BF63
:1041F00008000000FFFFFFFF0A0401090A08000091
:104200001201010102000040C016830400020102F5
:104210000301000018035400650065006E00730080
:1042200079006400750069006E006F0009024300A8
:10423000020100C03209040000010202010005244D
:1042400000100105240101010424020605240600D2
:10425000010705820310004009040100020A000062
:10426000000705030240000007058402400000002B
:1042700016035500530042002000530065007200F1
:10428000690061006C000000040309040C030000D5
:10429000000000000000000000000000000000001E
:1042A000000000000000000000000000048BFF1F61
:1042B0006C8BFF1FD48BFF1F00000000000000006C
:1042C00000000000000000000000000000000000EE
:1042D000000000000000000000000000C0410000DD
:1042E00000000000000000000000000000000000CE
:1042F00000000000000000000000000000000000BE
:1043000000000000000000000000000000000000AD
:10431000000000000000000000000000000000009D
:10432000000000000000000000000000000000008D
:10433000000000000000000000000000000000007D
:10434000000000000000000000000000000000006D
:1043500001000000000000000E33CDAB34126DE60A
:10436000ECDE05000B000000000000000000000073
:10437000000000000000000000000000000000003D
:10438000000000000000000000000000000000002D
:10439000000000000000000000000000000000001D
:1043A000000000000000000000000000000000000D
:00000001FF
