:1000000000800020BD01000031310000F53000000B
:10001000F5300000F5300000F5300000F53000004C
:10002000F5300000F5300000F530000031310000FF
:1000300031310000F530000031310000E5300000C2
:100040003131000031310000313100003131000028
:100050003131000031310000313100003131000018
:100060003131000031310000313100003131000008
:1000700031310000313100003131000031310000F8
:1000800031310000313100003131000031310000E8
:1000900031310000313100003131000031310000D8
:1000A00031310000313100003131000031310000C8
:1000B00031310000313100003131000031310000B8
:1000C00031310000313100003131000031310000A8
:1000D0003131000031310000313100003131000098
:1000E0003131000031310000313100003131000088
:1000F000313100009137000031310000F53E000041
:100100003131000071440000313100003131000014
:100110003131000031310000313100003131000057
:100120003131000031310000313100003131000047
:100130003131000031310000313100003131000037
:100140003131000031310000313100003131000027
:10015000694800008148000099480000B14800004B
:10016000313100002921000031310000313100001F
:1001700031310000313100003131000031310000F7
:1001800031310000313100003131000031310000E7
:1001900031310000313100003131000031310000D7
:1001A00031310000313100003131000031310000C7
:1001B000313100003131000031310000574B4CF239
:1001C000205210B51A804DF628121A8000BF00BFC9
:1001D00002F0B2FF524B4FF010621A60514A9A601F
:1001E000514ADA60A3F53043203B1A6812F480725A
:1001F00004D14E490A604FF4A8521A604C4B1A7849
:10020000110703D51A7842F008021A70494B4A4C7C
:100210004A482A221A704A4A00239918A14203D256
:10022000195899500433F8E7464B474900228B424E
:1002300002D243F8042BFAE74448454900235A58B0
:100240001A500433B3F5DE7FF9D1424B424A802184
:1002500003F8011B9342FBD1404B3C4A1A60404BD0
:100260008A221A70A3F5805324225A70A0221A7091
:100270009A799207FCD59A79D406FCD4394A9379B5
:1002800003F00C03082B374BF9D103221A714022DB
:100290005A719A799006FCD5324A9179314B4906C8
:1002A000FBD5314A314911600221516020221A7078
:1002B0009A7902F00C020C2AFAD12D4B2D4A1A60C1
:1002C0002D4B4BF67F321A6000225A60072243F80A
:1002D000042C2A4AC3F80C2D62B601F0E5FD134B3D
:1002E0001B68DA0705D5264801F07EFB254B264A18
:1002F0001A60264B1B785B0609D5224C224A2368DC
:10030000934204D11E4801F06FFB0023236005F0E7
:1003100071FB02F017FF02F015FEFEE70E2005400C
:1003200030800440823F04000100002B14D00340C1
:1003300002D0074000E00740408CFF1F186000001B
:100340006087FF1F408CFF1FE892FF1F0082FF1F86
:100350000000000000E400E05FE400E008ED00E0E1
:100360000050064000400640448004400000131145
:1003700004800440C010050014E000E000002020CC
:10038000437403581CE00340A5C3945A00F007408F
:10039000FFFFFFFFFFFFFFFFFFFFFFFFFFFFFFFF6D
:1003A000FFFFFFFFFFFFFFFFFFFFFFFFFFFFFFFF5D
:1003B000FFFFFFFFFFFFFFFFFFFFFFFFFFFFFFFF4D
:1003C000FFFFFFFFFFFFFFFFFFFFFFFFFFFFFFFF3D
:1003D000FFFFFFFFFFFFFFFFFFFFFFFFFFFFFFFF2D
:1003E000FFFFFFFFFFFFFFFFFFFFFFFFFFFFFFFF1D
:1003F000FFFFFFFFFFFFFFFFFFFFFFFFFFFFFFFF0D
:10040000FFFFFFFFFFFFFFFFFFFFFFFFDEF9FFFF23
:1004100010B5054C237833B9044B13B10448AFF33E
:1004200000800123237010BD408CFF1F00000000DE
:100430001860000008B5064B1BB106480649AFF32B
:1004400000800648036813B1054B03B1984708BD07
:100450000000000018600000448CFF1F408CFF1F4C
:1004600000000000FFFFFFFF2DE9F04F85B04FF0C7
:100470000209CDF800904FF4C8740194DFF87C8233
:10048000CDF8088098484FF496410022012300F0EF
:1004900091FB4FF496400021012200F05BFB00F03D
:1004A0002DFC40460021224605F0CCFA4FF6FF73A2
:1004B000C8F8F43040F65432C8F800214FF4967270
:1004C000C8F804210524C8F80841C8F810310325EC
:1004D000C8F844510A23C8F848314FF0010BC8F856
:1004E0004CB12046594601F05FFB0620594601F009
:1004F0005BFB0720594601F057FB0820594601F0E5
:1005000053FB1220594601F04FFB1320594601F0CE
:100510004BFB1420594601F047FB1520594601F0CA
:1005200043FB1620594601F03FFB1720594601F0C6
:100530003BFB2846594601F037FBD8F828102046E7
:10054000D1F1010138BF002101F00AFBD8F82C10CD
:100550000620D1F1010138BF002101F001FBD8F8DC
:1005600030100720D1F1010138BF002101F0F8FA65
:10057000D8F834100820D1F1010138BF002101F072
:10058000EFFAD8F838101220D1F1010138BF00215C
:1005900001F0E6FAD8F83C101320D1F1010138BF80
:1005A000002101F0DDFAD8F840101420D1F101014A
:1005B00038BF002101F0D4FAD8F844101520D1F149
:1005C000010138BF002101F0CBFAD8F8000104F096
:1005D000C3FF0146162001F023FAD8F8000104F009
:1005E000BBFF0146172001F01BFA0E2001F00CFAA8
:1005F0003E4C204600F05CFF3D4F2046394600222D
:1006000000F050FE3B4E204631465A4600F04AFE6E
:10061000394D204629464A4600F044FE20463946D8
:100620000B2200F0F1FE204631460B2200F0ECFEDA
:10063000204629460B2200F0E7FEDFF8C4A0002484
:10064000002527A7D7E90067CDE900675046224675
:100650002B4601F0E7F8DFF8AC90CDE9006748469B
:1006600022462B4601F0DEF85046594601F04CF97F
:100670004846594601F048F9D8F8440104F086FB91
:1006800004460D46D8F8480104F080FBCDE900018E
:10069000D8F84C0104F07AFBCDE90201504622461D
:1006A0002B4601F057F8D8F8440104F06FFB0446DC
:1006B0000D46D8F8480104F069FBCDE90001D8F8EF
:1006C0004C0104F063FBCDE90201484622462B466B
:1006D00001F040F805B0BDE8F08F00BFAFF3008037
:1006E00000000000E0FFEF40C490FF1F908EFF1F4E
:1006F000888EFF1F348FFF1FAC8EFF1F608CFF1F83
:10070000108EFF1FB88EFF1F2DE9F04184B000F05E
:10071000F5FADFF86482404600F09CFF8B4F3846C4
:1007200000F098FF8A4ED6F8440104F02FFB0446EF
:100730000D46D6F8480104F029FBCDE90001D6F8B2
:100740004C0104F023FBCDE90201404622462B4632
:1007500001F000F8D6F8440104F018FB04460D46F9
:10076000D6F8480104F012FBCDE90001D6F84C019F
:1007700004F00CFBCDE90201384622462B4600F07E
:10078000E9FFD6F8000104F0E7FE0146162001F06B
:1007900047F9D6F8000104F0DFFE0146172001F00A
:1007A0003FF9D6F840315BB16A4BD3E9000104F060
:1007B000FDFD7060684BD3E9000104F0F7FDB06007
:1007C000634BD3F8003140F65432934203D9604B67
:1007D000C3F8002107E0B3F5FA7F04D24FF4FA72B0
:1007E0005B4BC3F800215A4BD3F80431B3F52F7F8C
:1007F00005D94FF42F72564BC3F8042105E0C72BDF
:1008000003D8C822524BC3F80421514BD3F8083106
:10081000642B03D964224E4BC3F808214C4CD4F806
:10082000A40004F0B3FA4D4BC3E90001D4F8A800CA
:1008300004F0ACFA4A4BC3E90001D4F8180104F003
:10084000A5FA484BC3E90001D4F81C0104F09EFA54
:10085000454BC3E900013F4BD3E9000104F0A6FD7D
:10086000C4F820013C4BD3E9000104F09FFDC4F81B
:10087000240101F0E1FAD4F8043142F21072B2FB23
:10088000F3F2D4F80811394CB4FBF3F301FB023353
:10089000374A1268801A834208D201F0CDFA344BED
:1008A0001860344B1A7882F001021A7001F0C4FA11
:1008B000274BD3F804312D4AB2FBF3F32C4A1268CC
:1008C000801A834212D22B4B1B783BB1204BD3F8BA
:1008D0000C111620890801F0B7F917E01C4BD3F86A
:1008E00010111620890801F0AFF90FE0184A50687E
:1008F000D2F8F030D2F8F420009200214FF6FF72C7
:1009000002F012FB8110162001F09EF901F094FA1A
:100910000F4BD3F80431154AB2FBF3F3144A1268B3
:10092000801A83422AD2134B1B783BB1084BD3F871
:100930000C111720890801F087F92FE0044BD3F838
:1009400010111720890801F07FF927E0B88EFF1FEA
:10095000608CFF1F408FFF1FF08DFF1F608FFF1FF8
:10096000F88DFF1F008EFF1F088EFF1F40420F00F3
:10097000308FFF1F5C8CFF1F108EFF1F454A906851
:10098000D2F8F030D2F8F420009200214FF6FF7236
:1009900002F0CAFA8110172001F056F93D4CA16A05
:1009A0000520D1F1010138BF002101F0D9F8E16A39
:1009B0000620D1F1010138BF002101F0D1F8216BEF
:1009C0000720D1F1010138BF002101F0C9F8616BA6
:1009D0000820D1F1010138BF002101F0C1F8A16B5D
:1009E0001220D1F1010138BF002101F0B9F8E16B0B
:1009F0001320D1F1010138BF002101F0B1F8216CC1
:100A00001420D1F1010138BF002101F0A9F8616C77
:100A10001520D1F1010138BF002101F0A1F81E4DD0
:100A20002846002100F076FD284600F0BBFD284650
:100A300000F02AFCC4F8A0002846184900F004FE83
:100A4000174904F0E1FD04F0A5FFC4F8A40028460E
:100A5000144900F0F9FD124904F0D6FD04F09AFFA4
:100A6000C4F8A8002846104900F0EEFD0C4904F037
:100A7000CBFD04F08FFFC4F8AC00D4F8C83033B11C
:100A80000320B4F8CC10D4F8D02002F0B3F904B0AD
:100A9000BDE8F081608CFF1F908EFF1F888EFF1FC6
:100AA0000000C842348FFF1FAC8EFF1F2DE9F047B6
:100AB00088B01B4C20460A2100F024FB194821462F
:100AC00000F0D4FB4FF00008DFF88490CDE90089F6
:100AD0000026154FCDE9026700244FF08045CDE98F
:100AE00004454FF0000ACDF818A010481049114AEB
:100AF000114B00F041FFCDE90089CDE90267CDE956
:100B00000445CDF818A00D480D490E4A0E4B00F0D3
:100B100033FF01F091F90D4B186008B0BDE8F08784
:100B2000488FFF1F908EFF1F00002440108EFF1F74
:100B3000608FFF1F408FFF1F008EFF1FB88EFF1FAB
:100B4000F88DFF1FF08DFF1F088EFF1F308FFF1FD6
:100B50000000084070B504460E4615460F4B186855
:100B60000368DB692146324698470D4B1D70B4F58A
:100B7000964F08DD40F2EE220A4B1A6040F2D66230
:100B8000094B1A6070BD094A92FBF4F2054B1A60DA
:100B9000074B93FBF4F4044B1C6070BDC48FFF1F24
:100BA000C08FFF1FBC8FFF1FB08FFF1FC0E1E4008D
:100BB000C00E160238B59DF810500D4C2060084646
:100BC00011461A46FFF7C6FF0A4A059B13600A4AF8
:100BD000069B1360094C25702846012100F0E4FFB4
:100BE0002078002100F0BCFF0022054B1A6038BDC0
:100BF000C48FFF1FB48FFF1F688FFF1F6C8FFF1FF5
:100C0000C88FFF1F70B4C8B1104B5C1E421E53FA50
:100C100082F64FF6FF7308254AF2010014F8012FFF
:100C200053402A4603F001015B0801B14340013AF9
:100C300012F0FF02F6D1B442F0D101E04FF6FF739B
:100C40001A0242EA132080B270BC7047708FFF1FF7
:100C500070B50546124B1878012100F081FF6DB187
:100C6000104B5C1E013D53FA85F60F4D2868036852
:100C70001B6814F8011F9847B442F7D10A4B186853
:100C800003685B699847094B1B681B0102D0013B55
:100C90007FF4FDAF024B1878002100F061FF70BDBA
:100CA0006C8FFF1F708FFF1FC48FFF1FB08FFF1F40
:100CB00010B50D4B1A6801321A600C4B1B7893B9B2
:100CC0000B4C0C4B1B7823700B4B1B7863F07F0392
:100CD0006370A0700320FFF795FF030AE370207193
:100CE0000520FFF7B5FF10BDC88FFF1FB88FFF1F8E
:100CF000708FFF1FC08FFF1FB98FFF1F2DE9F041BD
:100D00008B4B186803689B689847002800F00C819B
:100D100000263446864DDFF82482864F17E026B140
:100D200028680368DB6898470BE0402C14BF002656
:100D3000012628680368DB68984708F80400013436
:100D4000E4B23B681B0102D0013B7FF4FDAF286891
:100D500003689B6898470028E1D12EB1764B18684C
:100D6000421C1A60BDE8F081072C40F2D580734B1D
:100D70001B781BB10021724A117002E00121704AF8
:100D80001170704A1578AB4204D06D4B1B78002B64
:100D900000F0CA802646A01EC0B2FFF733FF674BA3
:100DA0001C4414F8022C14F8013C43EA0223834249
:100DB00040F0AD80614B5A7863490A709878D978D1
:100DC00041EA002118795B7943EA00235C185C480A
:100DD000007800283CD1032A3AD15C4A126891423B
:100DE00032D294422CD85B00DFB27E1DF6B2534B58
:100DF0001D709F70CBB219469C4212D9544AD2F84A
:100E000000E003224D4D5EF82110080AA854501C42
:100E1000C0B229540232D2B20133DBB219469C422D
:100E2000F1D8F81CC0B2FFF7EDFE444B3344020A80
:100E300003F8022C03F8010C3046FFF709FF73E0BA
:100E40000320FFF735FF6FE00220FFF731FF6BE073
:100E5000062A1AD13D4A1268914212D23C4A1268BF
:100E600042F821300620FFF7CDFE344B020A9A717A
:100E7000D871334B1B78002B56D10820FFF7E8FEC2
:100E800052E00220FFF714FF4EE0102A3BD12B4B1B
:100E90009B79093EB34231D12C4B1B68994229D230
:100EA0009C4223D8C9B208468C4211D90723284F47
:100EB000224AD5186D78D65C45EA06263D6845F885
:100EC00020600233DBB20131C9B208468C42F0D84F
:100ED0000620FFF797FE194B020A9A71D871184B3A
:100EE0001B780BBB0820FFF7B3FE1DE00320FFF7C4
:100EF000DFFE19E00220FFF7DBFE15E00E4B1A685B
:100F000001321A6010E00120FFF7D2FE0CE00A4B1C
:100F10001A6801321A6007E0013CE4B2062C03D8DB
:100F2000054B1A6801321A60034B1868BDE8F0815E
:100F3000C48FFF1FBC8FFF1FC88FFF1F708FFF1F45
:100F4000B88FFF1FC08FFF1FB98FFF1FB48FFF1F08
:100F5000688FFF1F426872B6002382F8803262B643
:100F60007C20202103E0013810F0FF002AD00B463E
:100F7000013B7FF4FDAF92F8003213F0FF0FF2D087
:100F800072B6012382F8003182F8803262B64FF4E3
:100F9000F053013B7FF4FDAF72B6002382F880323C
:100FA0004FF48C63013B7FF4FDAF92F8003213F0F5
:100FB000FF0F14BF0020012062B64FF4CD53013B58
:100FC0007FF4FDAF704700BF436811F0010F12D0EE
:100FD00072B6012283F8002183F88022A021013912
:100FE0007FF4FDAF83F8802062B64FF45C73013B61
:100FF0007FF4FDAF704772B6012283F8002183F8B9
:1010000080224FF4826101397FF4FDAF83F88020A4
:1010100062B65023013B7FF4FDAF7047436872B660
:10102000012283F8802283F800213022013A7FF4E4
:10103000FDAF002283F88022A022013A7FF4FDAFA9
:1010400093F80002C0B262B64FF45473013B7FF4D0
:10105000FDAF70472DE9F04106460F469046082542
:1010600001243C4230460CBF00210121FFF7ACFFB8
:101070006400E4B2013DF4D1B8F1000F09D172B6B9
:101080007368002283F880227368012283F80021AC
:1010900062B6BDE8F08100BFF8B507460824002617
:1010A00001253846FFF7BAFF00B12E436D00EDB2BF
:1010B000013CF6D13046F8BDF8B507460E4655213D
:1010C0000022FFF7C7FF002425463846315D2A4637
:1010D000FFF7C0FF0134082CF7D1F8BD08B5CC21CB
:1010E0000022FFF7B7FF08BD002303748374437425
:1010F000C37307230021013BC2181172002BFAD1E0
:10110000704700BF38B504460D460846002100F080
:101110004BFD01232370044B53F8353063602046A8
:10112000FFF7E2FF204638BD305D00002DE9F84FA3
:10113000044689461546837C002B65D1FFF70AFFDC
:10114000034620B900222274A274627472E02DB1A9
:101150002046F0210022FFF77DFF04E02046EC212D
:101160000022FFF777FF01260027BB46B046B246B4
:101170002046FFF753FF05462046FFF74FFF012D9E
:1011800002D1012819D134E085421CD1257CA84523
:1011900006D2E3191B7A1E420CBF0025012503E08D
:1011A000A84514BF002501252DB9B8F1080F3AD87C
:1011B00084F8118037E0012D05D1E3191A7A324302
:1011C0001A72554604E0E3191A7A22EA06021A72E4
:1011D00020462946FFF7F8FE08F101085FFA88F873
:1011E000760016F0FF0602D10137FFB25646072FF0
:1011F000BED9B8F1400F07D984F810B0BBF1000F89
:1012000013D10123A37410E000202074A074607433
:1012100003460FE0E218127A09F803200133082B85
:10122000F8D1012306E0C346CDE7237A002BEBD0AB
:101230000023EFE71846BDE8F88F00BF10B403465F
:101240004C1EE4B251B1013404440020054913F8A6
:10125000012B5040085CA342F9D100E000205DF86A
:10126000044B7047305C0000704700BF054A826144
:101270008160002202710270092242700122827094
:10128000C2707047691200000079704710B50C46B3
:1012900008460721FFF7D2FFE379834214BF0020FD
:1012A000012010BD2DE9F04106460F461546806825
:1012B000FFF71AFF00244FF001080CE0E3B2AB4245
:1012C00005D130463946FFF7E1FF034668B90134DE
:1012D000E3B2AB4208D8B06839464246FFF726FF72
:1012E0000028EBD1002300E000231846BDE8F08180
:1012F00070B505460C4616468068FFF72BFEC0B158
:10130000A8682146FFF7D8FEA868BE210022FFF793
:10131000A1FE0024A868FFF7BFFE30550134092C58
:10132000F8D1A868FFF716FE012814BF002001209D
:1013300070BD002070BD00BF10B51446FFF7D8FF88
:1013400048B120460821FFF779FF237A834214BF72
:101350000020012010BD002010BD00BF70B5044664
:101360000D4616468068FFF7F5FDA0682946FFF791
:10137000A3FEA0684E210022FFF76CFEA068B178A2
:101380000022FFF767FEA068F1780022FFF762FEF7
:101390002B78102B04D0A06831790022FFF75AFE79
:1013A000A068FFF7D7FDA0682946FFF785FEA06873
:1013B00048212278FFF74EFE142000F05FFD2378CD
:1013C00013B10A2000F05AFDA068FFF7C3FD70BDFD
:1013D00038B504460D468068FFF7BCFDA068294675
:1013E000FFF76AFEA068B4210022FFF733FEA06871
:1013F000FFF714FE0546A068FFF7ACFDD5F101002C
:1014000038BF002038BD00BF70B584B006460C461A
:10141000154601AAFFF790FFF8B12378102B1ED0D4
:101420000B2D08D00C2D02D00A2D0CD107E07F2304
:101430008DF808300AE05F238DF8083006E03F237E
:101440008DF8083002E01F238DF808303046214621
:1014500001AAFFF783FF012002E0002000E0012045
:1014600004B070BD00B585B00B78102B17D001AA61
:10147000FFF762FFA8B19DF808303F2B0BD002D8D0
:101480001F2B0AD005E05F2B0DD07F2B01D10C2044
:101490000AE0002008E00A2006E0092004E00C2011
:1014A00002E0002000E00B2005B05DF804FB00BF67
:1014B00070B586B004468068FFF716FE00232371DE
:1014C00001251DE0204601A9FFF7E0FEC0B1237809
:1014D0002BB9204601A9FFF77BFF00B125702046FC
:1014E00001A903AAFFF704FF6678204601A9FFF7C8
:1014F000B9FFB04238BF30466070237901332371A1
:10150000A06801A92A46FFF711FE0028DAD106B02B
:1015100070BD00BF8170704700B585B001AAFFF7AC
:10152000E7FE9DF80400003018BF012005B05DF80B
:1015300004FB00BF0A290AD00B2905D0092940F273
:10154000EE2008BF5E20704740F277107047BC2045
:10155000704700BF2DE9F04182B004461546FFF701
:10156000E9FF0646ADB1E3789BB123788BB90C4B0C
:101570001B680093DDF80080094F20462946FFF7DD
:10158000CBFF48B93B680193019B9B1B4345F4D3B8
:1015900002E0304600F072FC02B0BDE8F08100BF0E
:1015A000CC8FFF1F10B504468068FFF7D3FCA068FE
:1015B000FFF794FDA06844212278FFF74BFDA37844
:1015C00023B1204661780022FFF7C4FF10BD00BFA1
:1015D00013785078C00240EAC30080B20B78102B19
:1015E0000BD1D37992799A1AD20192FBF3F3103B83
:1015F00020F00F0003EBC00080B200B2704700BFC4
:1016000030B585B005460C4601AAFFF795FE28B116
:101610002846214601AAFFF7DBFF01E04EF2804099
:1016200000B205B030BD00BF08B510F5DC5F06DDC7
:1016300003F096FF4FF0705103F0E6FF08BD01483C
:1016400008BD00BF0000FEC208B5FFF7D9FFFFF7D5
:10165000EBFF08BD2DE9F04F89B0064690F8707099
:10166000002F71D03A4B1B68079307990191036CC7
:10167000CA1A836D9A4266D3436BD3E90089C36B60
:10168000D3E9000142464B4603F042FACDE902019C
:10169000D6E9082303F0F0FBD6E9122303F03AFA67
:1016A00004460D46C6E91245D6E91AAB52465B46DA
:1016B00003F072FE10B1C6E912AB0CE0D6E91823B4
:1016C000CDE904232046294603F048FE18B1DDE9A0
:1016D0000423C6E91223DDE90201D6E9062303F05B
:1016E000CBFBD6E9122303F015FA04460D4640461B
:1016F0004946D6E9142303F00BFAD6E90A2303F08E
:10170000BBFB02460B462046294603F001FA04467D
:101710000D465046594622462B4603F01FFE50B94F
:10172000D6E918AB2046294652465B4603F016FE22
:1017300008B9A246AB46B36BC3E900ABC6E914894E
:10174000019B336400E00027384609B0BDE8F08F04
:10175000CC8FFF1F2DE9F047824614461D46DDE978
:101760000867104619460022002303F0F7FD002801
:1017700053D1304639460022002303F0EFFD002804
:101780004BD1DDE90A010022002303F0E7FD002828
:1017900043D1CAE90045CAE90267DDE90A23CAE97B
:1017A0000423DAF8580003F0F1FA00221C4B03F08E
:1017B0008DFC80468946CAE9064530463946424690
:1017C0004B4603F059FB06460F46CAE90867DDE9B8
:1017D0000A0142464B4603F079FC80468946CAE935
:1017E0000A89DAF83030012B17D100200021224677
:1017F0002B4603F08DF9CAE906010020002132468C
:101800003B4603F085F9CAE9080100200021424661
:101810004B4603F07DF9CAE90A01BDE8F08700BF35
:1018200000408F402DE9F84F824616461F46DDE9FD
:101830000A451046194622462B4603F0A3FD002810
:1018400038D1CAE91867CAE91A459AF87030002BEE
:1018500030D0DAF838B0DBE9008920462946424624
:101860004B4603F07BFD10B1CBE9004508E0304664
:10187000394642464B4603F08FFD08B1CBE900677D
:10188000DAE91245DAE91A672046294632463B462C
:1018900003F082FD18B1CAE91267BDE8F88FDAE9F2
:1018A00018672046294632463B4603F057FD08B1EB
:1018B000CAE91267BDE8F88F2DE9F0418046836BD5
:1018C000D3E90045C0E91245436BD3E90023C0E9E1
:1018D0001423D0E91A672046294632463B4603F0D6
:1018E0005BFD18B1C8E91267BDE8F081D8E9186757
:1018F0002046294632463B4603F030FD08B1C8E990
:101900001267BDE8F08100BF38B50446012914BF55
:101910000025012590F8703083F00103AB4201D11E
:10192000FFF7CAFF84F8705038BD00BF38B50446D1
:101930000D4690F87030D3B1036B8B4217D0002066
:101940000021D4E9062303F0E3F8C4E906010020EE
:101950000021D4E9082303F0DBF8C4E908010020E2
:101960000021D4E90A2303F0D3F8C4E90A0125636E
:1019700038BD00BFFFFFFFFF10B586B0044682638D
:101980004163C363002380F8703000220023C0E964
:10199000182311A3D3E90023C0E91A236423836524
:1019A0000E99FFF7C3FFDDE90A23CDE90023DDE946
:1019B0000C23CDE902232046DDE90823FFF7CAFE08
:1019C000074B1B680593059AA36DD31A2364204621
:1019D00006B010BDAFF300800000000000E06F40D3
:1019E000CC8FFF1FAFF30080044B00221A60044924
:1019F0000A60044A106010221A60704714D0034035
:101A000004D0034000D0034018B1102828BF102094
:101A100000E00120014B1870704700BF6487FF1F72
:101A20002DE9F84380460D460846424903F08AFFF7
:101A3000002814BF4FF002094FF001093E4B47F652
:101A40001226002808BF1E46304603F085FD4FF0E1
:101A50005E5103F0D9FD0146284603F087FF90B997
:101A600001244FF05E5726FA04F003F075FD394665
:101A700003F0CAFD0146284603F078FF20B901347F
:101A8000072CF0D100E0002426FA04F003F064FDF6
:101A9000294603F06DFE4FF07C5103F0ABFC03F0E0
:101AA00079FF4FF6FF73984238BF0346A8F103024F
:101AB000D2B2012A0DD8214A0021116020480160CC
:101AC00020490B6004F0070444EAC9041460BDE82F
:101AD000F883A8F10902D2B2012A09D9A8F11402A7
:101AE000D2B2032A04D9A8F10502D2B2012A0DD834
:101AF000154A002111601548016015490B6004F07A
:101B0000070444EAC9041460BDE8F883B8F1200F63
:101B100002D0B8F1190F0BD10E4A002111600E4806
:101B200001600E490B6004F0070343EAC903136028
:101B3000BDE8F883001BB740006CDC020090034056
:101B40000490034008900340008003400480034059
:101B50000880034000800B4004800B4008800B404D
:101B600021281ED80F4B53F8303093F8802212F002
:101B7000FF0F08D019B1012283F88020704701229D
:101B800083F800217047074B03EBC000436821B185
:101B90001A6842F003021A6070471A6822F00202C3
:101BA0001A607047305D000021284AD8254B03EBAE
:101BB000C0035B68012911D004291DD0214A52F8C5
:101BC0003020002082F8800200292FD0022931D055
:101BD00003291FD040F203121A607047194A52F8C5
:101BE0003020012182F880124FF4A2721A601A6824
:101BF00022F020021A607047124A52F83020012168
:101C000082F880124FF4A2721A601A6842F0200221
:101C10001A6070474FF480721A601A6842F002022C
:101C20001A601A6822F001021A6070474FF480723D
:101C30001A6070474FF480721A601A6842F003020B
:101C40001A607047305D000010B5044628280FD197
:101C50005D4B1B780B2B03D8C3F10C03994003E0B9
:101C60000C2B84BF0C3B1941084601F01FFA10BD34
:101C7000554B1B78012202FA03F0002908DC2046AC
:101C80000021FFF76DFF20460121FFF78DFF10BDFA
:101C90000A46884208D820460121FFF761FF204606
:101CA0000121FFF781FF10BDE01EC0B2012806D858
:101CB0004648006800FB011222FA03F310E0202CD2
:101CC00001D0192C06D14248006800FB022222FAFA
:101CD00003F305E03F48006800FB011222FA03F31A
:101CE000E01E1D2864D8DFE800F0474E402B6363F8
:101CF0001D2463636363636363636332390F166335
:101D00005C63636363636355334A136040F2444228
:101D1000324B1A6010BD324A136040F24442314BDC
:101D20001A6010BD304A136040F244422F4B1A60D3
:101D300010BD2F4A136040F244422E4B1A6010BD72
:101D40002D4A136040F244422C4B1A6010BD2C4ABD
:101D5000136040F244422B4B1A6010BD2A4A1360B4
:101D600040F24442294B1A6010BD294A136040F2E8
:101D70004442284B1A6010BD274A13604FF4517239
:101D8000264B1A6010BD264A13604FF45172254B42
:101D90001A6010BD244A13604FF45172234B1A602D
:101DA00010BD234A13604FF45172224B1A6010BDCC
:101DB00020467F29D4BF00210121FFF7D1FE204614
:101DC0000121FFF7F1FE10BD6487FF1F089003405B
:101DD00008800B40088003401080034004B004409A
:101DE0001880034008B00440208003400CB0044039
:101DF0002880034010B004403080034010C00440ED
:101E00003880034014C004404080034018C00440A0
:101E1000488003401CC004401090034030900440B0
:101E2000189003403490044010800B4048A00440B8
:101E300018800B404CA0044072B60C4B1B680C4A37
:101E400012680C49096862B611F0806F02D0322B1B
:101E500088BF0132C3F53B437F330749A1FB03032E
:101E60005B094FF47A7000FB0230704718E000E025
:101E7000CC8FFF1F04ED00E0ABAAAAAA38B5054637
:101E8000FFF7DAFF044625B938BD013D0AD004F555
:101E90007A74FFF7D1FF001BB0F57A7FF5D201F01D
:101EA00059F8F6E738BD00BF10B5264B4FF40002D5
:101EB0001A604FF080721A604FF000721A604FF093
:101EC00080621A604FF000621A6000201E4B18609A
:101ED0004BF6FF710433196028231C4A1360083243
:101EE000136008321360083213600832136008323E
:101EF000136008321360083213600922144C226008
:101F000004F58054043420600434216004342360D8
:101F100008342360143C226004F5FE24043420605D
:101F20000C4801600C490B6008310B600B4B1A60C8
:101F300001F032F84FF4C870FFF7A0FF00F074FC16
:101F400010BD00BF08E100E0048003400C800340A6
:101F50000080034008800B400C800B4000800B4049
:101F600030B40E4B1B7843F002020D4C04EBC2045C
:101F700060600C48007800280CBF8824C82444EA1C
:101F80000141074D45F8321080F00100054A1070FC
:101F900083F00103014A137030BC70473890FF1F73
:101FA0000080FF1FB190FF1F10B4431E032B11D8F8
:101FB00072B60A4A52F8230050B14268074941F804
:101FC0002320074A32F813400188611A22F81310BF
:101FD00062B600E000205DF8044B70472890FF1FB8
:101FE000D492FF1F013803280DD872B6074B53F85F
:101FF00020302BB1002001305B68002BFBD100E0CA
:10200000002062B670470020704700BF7C90FF1F21
:1020100038B572B601231B491B4C5A1812F8012C13
:1020200012F0080F24D09A0054F832506DB9164BB4
:1020300003EBC20108304860144943F83210144BD6
:102040001A78013A1A7062B638BD42F0010254F8AB
:1020500032506DB90C4B03EBC201083048600D499A
:1020600043F832100A4B1A78013A1A7062B638BD3A
:102070000133052BD1D162B60022054B1A7000F056
:1020800037FC38BDA05E00000080FF1F88004000C4
:10209000A690FF1FC800400010B4431E032B37D882
:1020A000400140F010001C4A104472B61B4AD25C3A
:1020B000032A09D8DFE802F019021B0508300222C2
:1020C00016E00830042213E0154A52F823201AB90A
:1020D000134A42F8231003E0124A52F823205160B9
:1020E000104A42F8231062B612E0032200E00522F3
:1020F0000A4CE25401F10803436000F00803002B8E
:102100000CBF8823C8230A8843EA0243036062B6EF
:102110005DF8044B704700BF0080FF1FE48FFF1F76
:102120007C90FF1F8C90FF1F2DE9F84FA34CDFF828
:10213000E092DFF8E0A2DFF8E0B22578EDB215F02A
:10214000040F1DD09E4B1B7813F0FF0F16D09D4B34
:102150001B7803F0FF022BB1531EDBB2994A1370B8
:1021600003B900BE984B1B7803F0FF0233B1531E36
:10217000DBB2954A13700BB900F016FD04232370EF
:1021800015F0080F00F0E48299F80030DBB21D0969
:1021900040F021828D4D9E0805EBC6035A6855F824
:1021A0003630C3F38303013B0C2B00F21082DFE8CF
:1021B00013F0CB01CB010E020E020E020E020E0234
:1021C0000E02E8010E020E020E020D008049136895
:1021D0000B6052684A607F4A45F8362000227E49EB
:1021E0000A607A490A618A6101217C4A11709BB2B6
:1021F00040F28162934218D8B3F5D06F2ED2B3F576
:10220000817F00F01E8106D8802B00F0C980822BD0
:1022100000F0CC8066E140F20232934200F0268169
:10222000B3F5A06F00F062815CE142F221029342BB
:1022300000F0868107D8B3F5086F00F0AB80B3F5E6
:10224000106F11D04EE142F22122934200F0418101
:1022500042F22132934200F0498143E1604B5D68D4
:10226000002D40F0188130E1594B9A78544B1A7088
:10227000564D05F180062B6A13F0800F03D0686A73
:10228000083800F035FB0835B542F4D1DFF88C8111
:1022900000263746534AB05828B1456800F028FB5D
:1022A0000DB12846F9E700234E4973504E4AB3500A
:1022B0004E4BF05828B1456800F01AFB0DB1284686
:1022C000F9E7002349497350494AB35028F8023FBF
:1022D000484BFB5C023B032B0AD8DFE803F0020605
:1022E00002060022434BDA5502E00122414BDA5547
:1022F00001370436102ECDD100223F4B1A70012534
:102300003E4EDFF81C81314F05EB080313F8013C0A
:1023100006F8043B13F0080F2DD000F0C9FA48B1BD
:10232000A90007EB451200F108035360344A47F84F
:10233000312007E0AB00002247F833202E4B1A78FB
:1023400001321A7000F0B4FA58B1AB0043F0010347
:1023500007EBC30100F108024A601E4A47F8332028
:1023600009E0AB0043F00103002247F83320224B81
:102370001A7801321A70AA0042F00201002347F8CD
:10238000313042F0030247F8323001351D4B9E4296
:10239000BAD11EE20A4B1B781B4D2B700127AAE015
:1023A000194D00232B706B700227A4E0084B9B880B
:1023B000042B37D90F22154B1A70C1E0802007403B
:1023C000B090FF1F3990FF1FB290FF1F0080FF1FCA
:1023D0009C90FF1FC8004000D08FFF1FB190FF1FCF
:1023E000A45E00002890FF1FD48FFF1F7C90FF1F6A
:1023F0008C90FF1FE48FFF1FA690FF1FC420074093
:1024000088004000D4200740A890FF1FC02007404C
:10241000902007409420074098200740D292FF1F49
:10242000A05E0000A04A0021117051709F4A12F86E
:10243000233013F0020F5CD09B4D01232B70022739
:1024400059E09B4B9B8803F07F03042B02DC984AE6
:1024500052881AB10F22954B1A7071E0934A12F804
:10246000231021F0020102F82310B2E1904B9B8867
:1024700003F07F03042B02DC8D4A52881AB10F222D
:102480008A4B1A705CE0894A12F8231041F002016D
:1024900002F823109DE1864B5E889F88854BA3F14F
:1024A0000C02114633F80C0CB04209D133F80A0C77
:1024B000B84205D1360A032E0CBF2F7817891AE0CF
:1024C0000D690C330C32002DEBD10F22774B1A70B3
:1024D00036E0794B1A68794B1A60754B9A78784BCD
:1024E0001A7076E10F22714B1A7029E000273D46E1
:1024F00001E002276C4D6E4BDB889F4228BF1F46D0
:10250000402F34BF3E46402628463146FFF728FD7F
:102510003544BF1B03D13F2E00F2608110E0402FF5
:1025200034BF3E46402628463146FFF719FD354464
:10253000BF1B01D13F2E03D9624B1D60624B1F8030
:1025400001238AF8003042E0594B198842F22103F6
:10255000994212D15D4BD81D12F8011B03F8011FDF
:102560008342F9D15A4B1B68862B02D10F22594B5B
:102570001A7000200146FFF7F3FC574B45F8363040
:1025800025E0504B1E68BEB14F4FB7F80080B8F140
:10259000400F34BF4546402530462946FFF7E0FC52
:1025A000C5EB08039BB23B800BB9402D01D13544EC
:1025B00000E00025434B1D603D4B1B88B3F5A06F29
:1025C00005D13B4B00225A709B788BF800300123D9
:1025D0008AF80030B9E0414E9F0806EBC708D8F8EA
:1025E0000420A2F10800013DEDB213F0080F47D01E
:1025F00000F07EF93A4B53F825304BB35A6838490E
:1026000041F8252003F10802C8F80420354A525D3C
:10261000032A12D8DFE802F002060A0E0321314A2B
:1026200051550AE002212F4A515506E005212D4A55
:10263000515502E004212B4A515518F0080F0CBFE8
:102640008822C8221B8842EA034346F837307CE0E0
:10265000244B5B5D032B0BD8DFE803F07777020692
:102660000022204B5A5570E001221E4B5A556CE057
:1026700018F0080F0CBF022203221A4B5A5564E0CF
:1026800056F837301B0C22F8083C002B55D000239D
:1026900022F8063C42F8043C134B53F825302BBB80
:1026A000114B43F8250025E0A890FF1FC0200740EC
:1026B0009C90FF1FB05E0000CC8FFF1FE492FF1FB5
:1026C000C090FF1FD08FFF1FA490FF1FDB92FF1F42
:1026D000DC92FF1F3990FF1FC80040000080FF1FE1
:1026E0007C90FF1FE48FFF1F2890FF1F3F4B53F884
:1026F000253058603D4B43F825003D4B33F815100D
:1027000032F8082C0A4423F8152000F0D1F860B103
:1027100000F10803C8F8043018F0080F354B364AAA
:1027200008BF134646F837300FE0002346F837302D
:10273000324B1A7801321A7007E018F0080F2D4B4F
:102740002D4A08BF134646F8373008232370F4E4B7
:1027500015F0010F22D02A4902230B700022294BC9
:102760001A70294B24481860284C5C6098602848EF
:10277000D8601A619A610D20264B1870FF232648F5
:1027800003700838037018300270244A13709F22B7
:10279000234B1A7001230B70BDE8F88F15F0800FE2
:1027A00005D00D221B4B1A708022403B1A7015F089
:1027B000020F06D0184B1A78D2B21A700222083BC8
:1027C0001A7015F0100F0ED01022164B1A70BDE8BB
:1027D000F88F00200146FFF7C3FBB1E62846002131
:1027E000FFF7BEFBACE6BDE8F88F00BFD48FFF1F3C
:1027F000D492FF1FC800400088004000A690FF1F31
:10280000942007403890FF1F0080FF1FE88FFF1FB4
:102810003C90FF1FC0200740882007408C200740C5
:10282000842007408020074008B501F095FE002372
:102830001B491A465A50C81842600833882BF9D1F0
:10284000184B1A6842F480221A60154BC3F3072113
:10285000154A1170C3F30741143211701B0E043274
:102860001370FF23343A137008321370783A1370E0
:1028700001238432137000216C3211707C3A137082
:1028800070220A4B1A704FF40072A3F241331A609F
:10289000102203F1C04303F5C8231A7008BD00BF1E
:1028A0000080FF1F348004409C20074049E400E082
:1028B00072B60D4B1A68B2FA82F30B2B02D962B6CC
:1028C000002070474FF00041D94022EA010206493A
:1028D0000A6062B6054903EBC303DB00C818002297
:1028E000CA504260704700BF6887FF1F0084FF1F07
:1028F00008B50F4BC31A0F4AA2FB03131B090B2B7E
:1029000014D80D4A12783AB10C4A127812F0FF0F1F
:1029100002D0FFF77DFB08BD72B6094A4FF00041B7
:1029200021FA03F311681943116062B608BD00BFB4
:102930000084FF1F398EE338A690FF1FB090FF1F61
:102940006887FF1F10B5134B1B6853B9124B1B78D8
:1029500013F0FF0F18D00320FFF726FB0D4B186074
:10296000A8B10C4B186843885A1C03441C7A03888E
:102970009A4206D3FFF7BCFF0022064B1A6020469E
:1029800010BD4280204610BD4FF0FF3010BD4FF00B
:10299000FF3010BDBC90FF1FB090FF1F08B50D4B5E
:1029A0001B6883B90C4B1B7813F0FF0F08D0032072
:1029B000FFF7FAFA074B186028B94FF0FF3008BD4F
:1029C0004FF0FF3008BD034B1B685A881344187A38
:1029D00008BD00BFBC90FF1FB090FF1F044B98883C
:1029E000044B1B681BB11A885B88D31A18447047C4
:1029F000D492FF1FBC90FF1F10B50B4B1B7813F038
:102A0000FF0F0FD0094B186820B1FFF771FF0022AC
:102A1000064B1A6003242046FFF7C6FA10B1FFF7F1
:102A200067FFF8E710BD00BFB090FF1FBC90FF1F0D
:102A30002DE9F04704460122374B1A700E46002953
:102A400064D0DFF8E080DFF8E0909A46334FD8F8A2
:102A5000003083BB99F8003013F0FF0F06D100223D
:102A60002D4B1A704FF0FF30BDE8F08747F2095543
:102A70000420FFF7B7FA07280AD801238AF80030A4
:102A8000FFF716FFC8F80000A8B900238AF8003045
:102A9000013D01D03B7833B10122204B1A704FF039
:102AA000FF30BDE8F08700F055FA99F8003013F0D8
:102AB000FF0FDDD1D3E700233B70D8F800104A8820
:102AC000C2F14005AE4238BF354602F108030B445F
:102AD0002A444A80761B3DB1254414F8012B03F8A3
:102AE000012BAC42F9D100E025464B883F2B07D99A
:102AF00040230B800420FFF7CFFA0023C8F80030F2
:102B00000522074B1A700EB12C46A0E70020024B9D
:102B10001870BDE8F08700BFB390FF1FB890FF1F8B
:102B2000B290FF1FB490FF1FB090FF1F00B583B09D
:102B300002AB03F8010D18460121FFF779FF03B03E
:102B40005DF804FB10B5144B1B7813F0FF0F21D078
:102B50000122124B1A70124B196851B10024114B0B
:102B60001C704B880B800420FFF796FA0C4B1C60FE
:102B70000DE0FFF79DFE014630B10022094B1A70AF
:102B80000420FFF789FA02E00122064B1A700022A6
:102B9000024B1A7010BD00BFB090FF1FB390FF1F13
:102BA000B490FF1FB290FF1F08B50E4B1B7813F0B7
:102BB000FF0F16D10C4B196841B14B880B800420D4
:102BC000FFF76AFA0022084B1A6008BDFFF770FE93
:102BD000014618B10420FFF75FFA08BD0122034B3C
:102BE0001A7008BDB390FF1FB490FF1FB290FF1F73
:102BF00008B503681B68C9B2984708BD08B50368E3
:102C00001B68C9B2984708BD08B503681B68C9B2FC
:102C1000984708BD08B503681B68C9B2984708BD46
:102C200008B54B0803F1B76000F55840B0FBF1F070
:102C300000F0AAFA08BD00BF10B514464B0803F116
:102C4000B76000F55840B0FBF1F000F09DFA204667
:102C500000F002FB10BD00BF08B500F02DFB08BD61
:102C600008B5084600F062FB08BD00BF08B508467D
:102C700000F0B6FB08BD00BF08B50846114600F0DD
:102C800071FB08BD08B5084600F0D6FB003018BF40
:102C9000012008BD08B5084600F0F0FB003018BF61
:102CA000012008BD08B500F0E9FC08BD08B500F03A
:102CB0002FFD08BD08B500F0F1FC08BD08B500F017
:102CC000BBFC08BD08B500F03DFD08BD08B500F02F
:102CD000C3FC08BD08B5084600F0FCFB012008BD98
:102CE00008B5084600F0F6FB012008BD10B51446F3
:102CF0000846114600F03EFC204610BD38B50D4692
:102D0000084602F0E9FE04462846214600F032FC5F
:102D1000204638BD704700BF044B00221A714FF4A3
:102D20007A7199601A73024A1A607047C490FF1F43
:102D3000485E000010B5044601F08AFE204610BD32
:102D400010B5234B1B6883B1224A1268012182F817
:102D50008010013B13F1050F02D01D4A136010BD16
:102D60006FF002021A4B1A6010BD1A4B1B68012249
:102D70001A70194B1B681BB3184B1C6820460021A6
:102D800002F0EAFDA8B92046154902F0F9FD80B924
:102D90002046144902F038FC4FF07C5102F02AFB27
:102DA00002F0F8FD0246272803D90F480F4901F029
:102DB00037FE094B1A6806490A6000221A6010BDE6
:102DC000094801F045FEFF22094B1A7010BD00BFF3
:102DD000F090FF1FE890FF1FEC90FF1FF490FF1F83
:102DE000ABAAAA4C00004042D490FF1F412D000026
:102DF0006C87FF1F70B5044621286AD842B102FBD8
:102E000001F6344BA3FB0626B6097600013601E035
:102E10006FF00206084602F09FFB01462E4802F0C2
:102E2000A7FC05462D4B03EBC403596872B62C4B27
:102E30001B789C4216D12B4B196802F079FD38B1F2
:102E4000294B1A6802F00102013A16441E603FE065
:102E5000244B1D60254B1E60234B1A6802F00102B3
:102E60001A6035E0212B03D8214B1B6801221A7010
:102E70001B4B1C70194B53F8343003F580701C4AFF
:102E80001060012283F8002183F880224FF4A2739E
:102E90000B60154B1E60134B1D602846002102F08D
:102EA0005BFDA8B92846134902F06AFD80B928469F
:102EB000114902F0A9FB4FF07C5102F09BFA02F09D
:102EC00069FD0246272803D90C480D4901F0A8FDE9
:102ED00062B670BDD34D62100024F448305D00002E
:102EE0006C87FF1FF490FF1FF090FF1FEC90FF1FF7
:102EF000E890FF1FABAAAA4C00004042D490FF1FED
:102F0000412D000008B5054800230370802343735A
:102F10000349044A02F05EFD08BD00BFD490FF1FC4
:102F2000352D00006087FF1F10B4401A019CE41A81
:102F300004FB00F4521A94FBF2F018445DF8044BC1
:102F4000704700BF08B5FDF78FFAFDF7DDFB00F015
:102F500001F8FAE708B50F4B1B78CBB901220D4BEE
:102F60001A70FFF73BFD08B101F09CFD00F086FBF5
:102F700008B1FFF7CFFE00F033FF08B101F0C2FB4C
:102F800001F000FA08B101F05FFC0022014B1A7059
:102F900008BD00BFF890FF1F60223A4B1A70E12273
:102FA00001331A70384B1B78082B10D1012203F122
:102FB000804303F56C331A60132334490B6001F529
:102FC000FF2101F2FC710A60314A13601FE00A2BF5
:102FD0000DD139222F4B1A6013232C490B6001F5B8
:102FE000FF2101F2FC710A60294A13600FE00C2BEB
:102FF0000CBF35223D22274B1A60122323490B6058
:1030000001F5FF2101F2FC710A60214A1360224B95
:103010001B7833B10123214A136002F500221360AB
:1030200005E000231D4A136002F5002213601C4BCB
:103030001B78012B06D880231A4A136002F5002260
:1030400013601AE0042B06D88423164A136002F595
:103050000022136011E0082B06D88523114A136063
:1030600002F50022136008E0102B94BF862387230B
:103070000C4A136002F50022136001220A4B1A70F9
:10308000704700BF004007406D87FF1F0CB0034032
:103090000CB00B4008B00340FA90FF1F20B0034073
:1030A0006E87FF1F24B00340F990FF1F094B1A6879
:1030B00042F480521A60084B1B781BB18022074BE8
:1030C0001A7002E0C022054B1A7080F30C00044B0A
:1030D000188070472C800440FA90FF1F21C00C40DC
:1030E00000C00C40024B1A6801321A60704700BFE2
:1030F000CC8FFF1F08B50D4C236813F4802F01D02F
:10310000FFF712F8236813F4806F01D000F040FB42
:10311000236813F4006F01D000F0ECFE236813F471
:10312000805FE9D001F0A4F9E6E700BF34800440F5
:1031300008B5FFF7DFFF00BF1022014B1A80704770
:1031400000200540704700BFEFF31383ABB9EFF3E6
:103150001083ABB9EFF3058323B10F2B05D9094ACF
:10316000985C03E04FF4807000E00020EFF31183DF
:103170003BB1834238BF184670474FF0FF3070476D
:1031800000207047F0E300E0254B1A6842F48062AB
:103190001A600023234A1370234A1370234A1370C2
:1031A000234A1370234A1370234B1B7813B1152B3A
:1031B00005D008E040F21332204B1A6003E040F2E1
:1031C00013321F4B1A601F4B1B78012B02D0052BAB
:1031D00005D008E04FF451721B4B1A6003E04FF426
:1031E00051721A4B1A60C0F34432194B1A70C0F373
:1031F00047125A7000F01F00987204229A70022140
:10320000D9745A7588221A743C22DA704022114B04
:103210001A704FF40052A3F229331A60704700BFAE
:10322000348004408891FF1F0191FF1F9091FF1F80
:103230008991FF1F0091FF1F4491FF1F40A0044090
:1032400018C004406F87FF1F44A004401CC0044006
:1032500000A006402DE400E0164B9B7803F0EC0341
:1032600000F00302134310F0040F18BF43F01003E3
:10327000104A937000F00F03042B04D11346927987
:1032800042F040029A710B4B5A7902F0EF0210F0B3
:10329000100F18BF42F01002064B5A719B7903F0D1
:1032A000EF0310F0200F18BF43F01003014A937191
:1032B000704700BF00A0064010B5144B1B6813F404
:1032C000806F21D0124B1B7813F0FF0F06D0104CEB
:1032D000FFF740FE237813F0FF0FF9D14FF40052AF
:1032E0000C4B1A6000230C4AD37040F203120B49B6
:1032F0000A6004310A600A4A13700A4A13700A4BC2
:103300001B680BB101221A7010BD00BF348004404D
:103310000091FF1F84E100E000A0064040A00440AF
:103320008891FF1F0191FF1FFC90FF1F10B50446FD
:10333000094A137813F0FF0FFBD120460121FEF755
:1033400033FC20460021FEF70BFC044B53F83420DD
:10335000034B1A6010BD00BF0091FF1F305D0000DD
:103360008C91FF1F10B40C4609B140F08000184B3F
:103370001B78984228D0174A126812F4806F21D027
:1033800003F07F03012B02D0052B04D006E00022BE
:10339000114B1A6002E00022104B1A60002C0CBF87
:1033A0004422602200F07F03012B02D0052B05D0C0
:1033B00008E042F44072084B1A6003E042F44072A5
:1033C000064B1A60024B18705DF8044B704700BF43
:1033D0006F87FF1F3480044044A004401CC0044099
:1033E000114B1B7898421ED0104A126812F4806F5D
:1033F00017D013B1152B04D006E000220C4B1A6035
:1034000002E000220B4B1A6010B1152805D008E02D
:1034100040F21332064B1A6003E040F21332054BC0
:103420001A60014B187070474491FF1F34800440AC
:1034300040A0044018C0044010B50D4B1B6813F4A5
:10344000806F12D021280CD80A4C0B4B53F8303027
:1034500023600121FEF7A8FB236800221A700120D7
:1034600010BD0020034B186010BD002010BD00BF30
:1034700034800440FC90FF1F305D0000114B1B683E
:1034800013F4806F1BD0122804D140F202320E4B8D
:103490001A600DE0142804D140F202320B4B1A607E
:1034A00006E00B4B5A7B02F0FE025A730020704775
:1034B000074B5A7B42F001025A73012070470020EB
:1034C000704700BF348004400CA0044014C0044086
:1034D00000A006402DE9F04107461F4B1B6813F47E
:1034E000806F37D01D4B1B680BB101221A701C4B2B
:1034F0001C780134402C28BF00241A4D1A4EDFF8E6
:103500006C8017E0FFF720FE40280FDC337913F0C2
:10351000800F0FD02B780133402B28BF002318F8E1
:103520000320D2B2F271DBB22B7003E0FF2801DD81
:10353000FFF710FD2B78DBB29C42E3D0FFB20B4BC0
:103540001F5501220A4B1A70E4B2054B1C70BC22B5
:10355000054BDA70BDE8F081348004408C91FF1F88
:103560009091FF1F8991FF1F00A006400491FF1F4B
:103570000091FF1F2DE9F84F0746284B1B6813F4F5
:10358000806F49D0264B1B680BB101221A7007EBE4
:10359000010B5F453DD2DFF89890224EDFF88C801A
:1035A000DFF890A099F800400134402C28BF002497
:1035B0003578EDB2A54220D1BC2388F80330FFF75F
:1035C000C3FD402811DC98F8043013F0800F10D0B0
:1035D00033780133402B28BF00231AF80320D2B2DE
:1035E00088F80720DBB2337003E0FF2801DDFFF726
:1035F000B1FC3378DBB29D42E1D017F8013B0AF809
:1036000004300122084B1A70E4B289F800405F458B
:10361000C8D1BC22054BDA70BDE8F88F3480044075
:103620008C91FF1F8991FF1F0091FF1F00A0064092
:103630009091FF1F0491FF1F10B5064B1B7813F0EC
:10364000FF0F06D0034CFFF785FC237813F0FF0F24
:10365000F9D110BD0091FF1F064B1B78DBB2064A63
:103660001278D2B293422CBF3F3202F1FF32D01A0D
:10367000704700BF9091FF1F8991FF1F054B18787D
:10368000C0B2054B1B78DBB2984238BF4030C01A3D
:10369000704700BF8891FF1F0191FF1F10B4184BA6
:1036A0001A78D2B2174B1B78DBB29A4218D001338A
:1036B0003F2B18D81449C85CC0B2DCB211490C7059
:1036C00012490968C9B19A4203D300E00023D31A12
:1036D00001E04032D31A1A2B0FDC00230B700CE0F0
:1036E0004FF0FF3009E0084B1878C0B20021054BBD
:1036F0001970064B19680029E8D15DF8044B704732
:103700008891FF1F0191FF1F4891FF1FFC90FF1F31
:10371000094B1A78D2B2094B1B78DBB29A4207D018
:103720000133402B28BF0023054AD05CC0B270474C
:103730004FF0FF30704700BF8891FF1F0191FF1FBE
:103740004891FF1F0D4B1B6813F4806F14D00C4B76
:10375000DA7802F0CB02DA7040225A74DA7842F05A
:103760003402DA70074B1A78D2B2074B1A70074B43
:103770001B680BB100221A70704700BF34800440F0
:1037800000A006400191FF1F8891FF1FFC90FF1FC2
:1037900070B43D4B1B7913F0300F33D072B63A4BF7
:1037A0009B7D03F0FF022BB9374BDA7940225A7424
:1037B00062B627E062B6354B1978C9B2344B1C7833
:1037C000E4B2314D334EEB79D8B24B1C402B28BFBD
:1037D0000023A3421CBFF0541946531E13F0FF02EE
:1037E000F1D1CAB2294B1A702B4B1B6853B1A142BD
:1037F0002EBFC4EB0101C4F1400409192729C4BF3D
:1038000001221A70204BDA78D2B212F0800F27D042
:103810001B7913F0800F23D0204B1C78E4B2204B8F
:103820001B78DBB29C4210D017491E4D01E0A34229
:103830000BD00133402B28BF00230879E85CC0B2CD
:10384000C871087DC0B20728F1D9DBB214490B70EA
:103850000D4B1B7913F0800F02D07C210A4BD970DD
:1038600012F0400F0ED0084B1B7913F0400F09D017
:1038700000220D4B1A700D4B1B6803B11A703C22CD
:10388000014BDA7070BC704700A006408891FF1FA2
:103890000191FF1F4891FF1FFC90FF1F9091FF1F98
:1038A0008991FF1F0491FF1F0091FF1F8C91FF1F43
:1038B000254B1A6842F400621A600023234A1370F1
:1038C000234A1370234A1370234A1370234A137038
:1038D000234B1B78092B02D01A2B05D008E040F2AD
:1038E0001332204B1A6003E040F213321E4B1A6071
:1038F0001E4B1B780A2B02D01F2B05D008E04FF47B
:1039000051721B4B1A6003E04FF45172194B1A604D
:10391000C0F34432184B1A70C0F347125A7000F0CB
:103920001F00987204229A700221D9745A75882255
:103930001A743C22DA704022104B1A704FF4004285
:10394000A3F22B331A607047348004400492FF1FA7
:103950009991FF1F0C92FF1F0592FF1F9891FF1F67
:103960007087FF1F0CB0044004D004407187FF1F14
:1039700010B0044000D0044000B006402FE400E046
:10398000164B9B7803F0EC0300F00302134310F096
:10399000040F18BF43F01003104A937000F00F0398
:1039A000042B04D11346927942F040029A710B4BDA
:1039B0005A7902F0EF0210F0100F18BF42F0100217
:1039C000064B5A719B7903F0EF0310F0200F18BFDC
:1039D00043F01003014A9371704700BF00B00640E6
:1039E00010B5224B1B6813F4006F3ED0204B1B78A0
:1039F00013F0FF0F06D01E4CFFF7ACFA237813F03C
:103A0000FF0FF9D14FF400421A4B1A6000221A4BF3
:103A1000DA701A4B1B78092B02D01A2B05D008E05C
:103A200040F20312164B1A6003E040F20312154BEA
:103A30001A60154B1B7803F07F030A2B02D01F2B53
:103A400005D008E040F20312104B1A6003E040F288
:103A500003120F4B1A6000230E4A13700E4A1370A4
:103A60000E4B1B680BB101221A7010BD348004404C
:103A70009891FF1F84E100E000B006407087FF1FAF
:103A80000CB0044004D004407187FF1F10B0044004
:103A900000D004400492FF1F9991FF1F9491FF1FD3
:103AA00010B50446094A137813F0FF0FFBD12046E6
:103AB0000121FEF779F820460021FEF751F8044B6A
:103AC00053F83420034B1A6010BD00BF9891FF1FBC
:103AD000305D00000892FF1F10B40C4609B140F0A1
:103AE0008000184B1B78984228D0174A126812F4AD
:103AF000006F21D003F07F030A2B02D01F2B04D0CC
:103B000006E00022114B1A6002E00022104B1A60FE
:103B1000002C0CBF4422602200F07F030A2B02D04D
:103B20001F2B05D008E042F44072084B1A6003E0F6
:103B300042F44072064B1A60024B18705DF8044B59
:103B4000704700BF7187FF1F3480044010B00440ED
:103B500000D00440124B1B78984220D0114A1268C2
:103B600012F4006F19D0092B02D01A2B04D006E0F2
:103B700000220D4B1A6002E000220C4B1A6009284B
:103B800002D01A2805D008E040F21332064B1A6022
:103B900003E040F21332054B1A60014B1870704776
:103BA0007087FF1F348004400CB0044004D00440F0
:103BB00010B50D4B1B6813F4006F12D021280CD8E0
:103BC0000A4C0B4B53F8303023600121FDF7ECFF1A
:103BD000236800221A70012010BD0020034B1860DA
:103BE00010BD002010BD00BF348004409491FF1F21
:103BF000305D00000D4B1B6813F4006F13D01728C5
:103C00000AD140F202320A4B1A600A4B5A7B42F048
:103C100001025A7301207047064B5A7B02F0FE02E4
:103C20005A73002070470020704700BF3480044062
:103C300008B0044000B006402DE9F04107461F4B94
:103C40001B6813F4006F37D01D4B1B680BB10122AA
:103C50001A701C4B1C780134282C28BF00241A4DE4
:103C60001A4EDFF86C8017E0FFF76EFA40280FDC81
:103C7000337913F0800F0FD02B780133282B28BF16
:103C8000002318F80320D2B2F271DBB22B7003E0EC
:103C9000FF2801DDFFF75EF92B78DBB29C42E3D011
:103CA000FFB20B4B1F5501220A4B1A70E4B2054BB1
:103CB0001C70BC22054BDA70BDE8F08134800440F2
:103CC0000892FF1F0C92FF1F0592FF1F00B00640D5
:103CD0009C91FF1F9891FF1F2DE9F84F0746284B35
:103CE0001B6813F4006F49D0264B1B680BB10122EF
:103CF0001A7007EB010B5F453DD2DFF89890224E1A
:103D0000DFF88C80DFF890A099F800400134282C6F
:103D100028BF00243578EDB2A54220D1BC2388F815
:103D20000330FFF711FA402811DC98F8043013F043
:103D3000800F10D033780133282B28BF00231AF8C6
:103D40000320D2B288F80720DBB2337003E0FF28EB
:103D500001DDFFF7FFF83378DBB29D42E1D017F8C1
:103D6000013B0AF804300122084B1A70E4B289F8CA
:103D700000405F45C8D1BC22054BDA70BDE8F88F22
:103D8000348004400892FF1F0592FF1F9891FF1F87
:103D900000B006400C92FF1F9C91FF1F10B5064B10
:103DA0001B7813F0FF0F06D0034CFFF7D3F82378EE
:103DB00013F0FF0FF9D110BD9891FF1F064B1B7830
:103DC000DBB2064A1278D2B293422CBF273202F1FC
:103DD000FF32D01A704700BF0C92FF1F0592FF1FE1
:103DE000054B1878C0B2054B1B78DBB2984238BF40
:103DF0004030C01A704700BF0492FF1F9991FF1F07
:103E000010B4184B1A78D2B2174B1B78DBB29A4217
:103E100018D001333F2B18D81449C85CC0B2DCB2AB
:103E200011490C7012490968C9B19A4203D300E0E4
:103E30000023D31A01E04032D31A1A2B0FDC0023DF
:103E40000B700CE04FF0FF3009E0084B1878C0B25F
:103E50000021054B1970064B19680029E8D15DF85F
:103E6000044B70470492FF1F9991FF1FC491FF1FDD
:103E70009491FF1F094B1A78D2B2094B1B78DBB221
:103E80009A4207D00133402B28BF0023054AD05C5B
:103E9000C0B270474FF0FF30704700BF0492FF1F61
:103EA0009991FF1FC491FF1F0D4B1B6813F4006F06
:103EB00014D00C4BDA7802F0CB02DA7040225A743C
:103EC000DA7842F03402DA70074B1A78D2B2074B34
:103ED0001A70074B1B680BB100221A70704700BFA5
:103EE0003480044000B006409991FF1F0492FF1FE8
:103EF0009491FF1F70B43D4B1B7913F0300F33D0FA
:103F000072B63A4B9B7D03F0FF022BB9374BDA793F
:103F100040225A7462B627E062B6354B1978C9B2AE
:103F2000344B1C78E4B2314D334EEB79D8B24B1C94
:103F3000402B28BF0023A3421CBFF0541946531E38
:103F400013F0FF02F1D1CAB2294B1A702B4B1B6838
:103F500053B1A1422EBFC4EB0101C4F140040919C1
:103F60002729C4BF01221A70204BDA78D2B212F08E
:103F7000800F27D01B7913F0800F23D0204B1C78A3
:103F8000E4B2204B1B78DBB29C4210D017491E4D87
:103F900001E0A3420BD00133282B28BF002308796E
:103FA000E85CC0B2C871087DC0B20728F1D9DBB2A5
:103FB00014490B700D4B1B7913F0800F02D07C213C
:103FC0000A4BD97012F0400F0ED0084B1B7913F03A
:103FD000400F09D000220D4B1A700D4B1B6803B126
:103FE0001A703C22014BDA7070BC704700B006407A
:103FF0000492FF1F9991FF1FC491FF1F9491FF1F0F
:104000000C92FF1F0592FF1F9C91FF1F9891FF1FAD
:104010000892FF1F174B1A6842F480521A6000235F
:10402000154A1370154A1370154A1370154A137008
:10403000154A137040F21331144A11604FF4517154
:1040400004321160C0F34431114A1170C0F34711BA
:10405000517000F01F009072937013742C23D37072
:1040600040220C4B1A704FF40032A3F22D331A6029
:10407000704700BF348004408092FF1F1592FF1FDD
:104080008892FF1F8192FF1F1492FF1F08C00440F7
:1040900000C0064031E400E0164B9B7803F0EC03CF
:1040A00000F00302134310F0040F18BF43F0100395
:1040B000104A937000F00F03042B04D11346927939
:1040C00042F040029A710B4B5A7902F0EF0210F065
:1040D000100F18BF42F01002064B5A719B7903F083
:1040E000EF0310F0200F18BF43F01003014A937143
:1040F000704700BF00C0064010B5144B1B6813F496
:10410000805F21D0124B1B7813F0FF0F06D0104CAC
:10411000FEF720FF237813F0FF0FF9D14FF40032A0
:104120000C4B1A6000230C4AD37040F203120B4967
:104130000A6004310A600A4A13700A4A13700A4B73
:104140001B680BB101221A7010BD00BF34800440FF
:104150001492FF1F84E100E000C0064008C0044044
:104160008092FF1F1592FF1F1092FF1F10B504468B
:10417000094A137813F0FF0FFBD120460121FDF708
:1041800013FD20460021FDF7EBFC044B53F83420CF
:10419000034B1A6010BD00BF1492FF1F305D00007A
:1041A0008492FF1F10B40C4609B140F08000104B00
:1041B0001B78984219D00F4A126812F4805F12D00F
:1041C00003F07F03082B02D100220B4B1A60002C56
:1041D0000CBF4422602200F07F03082B03D142F47D
:1041E0004072054B1A60024B18705DF8044B704723
:1041F0007287FF1F348004400CC00440704700BF2A
:1042000010B50D4B1B6813F4805F12D021280CD819
:104210000A4C0B4B53F8303023600121FDF7C4FCEE
:10422000236800221A70012010BD0020034B186083
:1042300010BD002010BD00BF348004401092FF1F4D
:10424000305D00000D4B1B6813F4805F13D00E2807
:104250000AD140F202320A4B1A600A4B5A7B42F0F2
:1042600001025A7301207047064B5A7B02F0FE028E
:104270005A73002070470020704700BF348004400C
:1042800004C0044000C006402DE9F04107461F4B22
:104290001B6813F4805F37D01D4B1B680BB10122E4
:1042A0001A701C4B1C780134282C28BF00241A4D8E
:1042B0001A4EDFF86C8017E0FEF746FF40280FDC4F
:1042C000337913F0800F0FD02B780133282B28BFC0
:1042D000002318F80320D2B2F271DBB22B7003E096
:1042E000FF2801DDFEF736FE2B78DBB29C42E3D0DF
:1042F000FFB20B4B1F5501220A4B1A70E4B2054B5B
:104300001C70AC22054BDA70BDE8F08134800440AB
:104310008492FF1F8892FF1F8192FF1F00C00640FA
:104320001892FF1F1492FF1F38B505460C4629B19D
:1043300015F8010BFFF7A8FF013CF9D138BD00BF0C
:1043400010B5064B1B7813F0FF0F06D0034CFEF799
:1043500001FE237813F0FF0FF9D110BD1492FF1F57
:10436000064B1B78DBB2064A1278D2B293422CBFBE
:10437000273202F1FF32D01A704700BF8892FF1F28
:104380008192FF1F054B1878C0B2054B1B78DBB23A
:10439000984238BF4030C01A704700BF8092FF1F5C
:1043A0001592FF1F10B4184B1A78D2B2174B1B7816
:1043B000DBB29A4218D001333F2B18D81449C85C9D
:1043C000C0B2DCB211490C7012490968C9B19A42F5
:1043D00003D300E00023D31A01E04032D31A1A2B92
:1043E0000FDC00230B700CE04FF0FF3009E0084BAE
:1043F0001878C0B20021054B1970064B19680029C6
:10440000E8D15DF8044B70478092FF1F1592FF1FA3
:104410004092FF1F1092FF1F094B1A78D2B2094B2E
:104420001B78DBB29A4207D00133402B28BF002310
:10443000054AD05CC0B270474FF0FF30704700BFF4
:104440008092FF1F1592FF1F4092FF1F054B1A78A5
:10445000D2B2054B1A70054B1B680BB100221A70C3
:10446000704700BF1592FF1F8092FF1F1092FF1F21
:104470002F4B1B7913F0200F23D02D4BDB79D9B2B2
:104480002C4B1B780133402B28BF00232A4A12787B
:10449000D2B29A4204D0294AD154D9B2254A1170D5
:1044A000274A116869B1274A1278D2B293422EBFC7
:1044B000C2EB0303C2F140029B18272BC4BF0123A8
:1044C0000B701B4BDB78DBB213F0800F1CD0184A4B
:1044D000127912F0800F17D01B4A1178C9B2194A0D
:1044E0001278D2B2914203D16C21114AD1700BE003
:1044F0000132282A28BF00221449885CC0B20C4926
:10450000C871D2B20F490A7013F0400F0ED0084B99
:104510001B7913F0400F09D000220D4B1A700D4B80
:104520001B6803B11A702C22014BDA70704700BF70
:1045300000C006408092FF1F1592FF1F4092FF1F90
:104540001092FF1F8192FF1F8892FF1F1892FF1F7A
:104550001492FF1F8492FF1F00B585B072B61B4BEB
:1045600070221A7041211A4A11700F21013A1170FC
:1045700080221A701A46137813F0800FFBD0154B67
:10458000186862B6144B98429CBF00EB8000400054
:1045900001A90A2200F096FA9DF804307BB908E0E0
:1045A00001A9595C31B19180023201330A2BF7D154
:1045B00000E0002301335B00084A137003E0074A60
:1045C00053800123ECE705B05DF804FB00000240D6
:1045D00007000240080002407F9698000088FF1FF5
:1045E00008B503681B68C9B2984708BD08B50368D9
:1045F0001B68C9B2984708BD08B503681B68C9B2F3
:10460000984708BD08B503681B68C9B2984708BD3C
:1046100008B54B0803F1B76000F55840B0FBF1F066
:10462000FFF746F908BD00BF10B514464B0803F16B
:10463000B76000F55840B0FBF1F0FFF739F92046BC
:10464000FFF79EF910BD00BF08B5FFF7C9F908BD17
:1046500008B50846FFF724FA08BD00BF08B50846AC
:10466000FFF778FA08BD00BF08B508461146FFF706
:1046700033FA08BD08B50846FFF79AFA003018BFAC
:10468000012008BD08B50846FFF7B4FA003018BF8E
:10469000012008BD08B5FFF7A3FB08BD08B5FFF76B
:1046A000E9FB08BD08B5FFF7ABFB08BD08B5FFF790
:1046B00075FB08BD08B5FFF7F7FB08BD08B5FFF7A8
:1046C0007DFB08BD08B50846FFF7B6FA012008BD16
:1046D00008B50846FFF7B0FA012008BD10B514462A
:1046E00008461146FFF7F8FA204610BD38B50D46CA
:1046F000084601F0F1F9044628462146FFF7ECFA96
:10470000204638BD704700BF044B00221A714FF499
:104710007A7199601A73024A1A6070478C92FF1F6F
:10472000005F000008B503681B68C9B2984708BD60
:1047300008B503681B68C9B2984708BD08B5036887
:104740001B68C9B2984708BD08B503681B68C9B2A1
:10475000984708BD08B54B0803F1B76000F558400D
:10476000B0FBF1F0FFF756FC08BD00BF10B51446D2
:104770004B0803F1B76000F55840B0FBF1F0FFF7CC
:1047800049FC2046FFF788FC10BD00BF08B5FFF7C5
:10479000B3FC08BD08B50846FFF7E8FC08BD00BF3C
:1047A00008B50846FFF72AFD08BD00BF08B5084652
:1047B0001146FFF7F7FC08BD08B50846FFF720FDD6
:1047C000003018BF012008BD08B50846FFF73AFDC4
:1047D000003018BF012008BD08B5FFF7D3FD08BDA4
:1047E00008B5FFF719FE08BD08B5FFF7DBFD08BDEA
:1047F00008B5FFF7A5FD08BD08B5FFF727FE08BD02
:1048000008B5FFF7ADFD08BD08B50846FFF73CFD4C
:10481000012008BD08B50846FFF736FD012008BD98
:1048200010B5144608461146FFF77EFD204610BD20
:1048300038B50D46084601F04FF904462846214692
:10484000FFF772FD204638BD704700BF044B0022C1
:104850001A714FF47A7199601A73024A1A6070479C
:104860009C92FF1F605F000008B50122024B1A6096
:10487000024B1B68984708BD0C710340B492FF1FA0
:1048800008B50122024B1A60024B5B68984708BDCD
:104890001C710340B492FF1F08B50122024B1A603D
:1048A000024B9B68984708BD2C710340B492FF1FD0
:1048B00008B50122024B1A60024BDB68984708BD1D
:1048C0003C710340B492FF1F054B1A6842F400028A
:1048D0001A600022034B1A600122034B1A707047C2
:1048E0003C80044000700340B092FF1F0122064B41
:1048F0001A6003F588333C331A6822F400021A6008
:104900000022024B1A70704700700340B092FF1FE4
:1049100010B442781401164B23444360154B2344D2
:1049200083600369144C44F82230836800221A60C3
:1049300043681960836803221A6043784433DBB20A
:10494000037303F1604303F56443427B1A70027BF7
:1049500053119B0003F1604303F5614302F01F0212
:10496000012101FA02F21A605DF8044B704700BFA2
:104970000071034008710340B492FF1F70B50446F4
:104980000D46134B1B780BB9FFF79EFF114B1B789D
:104990008BB1104B5B7843B10E4B9B7843B10D4B01
:1049A000DB789BB903231E4607E001231E4604E083
:1049B00002231E4601E00026334663702046294646
:1049C000FFF7A6FF0120034B985570BD002070BD76
:1049D000B092FF1FAC92FF1F10B5836800221A60CF
:1049E000037B5C1103F01F03012101FA03F30A4961
:1049F00041F82430094B41785A541B7853B9074B7E
:104A00005B783BB9054B9B7823B9044BDB780BB93A
:104A1000FFF76CFF10BD00BF80E100E0AC92FF1F0C
:104A200070B504460E46154603781BB1FFF7D4FF58
:104A300000232370266120462946FFF79FFF10B10F
:104A40000123237001E000232370207870BD00BF94
:104A500010B5044603780BB1FFF7BEFF00232370A7
:104A600010BD00BF08B5FDF7B9FF08BD08B5FDF7DB
:104A700069FF08BD08B5FDF791FF08BD08B5FEF751
:104A800061F808BD08B5FDF7B7FF08BD08B50846D1
:104A9000FEF74CF808BD00BF08B508461146FDF703
:104AA000C7FF08BD704700BF044B00221A714FF4C6
:104AB0007A7199601A73024A1A607047C492FF1F94
:104AC000C05F000030B40023B0FBF2F402FB14041A
:104AD0001D46092C94BF30343734E4B2CC54B0FBBB
:104AE000F2F008B10133EFE70D4400226A709342FF
:104AF00007DD885CCC5C8C54C8540132013B9A427F
:104B0000F7DB084630BC704781F0004102E000BF8F
:104B100083F0004330B54FEA41044FEA430594EA7D
:104B2000050F08BF90EA020F1FBF54EA000C55EAB8
:104B3000020C7FEA645C7FEA655C00F0E2804FEA89
:104B40005454D4EB5555B8BF6D420CDD2C4480EA6B
:104B5000020281EA030382EA000083EA010180EA9B
:104B6000020281EA0303362D88BF30BD11F0004FE9
:104B70004FEA01314FF4801C4CEA113102D040421F
:104B800061EB410113F0004F4FEA03334CEA13335A
:104B900002D0524263EB430394EA050F00F0A78072
:104BA000A4F10104D5F1200E0DDB02FA0EFC22FA6D
:104BB00005F2801841F1000103FA0EF2801843FA61
:104BC00005F359410EE0A5F120050EF1200E012A52
:104BD00003FA0EFC28BF4CF0020C43FA05F3C01890
:104BE00051EBE37101F0004507D54FF0000EDCF109
:104BF000000C7EEB00006EEB0101B1F5801F1BD3B2
:104C0000B1F5001F0CD349085FEA30004FEA3C0CB5
:104C100004F101044FEA445212F5800F80F09A80AB
:104C2000BCF1004F08BF5FEA500C50F1000041EBAF
:104C3000045141EA050130BD5FEA4C0C404141EBB3
:104C4000010111F4801FA4F10104E9D191F0000FDA
:104C500004BF01460020B1FA81F308BF2033A3F15D
:104C60000B03B3F120020CDA0C3208DD02F1140C54
:104C7000C2F10C0201FA0CF021FA02F10CE002F18F
:104C80001402D8BFC2F1200C01FA02F120FA0CFC88
:104C9000DCBF41EA0C019040E41AA2BF01EB0451D1
:104CA000294330BD6FEA04041F3C1CDA0C340EDCCF
:104CB00004F11404C4F1200220FA04F001FA02F312
:104CC00040EA030021FA04F345EA030130BDC4F1D0
:104CD0000C04C4F1200220FA02F001FA04F340EAC5
:104CE0000300294630BD21FA04F0294630BD94F076
:104CF000000F83F4801306BF81F480110134013D5D
:104D00004EE77FEA645C18BF7FEA655C29D094EACD
:104D1000050F08BF90EA020F05D054EA000C04BF4B
:104D20001946104630BD91EA030F1EBF0021002036
:104D300030BD5FEA545C05D14000494128BF41F0D5
:104D4000004130BD14F580043CBF01F5801130BD39
:104D500001F0004545F0FE4141F470014FF00000C4
:104D600030BD7FEA645C1ABF194610467FEA655C75
:104D70001CBF0B46024650EA013406BF52EA033517
:104D800091EA030F41F4002130BD00BF90F0000F05
:104D900004BF0021704730B54FF4806404F1320441
:104DA0004FF000054FF0000150E700BF90F0000FFA
:104DB00004BF0021704730B54FF4806404F1320421
:104DC00010F0004548BF40424FF000013EE700BFF1
:104DD00042004FEAE2014FEA31014FEA02701FBF81
:104DE00012F07F4393F07F4F81F06051704792F053
:104DF000000F14BF93F07F4F704730B54FF46074CD
:104E000001F0004521F0004120E700BF50EA010217
:104E100008BF704730B54FF000050AE050EA0102C4
:104E200008BF704730B511F0004502D5404261EB34
:104E300041014FF4806404F132045FEA915C3FF475
:104E4000DCAE4FF003025FEADC0C18BF03325FEA0E
:104E5000DC0C18BF033202EBDC02C2F1200300FAC3
:104E600003FC20FA02F001FA03FE40EA0E0021FAE8
:104E700002F11444C1E600BF70B54FF0FF0C4CF4D2
:104E8000E06C1CEA11541DBF1CEA135594EA0C0F88
:104E900095EA0C0F00F0DEF82C4481EA030621EAC3
:104EA0004C5123EA4C5350EA013518BF52EA0335FE
:104EB00041F4801143F4801338D0A0FB02CE4FF0B0
:104EC0000005E1FB02E506F00042E0FB03E54FF0E0
:104ED0000006E1FB03569CF0000F18BF4EF0010ED8
:104EE000A4F1FF04B6F5007F64F5407404D25FEAD4
:104EF0004E0E6D4146EB060642EAC62141EA555187
:104F00004FEAC52040EA5E504FEACE2EB4F1FD0CC8
:104F100088BFBCF5E06F1ED8BEF1004F08BF5FEA46
:104F2000500E50F1000041EB045170BD06F00046F8
:104F300046EA010140EA020081EA0301B4EB5C04A5
:104F4000C2BFD4EB0C0541EA045170BD41F480119D
:104F50004FF0000E013C00F3AB8014F1360FDEBFC2
:104F6000002001F0004170BDC4F10004203C35DA9E
:104F70000C341BDC04F11404C4F1200500FA05F321
:104F800020FA04F001FA05F240EA020001F00042C2
:104F900021F0004110EBD37021FA04F642EB060138
:104FA0005EEA430E08BF20EAD37070BDC4F10C0462
:104FB000C4F1200500FA04F320FA05F001FA04F226
:104FC00040EA020001F0004110EBD37041F1000112
:104FD0005EEA430E08BF20EAD37070BDC4F120051D
:104FE00000FA05F24EEA020E20FA04F301FA05F285
:104FF00043EA020321FA04F001F0004121FA04F22D
:1050000020EA020000EBD3705EEA430E08BF20EAFC
:10501000D37070BD94F0000F0FD101F00046400036
:1050200041EB010111F4801F08BF013CF7D041EAB8
:10503000060195F0000F18BF704703F000465200BC
:1050400043EB030313F4801F08BF013DF7D043EA8D
:105050000603704794EA0C0F0CEA135518BF95EA43
:105060000C0F0CD050EA410618BF52EA4306D1D1CA
:1050700081EA030101F000414FF0000070BD50EAE9
:10508000410606BF1046194652EA430619D094EA73
:105090000C0F02D150EA013613D195EA0C0F05D15D
:1050A00052EA03361CBF104619460AD181EA0301B1
:1050B00001F0004141F0FE4141F470014FF0000069
:1050C00070BD41F0FE4141F4780170BD70B54FF004
:1050D000FF0C4CF4E06C1CEA11541DBF1CEA135584
:1050E00094EA0C0F95EA0C0F00F0A7F8A4EB050466
:1050F00081EA030E52EA03354FEA013100F088805D
:105100004FEA03334FF0805545EA131343EA126325
:105110004FEA022245EA111545EA10654FEA0026DA
:105120000EF000419D4208BF964244F1FD0404F593
:10513000407402D25B084FEA3202B61A65EB0305EF
:105140005B084FEA32024FF480104FF4002CB6EBAC
:10515000020E75EB030E22BFB61A754640EA0C002C
:105160005B084FEA3202B6EB020E75EB030E22BF6C
:10517000B61A754640EA5C005B084FEA3202B6EBAD
:10518000020E75EB030E22BFB61A754640EA9C006C
:105190005B084FEA3202B6EB020E75EB030E22BF3C
:1051A000B61A754640EADC0055EA060E18D04FEAFA
:1051B000051545EA16754FEA06164FEAC30343EA9A
:1051C00052734FEAC2025FEA1C1CC0D111F4801F67
:1051D0000BD141EA00014FF000004FF0004CB6E760
:1051E00011F4801F04BF01430020B4F1FD0C88BFFF
:1051F000BCF5E06F3FF6AFAEB5EB030C04BFB6EB0A
:10520000020C5FEA500C50F1000041EB045170BDFC
:105210000EF0004E4EEA113114EB5C04C2BFD4EB29
:105220000C0541EA045170BD41F480114FF0000EAD
:10523000013C90E645EA060E8DE60CEA135594EA29
:105240000C0F08BF95EA0C0F3FF43BAF94EA0C0F2C
:105250000AD150EA01347FF434AF95EA0C0F7FF4A1
:1052600025AF104619462CE795EA0C0F06D152EAF5
:1052700003353FF4FDAE1046194622E750EA4106D9
:1052800018BF52EA43067FF4C5AE50EA41047FF4EA
:105290000DAF52EA43057FF4EBAE12E74FF0FF3C4F
:1052A00006E000BF4FF0010C02E000BF4FF0010C20
:1052B0004DF804CD4FEA410C7FEA6C5C4FEA430C99
:1052C00018BF7FEA6C5C1BD001B050EA410C0CBFE8
:1052D00052EA430C91EA030F02BF90EA020F00204A
:1052E000704710F1000F91EA030F58BF994208BFB1
:1052F00090422CBFD8176FEAE37040F0010070476E
:105300004FEA410C7FEA6C5C02D150EA013C07D1C4
:105310004FEA430C7FEA6C5CD6D152EA033CD3D00F
:105320005DF8040B704700BF8446104662468C4609
:105330001946634600E000BF01B5FFF7B7FF00283C
:1053400048BF10F1000F01BD4DF808EDFFF7F4FF65
:105350000CBF012000205DF808FB00BF4DF808EDF0
:10536000FFF7EAFF34BF012000205DF808FB00BF13
:105370004DF808EDFFF7E0FF94BF012000205DF835
:1053800008FB00BF4DF808EDFFF7CEFF94BF0120EA
:1053900000205DF808FB00BF4DF808EDFFF7C4FFE3
:1053A00034BF012000205DF808FB00BF4A0011D285
:1053B00012F5001211D20DD56FF47873B3EB62526F
:1053C0000ED44FEAC12343F0004343EA505323FA7B
:1053D00002F070474FF00000704750EA013002D1F0
:1053E0004FF0FF3070474FF00000704780F00040F2
:1053F00002E000BF81F0004142001FBF5FEA4103AD
:1054000092EA030F7FEA226C7FEA236C6AD04FEAAC
:105410001262D2EB1363C1BFD218414048404140F1
:10542000B8BF5B42192B88BF704710F0004F40F4A3
:10543000000020F07F4018BF404211F0004F41F4BF
:10544000000121F07F4118BF494292EA030F3FD08B
:10545000A2F1010241FA03FC10EB0C00C3F120039E
:1054600001FA03F100F0004302D5494260EB40002D
:10547000B0F5000F13D3B0F1807F06D340084FEA98
:10548000310102F10102FE2A51D2B1F1004F40EB8D
:10549000C25008BF20F0010040EA030070474900F5
:1054A00040EB000010F4000FA2F10102EDD1B0FAC0
:1054B00080FCACF1080CB2EB0C0200FA0CF0AABFB5
:1054C00000EBC25052421843BCBFD0401843704753
:1054D00092F0000F81F4000106BF80F40000013259
:1054E000013BB5E74FEA41037FEA226C18BF7FEA30
:1054F000236C21D092EA030F04D092F0000F08BF72
:105500000846704790EA010F1CBF0020704712F058
:105510007F4F04D1400028BF40F00040704712F197
:1055200000723CBF00F50000704700F0004343F0FC
:10553000FE4040F4000070477FEA226216BF084632
:105540007FEA23630146420206BF5FEA412390EAF5
:10555000010F40F4800070474FF0000304E000BFEB
:1055600010F0004348BF40425FEA000C08BF70479C
:1055700043F0964301464FF000001CE050EA010260
:1055800008BF70474FF000030AE000BF50EA010275
:1055900008BF704711F0004302D5404261EB410162
:1055A0005FEA010C02BF84460146002043F0B64387
:1055B00008BFA3F18053A3F50003BCFA8CF2083AAC
:1055C000A3EBC25310DB01FA02FC634400FA02FCB5
:1055D000C2F12002BCF1004F20FA02F243EB0200BC
:1055E00008BF20F00100704702F1200201FA02FC1E
:1055F000C2F1200250EA4C0021FA02F243EB020011
:1056000008BF20EADC7070474FF0FF0C1CEAD05254
:105610001EBF1CEAD15392EA0C0F93EA0C0F6FD015
:105620001A4480EA010C400218BF5FEA41211ED0F3
:105630004FF0006343EA501043EA5111A0FB0131DF
:105640000CF00040B1F5000F3EBF490041EAD371B4
:105650005B0040EA010062F17F02FD2A1DD8B3F130
:10566000004F40EBC25008BF20F00100704790F09F
:10567000000F0CF0004C08BF49024CEA502040EAF1
:1056800051207F3AC2BFD2F1FF0340EAC2507047B7
:1056900040F400004FF00003013A5DDC12F1190FF5
:1056A000DCBF00F000407047C2F10002410021FA67
:1056B00002F1C2F1200200FA02FC5FEA310040F17F
:1056C000000053EA4C0308BF20EADC70704792F0F8
:1056D000000F00F0004C02BF400010F4000F013A30
:1056E000F9D040EA0C0093F0000F01F0004C02BF2B
:1056F000490011F4000F013BF9D041EA0C018FE79A
:105700000CEAD15392EA0C0F18BF93EA0C0F0AD09F
:1057100030F0004C18BF31F0004CD8D180EA0100C5
:1057200000F00040704790F0000F17BF90F0004F5E
:10573000084691F0000F91F0004F14D092EA0C0F40
:1057400001D142020FD193EA0C0F03D14B0218BFD3
:10575000084608D180EA010000F0004040F0FE4019
:1057600040F40000704740F0FE4040F440007047B5
:105770004FF0FF0C1CEAD0521EBF1CEAD15392EA34
:105780000C0F93EA0C0F69D0A2EB030280EA010C24
:1057900049024FEA402037D04FF0805343EA1111BD
:1057A00043EA10130CF000408B4238BF5B0042F11B
:1057B0007D024FF4000C8B4224BF5B1A40EA0C00C0
:1057C000B3EB510F24BFA3EB510340EA5C00B3EBF2
:1057D000910F24BFA3EB910340EA9C00B3EBD10FE0
:1057E00024BFA3EBD10340EADC001B0118BF5FEA32
:1057F0001C1CE0D1FD2A3FF650AF8B4240EBC2505B
:1058000008BF20F0010070470CF0004C4CEA50201B
:105810007F32C2BFD2F1FF0340EAC250704740F46A
:1058200000004FF00003013A37E792F0000F00F05C
:10583000004C02BF400010F4000F013AF9D040EADA
:105840000C0093F0000F01F0004C02BF490011F46E
:10585000000F013BF9D041EA0C0195E70CEAD15366
:1058600092EA0C0F08D142027FF47DAF93EA0C0F4D
:105870007FF470AF084676E793EA0C0F04D14B0231
:105880003FF44CAF08466EE730F0004C18BF31F0E3
:10589000004CCAD130F000427FF45CAF31F00043DD
:1058A0007FF43CAF5FE700BF4FF0FF3C06E000BF76
:1058B0004FF0010C02E000BF4FF0010C4DF804CD99
:1058C0004FEA40024FEA41037FEA226C18BF7FEAA9
:1058D000236C11D001B052EA530C18BF90EA010FAB
:1058E00058BFB2EB030088BFC81738BF6FEAE1703A
:1058F00018BF40F0010070477FEA226C02D15FEAD6
:10590000402C05D17FEA236CE4D15FEA412CE1D041
:105910005DF8040B704700BF844608466146FFE708
:105920000FB5FFF7C9FF002848BF10F1000F0FBDEA
:105930004DF808EDFFF7F4FF0CBF012000205DF8E3
:1059400008FB00BF4DF808EDFFF7EAFF34BF012068
:1059500000205DF808FB00BF4DF808EDFFF7E0FF01
:1059600094BF012000205DF808FB00BF4DF808ED52
:10597000FFF7D2FF94BF012000205DF808FB00BFB5
:105980004DF808EDFFF7C8FF34BF012000205DF897
:1059900008FB00BF42000ED2B2F1FE4F0BD34FF016
:1059A0009E03B3EB126209D44FEA002343F0004395
:1059B00023FA02F070474FF00000704712F1610FB8
:1059C00001D1420202D14FF0FF3070474FF000008A
:1059D000704700BF03460846194600F001B800BFF3
:1059E00010B40C4613460146224602205DF8044BD3
:1059F00000F0A2B870B50F4E0F4D761BB61007D051
:105A0000043D0024013455F8043F9847A642F9D1DB
:105A10000A4E0B4D761B00F0E7FAB61008D0043D95
:105A20000024013455F8043F9847A642F9D170BDCF
:105A300070BD00BFF45F0000F45F00001460000060
:105A4000F45F0000F0B4840743D0541E002A3ED017
:105A5000CDB2034603E0621E002C38D0144603F892
:105A6000015B9A07F7D1032C2AD9CDB245EA052567
:105A70000F2C45EA054515D9A4F110073F0903F19C
:105A8000100606EB07161A46156055609560D5603E
:105A90001032B242F8D104F00F040137032C03EBAB
:105AA00007130DD91E462246043A032A46F8045B22
:105AB000FAD8221F22F003020432134404F0030434
:105AC0002CB1C9B21C4403F8011BA342FBD1F0BCAA
:105AD000704714460346C6E720F0030110F00300A8
